{
  "address": "0x5FbDB2315678afecb367f032d93F642f64180aa3",
  "abi": [
    {
      "inputs": [],
      "stateMutability": "nonpayable",
      "type": "constructor"
    },
    {
      "anonymous": false,
      "inputs": [
        {
          "indexed": true,
          "internalType": "address",
          "name": "owner",
          "type": "address"
        },
        {
          "indexed": true,
          "internalType": "address",
          "name": "approved",
          "type": "address"
        },
        {
          "indexed": true,
          "internalType": "uint256",
          "name": "tokenId",
          "type": "uint256"
        }
      ],
      "name": "Approval",
      "type": "event"
    },
    {
      "anonymous": false,
      "inputs": [
        {
          "indexed": true,
          "internalType": "address",
          "name": "owner",
          "type": "address"
        },
        {
          "indexed": true,
          "internalType": "address",
          "name": "operator",
          "type": "address"
        },
        {
          "indexed": false,
          "internalType": "bool",
          "name": "approved",
          "type": "bool"
        }
      ],
      "name": "ApprovalForAll",
      "type": "event"
    },
    {
      "anonymous": false,
      "inputs": [
        {
          "indexed": true,
          "internalType": "address",
          "name": "previousOwner",
          "type": "address"
        },
        {
          "indexed": true,
          "internalType": "address",
          "name": "newOwner",
          "type": "address"
        }
      ],
      "name": "OwnershipTransferred",
      "type": "event"
    },
    {
      "anonymous": false,
      "inputs": [
        {
          "indexed": false,
          "internalType": "address",
          "name": "account",
          "type": "address"
        }
      ],
      "name": "Paused",
      "type": "event"
    },
    {
      "anonymous": false,
      "inputs": [
        {
          "indexed": true,
          "internalType": "address",
          "name": "from",
          "type": "address"
        },
        {
          "indexed": true,
          "internalType": "address",
          "name": "to",
          "type": "address"
        },
        {
          "indexed": true,
          "internalType": "uint256",
          "name": "tokenId",
          "type": "uint256"
        }
      ],
      "name": "Transfer",
      "type": "event"
    },
    {
      "anonymous": false,
      "inputs": [
        {
          "indexed": false,
          "internalType": "address",
          "name": "account",
          "type": "address"
        }
      ],
      "name": "Unpaused",
      "type": "event"
    },
    {
      "inputs": [
        {
          "internalType": "uint256",
          "name": "tokenId",
          "type": "uint256"
        }
      ],
      "name": "_getAttributes",
      "outputs": [
        {
          "components": [
            {
              "internalType": "enum Cards.CardType",
              "name": "cardType",
              "type": "uint8"
            },
            {
              "internalType": "enum Cards.CardRarity",
              "name": "rarity",
              "type": "uint8"
            },
            {
              "internalType": "uint16",
              "name": "generation",
              "type": "uint16"
            },
            {
              "internalType": "uint8",
              "name": "power",
              "type": "uint8"
            },
            {
              "internalType": "uint8",
              "name": "vitality",
              "type": "uint8"
            },
            {
              "internalType": "uint8",
              "name": "resistance",
              "type": "uint8"
            },
            {
              "internalType": "uint8",
              "name": "agility",
              "type": "uint8"
            },
            {
              "internalType": "uint8",
              "name": "inteligence",
              "type": "uint8"
            },
            {
              "internalType": "uint8",
              "name": "charisma",
              "type": "uint8"
            }
          ],
          "internalType": "struct Cards.Card",
          "name": "",
          "type": "tuple"
        }
      ],
      "stateMutability": "view",
      "type": "function"
    },
    {
      "inputs": [
        {
          "internalType": "address",
          "name": "to",
          "type": "address"
        },
        {
          "internalType": "uint256",
          "name": "tokenId",
          "type": "uint256"
        }
      ],
      "name": "approve",
      "outputs": [],
      "stateMutability": "nonpayable",
      "type": "function"
    },
    {
      "inputs": [
        {
          "internalType": "address",
          "name": "owner",
          "type": "address"
        }
      ],
      "name": "balanceOf",
      "outputs": [
        {
          "internalType": "uint256",
          "name": "",
          "type": "uint256"
        }
      ],
      "stateMutability": "view",
      "type": "function"
    },
    {
      "inputs": [
        {
          "internalType": "uint256",
          "name": "tokenId",
          "type": "uint256"
        }
      ],
      "name": "burn",
      "outputs": [],
      "stateMutability": "nonpayable",
      "type": "function"
    },
    {
      "inputs": [],
      "name": "generateAllTokens",
      "outputs": [],
      "stateMutability": "nonpayable",
      "type": "function"
    },
    {
      "inputs": [
        {
          "internalType": "uint256",
          "name": "maxReceived",
          "type": "uint256"
        }
      ],
      "name": "generateTokens",
      "outputs": [],
      "stateMutability": "nonpayable",
      "type": "function"
    },
    {
      "inputs": [
        {
          "internalType": "uint256",
          "name": "tokenId",
          "type": "uint256"
        }
      ],
      "name": "getApproved",
      "outputs": [
        {
          "internalType": "address",
          "name": "",
          "type": "address"
        }
      ],
      "stateMutability": "view",
      "type": "function"
    },
    {
      "inputs": [
        {
          "internalType": "uint256",
          "name": "tokenId",
          "type": "uint256"
        }
      ],
      "name": "getAttributes",
      "outputs": [
        {
          "internalType": "uint16",
          "name": "",
          "type": "uint16"
        },
        {
          "internalType": "uint8",
          "name": "",
          "type": "uint8"
        },
        {
          "internalType": "uint16",
          "name": "",
          "type": "uint16"
        },
        {
          "internalType": "uint8",
          "name": "",
          "type": "uint8"
        },
        {
          "internalType": "uint8",
          "name": "",
          "type": "uint8"
        },
        {
          "internalType": "uint8",
          "name": "",
          "type": "uint8"
        },
        {
          "internalType": "uint8",
          "name": "",
          "type": "uint8"
        },
        {
          "internalType": "uint8",
          "name": "",
          "type": "uint8"
        },
        {
          "internalType": "uint8",
          "name": "",
          "type": "uint8"
        }
      ],
      "stateMutability": "view",
      "type": "function"
    },
    {
      "inputs": [
        {
          "internalType": "uint256",
          "name": "tokenId",
          "type": "uint256"
        },
        {
          "internalType": "uint256",
          "name": "seed",
          "type": "uint256"
        }
      ],
      "name": "initializeToken",
      "outputs": [],
      "stateMutability": "nonpayable",
      "type": "function"
    },
    {
      "inputs": [
        {
          "internalType": "address",
          "name": "owner",
          "type": "address"
        },
        {
          "internalType": "address",
          "name": "operator",
          "type": "address"
        }
      ],
      "name": "isApprovedForAll",
      "outputs": [
        {
          "internalType": "bool",
          "name": "",
          "type": "bool"
        }
      ],
      "stateMutability": "view",
      "type": "function"
    },
    {
      "inputs": [
        {
          "internalType": "uint256",
          "name": "tokenId",
          "type": "uint256"
        }
      ],
      "name": "isTokenInitialized",
      "outputs": [
        {
          "internalType": "bool",
          "name": "",
          "type": "bool"
        }
      ],
      "stateMutability": "view",
      "type": "function"
    },
    {
      "inputs": [],
      "name": "mint",
      "outputs": [],
      "stateMutability": "payable",
      "type": "function"
    },
    {
      "inputs": [],
      "name": "name",
      "outputs": [
        {
          "internalType": "string",
          "name": "",
          "type": "string"
        }
      ],
      "stateMutability": "view",
      "type": "function"
    },
    {
      "inputs": [],
      "name": "owner",
      "outputs": [
        {
          "internalType": "address",
          "name": "",
          "type": "address"
        }
      ],
      "stateMutability": "view",
      "type": "function"
    },
    {
      "inputs": [
        {
          "internalType": "uint256",
          "name": "tokenId",
          "type": "uint256"
        }
      ],
      "name": "ownerOf",
      "outputs": [
        {
          "internalType": "address",
          "name": "",
          "type": "address"
        }
      ],
      "stateMutability": "view",
      "type": "function"
    },
    {
      "inputs": [],
      "name": "pause",
      "outputs": [],
      "stateMutability": "nonpayable",
      "type": "function"
    },
    {
      "inputs": [],
      "name": "paused",
      "outputs": [
        {
          "internalType": "bool",
          "name": "",
          "type": "bool"
        }
      ],
      "stateMutability": "view",
      "type": "function"
    },
    {
      "inputs": [],
      "name": "renounceOwnership",
      "outputs": [],
      "stateMutability": "nonpayable",
      "type": "function"
    },
    {
      "inputs": [
        {
          "internalType": "address",
          "name": "to",
          "type": "address"
        }
      ],
      "name": "safeMint",
      "outputs": [],
      "stateMutability": "nonpayable",
      "type": "function"
    },
    {
      "inputs": [
        {
          "internalType": "address",
          "name": "from",
          "type": "address"
        },
        {
          "internalType": "address",
          "name": "to",
          "type": "address"
        },
        {
          "internalType": "uint256",
          "name": "tokenId",
          "type": "uint256"
        }
      ],
      "name": "safeTransferFrom",
      "outputs": [],
      "stateMutability": "nonpayable",
      "type": "function"
    },
    {
      "inputs": [
        {
          "internalType": "address",
          "name": "from",
          "type": "address"
        },
        {
          "internalType": "address",
          "name": "to",
          "type": "address"
        },
        {
          "internalType": "uint256",
          "name": "tokenId",
          "type": "uint256"
        },
        {
          "internalType": "bytes",
          "name": "_data",
          "type": "bytes"
        }
      ],
      "name": "safeTransferFrom",
      "outputs": [],
      "stateMutability": "nonpayable",
      "type": "function"
    },
    {
      "inputs": [
        {
          "internalType": "address",
          "name": "operator",
          "type": "address"
        },
        {
          "internalType": "bool",
          "name": "approved",
          "type": "bool"
        }
      ],
      "name": "setApprovalForAll",
      "outputs": [],
      "stateMutability": "nonpayable",
      "type": "function"
    },
    {
      "inputs": [
        {
          "internalType": "bytes4",
          "name": "interfaceId",
          "type": "bytes4"
        }
      ],
      "name": "supportsInterface",
      "outputs": [
        {
          "internalType": "bool",
          "name": "",
          "type": "bool"
        }
      ],
      "stateMutability": "view",
      "type": "function"
    },
    {
      "inputs": [],
      "name": "symbol",
      "outputs": [
        {
          "internalType": "string",
          "name": "",
          "type": "string"
        }
      ],
      "stateMutability": "view",
      "type": "function"
    },
    {
      "inputs": [
        {
          "internalType": "uint256",
          "name": "index",
          "type": "uint256"
        }
      ],
      "name": "tokenByIndex",
      "outputs": [
        {
          "internalType": "uint256",
          "name": "",
          "type": "uint256"
        }
      ],
      "stateMutability": "view",
      "type": "function"
    },
    {
      "inputs": [
        {
          "internalType": "address",
          "name": "owner",
          "type": "address"
        },
        {
          "internalType": "uint256",
          "name": "index",
          "type": "uint256"
        }
      ],
      "name": "tokenOfOwnerByIndex",
      "outputs": [
        {
          "internalType": "uint256",
          "name": "",
          "type": "uint256"
        }
      ],
      "stateMutability": "view",
      "type": "function"
    },
    {
      "inputs": [
        {
          "internalType": "uint256",
          "name": "tokenId",
          "type": "uint256"
        }
      ],
      "name": "tokenURI",
      "outputs": [
        {
          "internalType": "string",
          "name": "",
          "type": "string"
        }
      ],
      "stateMutability": "view",
      "type": "function"
    },
    {
      "inputs": [],
      "name": "totalSupply",
      "outputs": [
        {
          "internalType": "uint256",
          "name": "",
          "type": "uint256"
        }
      ],
      "stateMutability": "view",
      "type": "function"
    },
    {
      "inputs": [
        {
          "internalType": "address",
          "name": "from",
          "type": "address"
        },
        {
          "internalType": "address",
          "name": "to",
          "type": "address"
        },
        {
          "internalType": "uint256",
          "name": "tokenId",
          "type": "uint256"
        }
      ],
      "name": "transferFrom",
      "outputs": [],
      "stateMutability": "nonpayable",
      "type": "function"
    },
    {
      "inputs": [
        {
          "internalType": "address",
          "name": "newOwner",
          "type": "address"
        }
      ],
      "name": "transferOwnership",
      "outputs": [],
      "stateMutability": "nonpayable",
      "type": "function"
    },
    {
      "inputs": [],
      "name": "unpause",
      "outputs": [],
      "stateMutability": "nonpayable",
      "type": "function"
    }
  ],
  "transactionHash": "0x36f5679d81081ed638611498a31e0670c77f994b74924f0a3374acddcb64b464",
  "args": [],
  "solcInputHash": "00e95d2b43b75b783c76788d056f2398",
  "bytecode": "0x60806040523480156200001157600080fd5b506040518060400160405280600581526020017f54756e666f0000000000000000000000000000000000000000000000000000008152506040518060400160405280600381526020017f544e460000000000000000000000000000000000000000000000000000000000815250816000908051906020019062000096929190620001c1565b508060019080519060200190620000af929190620001c1565b5050506000600b60006101000a81548160ff021916908315150217905550620000ed620000e1620000f360201b60201c565b620000fb60201b60201c565b620002d6565b600033905090565b6000600b60019054906101000a900473ffffffffffffffffffffffffffffffffffffffff16905081600b60016101000a81548173ffffffffffffffffffffffffffffffffffffffff021916908373ffffffffffffffffffffffffffffffffffffffff1602179055508173ffffffffffffffffffffffffffffffffffffffff168173ffffffffffffffffffffffffffffffffffffffff167f8be0079c531659141344cd1fd0a4f28419497f9722a3daafe3b4186f6b6457e060405160405180910390a35050565b828054620001cf9062000271565b90600052602060002090601f016020900481019282620001f357600085556200023f565b82601f106200020e57805160ff19168380011785556200023f565b828001600101855582156200023f579182015b828111156200023e57825182559160200191906001019062000221565b5b5090506200024e919062000252565b5090565b5b808211156200026d57600081600090555060010162000253565b5090565b600060028204905060018216806200028a57607f821691505b60208210811415620002a157620002a0620002a7565b5b50919050565b7f4e487b7100000000000000000000000000000000000000000000000000000000600052602260045260246000fd5b615d7880620002e66000396000f3fe6080604052600436106101d85760003560e01c80634f6ccce71161010257806395d89b4111610095578063ca01ba3911610064578063ca01ba39146106a3578063d607b5c6146106cc578063e985e9c5146106f5578063f2fde38b14610732576101d8565b806395d89b41146105e9578063a22cb46514610614578063b88d4fde1461063d578063c87b56dd14610666576101d8565b8063715018a6116100d1578063715018a61461057957806372923270146105905780638456cb59146105a75780638da5cb5b146105be576101d8565b80634f6ccce7146104975780635c975abb146104d45780636352211e146104ff57806370a082311461053c576101d8565b806323b872dd1161017a57806340d097c31161014957806340d097c3146103d757806342842e0e1461040057806342966c68146104295780634378a6e314610452576101d8565b806323b872dd1461031d57806327dc10e2146103465780632f745c59146103835780633f4ba83a146103c0576101d8565b8063095ea7b3116101b6578063095ea7b3146102825780631249c58b146102ab57806318160ddd146102b55780631f7d780d146102e0576101d8565b806301ffc9a7146101dd57806306fdde031461021a578063081812fc14610245575b600080fd5b3480156101e957600080fd5b5061020460048036038101906101ff91906146d0565b61075b565b6040516102119190614d6c565b60405180910390f35b34801561022657600080fd5b5061022f61076d565b60405161023c9190614d87565b60405180910390f35b34801561025157600080fd5b5061026c60048036038101906102679190614722565b6107ff565b6040516102799190614d05565b60405180910390f35b34801561028e57600080fd5b506102a960048036038101906102a49190614694565b610884565b005b6102b361099c565b005b3480156102c157600080fd5b506102ca610a32565b6040516102d79190615132565b60405180910390f35b3480156102ec57600080fd5b5061030760048036038101906103029190614722565b610a3f565b6040516103149190615089565b60405180910390f35b34801561032957600080fd5b50610344600480360381019061033f919061458e565b610bbd565b005b34801561035257600080fd5b5061036d60048036038101906103689190614722565b610c1d565b60405161037a9190614d6c565b60405180910390f35b34801561038f57600080fd5b506103aa60048036038101906103a59190614694565b610c32565b6040516103b79190615132565b60405180910390f35b3480156103cc57600080fd5b506103d5610cd7565b005b3480156103e357600080fd5b506103fe60048036038101906103f99190614529565b610d5d565b005b34801561040c57600080fd5b506104276004803603810190610422919061458e565b610de5565b005b34801561043557600080fd5b50610450600480360381019061044b9190614722565b610e05565b005b34801561045e57600080fd5b5061047960048036038101906104749190614722565b610e61565b60405161048e999897969594939291906150a5565b60405180910390f35b3480156104a357600080fd5b506104be60048036038101906104b99190614722565b611141565b6040516104cb9190615132565b60405180910390f35b3480156104e057600080fd5b506104e96111d8565b6040516104f69190614d6c565b60405180910390f35b34801561050b57600080fd5b5061052660048036038101906105219190614722565b6111ef565b6040516105339190614d05565b60405180910390f35b34801561054857600080fd5b50610563600480360381019061055e9190614529565b6112a1565b6040516105709190615132565b60405180910390f35b34801561058557600080fd5b5061058e611359565b005b34801561059c57600080fd5b506105a56113e1565b005b3480156105b357600080fd5b506105bc611485565b005b3480156105ca57600080fd5b506105d361150b565b6040516105e09190614d05565b60405180910390f35b3480156105f557600080fd5b506105fe611535565b60405161060b9190614d87565b60405180910390f35b34801561062057600080fd5b5061063b60048036038101906106369190614658565b6115c7565b005b34801561064957600080fd5b50610664600480360381019061065f91906145dd565b611748565b005b34801561067257600080fd5b5061068d60048036038101906106889190614722565b6117aa565b60405161069a9190614d87565b60405180910390f35b3480156106af57600080fd5b506106ca60048036038101906106c59190614722565b6117bc565b005b3480156106d857600080fd5b506106f360048036038101906106ee919061474b565b6118fd565b005b34801561070157600080fd5b5061071c60048036038101906107179190614552565b611b32565b6040516107299190614d6c565b60405180910390f35b34801561073e57600080fd5b5061075960048036038101906107549190614529565b611bc6565b005b600061076682611cbe565b9050919050565b60606000805461077c906154cc565b80601f01602080910402602001604051908101604052809291908181526020018280546107a8906154cc565b80156107f55780601f106107ca576101008083540402835291602001916107f5565b820191906000526020600020905b8154815290600101906020018083116107d857829003601f168201915b5050505050905090565b600061080a82611d38565b610849576040517f08c379a000000000000000000000000000000000000000000000000000000000815260040161084090614f69565b60405180910390fd5b6004600083815260200190815260200160002060009054906101000a900473ffffffffffffffffffffffffffffffffffffffff169050919050565b600061088f826111ef565b90508073ffffffffffffffffffffffffffffffffffffffff168373ffffffffffffffffffffffffffffffffffffffff161415610900576040517f08c379a00000000000000000000000000000000000000000000000000000000081526004016108f790615009565b60405180910390fd5b8073ffffffffffffffffffffffffffffffffffffffff1661091f611da4565b73ffffffffffffffffffffffffffffffffffffffff16148061094e575061094d81610948611da4565b611b32565b5b61098d576040517f08c379a000000000000000000000000000000000000000000000000000000000815260040161098490614ec9565b60405180910390fd5b6109978383611dac565b505050565b6109a46111d8565b156109e4576040517f08c379a00000000000000000000000000000000000000000000000000000000081526004016109db90614ea9565b60405180910390fd5b600a3414610a27576040517f08c379a0000000000000000000000000000000000000000000000000000000008152600401610a1e90614fe9565b60405180910390fd5b610a3033611e65565b565b6000600880549050905090565b610a47614329565b6000806000806000806000806000610a5e8b610e61565b9850985098509850985098509850985098506040518061012001604052808a61ffff166002811115610ab9577f4e487b7100000000000000000000000000000000000000000000000000000000600052602160045260246000fd5b6002811115610af1577f4e487b7100000000000000000000000000000000000000000000000000000000600052602160045260246000fd5b81526020018960ff166004811115610b32577f4e487b7100000000000000000000000000000000000000000000000000000000600052602160045260246000fd5b6004811115610b6a577f4e487b7100000000000000000000000000000000000000000000000000000000600052602160045260246000fd5b81526020018861ffff1681526020018760ff1681526020018660ff1681526020018560ff1681526020018460ff1681526020018360ff1681526020018260ff168152509950505050505050505050919050565b610bce610bc8611da4565b82611e85565b610c0d576040517f08c379a0000000000000000000000000000000000000000000000000000000008152600401610c0490615029565b60405180910390fd5b610c18838383611f63565b505050565b600081610c2a600d6121bf565b119050919050565b6000610c3d836112a1565b8210610c7e576040517f08c379a0000000000000000000000000000000000000000000000000000000008152600401610c7590614dc9565b60405180910390fd5b600660008473ffffffffffffffffffffffffffffffffffffffff1673ffffffffffffffffffffffffffffffffffffffff168152602001908152602001600020600083815260200190815260200160002054905092915050565b610cdf611da4565b73ffffffffffffffffffffffffffffffffffffffff16610cfd61150b565b73ffffffffffffffffffffffffffffffffffffffff1614610d53576040517f08c379a0000000000000000000000000000000000000000000000000000000008152600401610d4a90614f89565b60405180910390fd5b610d5b6121cd565b565b610d65611da4565b73ffffffffffffffffffffffffffffffffffffffff16610d8361150b565b73ffffffffffffffffffffffffffffffffffffffff1614610dd9576040517f08c379a0000000000000000000000000000000000000000000000000000000008152600401610dd090614f89565b60405180910390fd5b610de281611e65565b50565b610e0083838360405180602001604052806000815250611748565b505050565b610e16610e10611da4565b82611e85565b610e55576040517f08c379a0000000000000000000000000000000000000000000000000000000008152600401610e4c90615069565b60405180910390fd5b610e5e8161226f565b50565b600080600080600080600080600089610e7a600d6121bf565b11610e8457600080fd5b6000600e60008c8152602001908152602001600020604051806101200160405290816000820160009054906101000a900460ff166002811115610ef0577f4e487b7100000000000000000000000000000000000000000000000000000000600052602160045260246000fd5b6002811115610f28577f4e487b7100000000000000000000000000000000000000000000000000000000600052602160045260246000fd5b81526020016000820160019054906101000a900460ff166004811115610f77577f4e487b7100000000000000000000000000000000000000000000000000000000600052602160045260246000fd5b6004811115610faf577f4e487b7100000000000000000000000000000000000000000000000000000000600052602160045260246000fd5b81526020016000820160029054906101000a900461ffff1661ffff1661ffff1681526020016000820160049054906101000a900460ff1660ff1660ff1681526020016000820160059054906101000a900460ff1660ff1660ff1681526020016000820160069054906101000a900460ff1660ff1660ff1681526020016000820160079054906101000a900460ff1660ff1660ff1681526020016000820160089054906101000a900460ff1660ff1660ff1681526020016000820160099054906101000a900460ff1660ff1660ff16815250509050806000015160028111156110c0577f4e487b7100000000000000000000000000000000000000000000000000000000600052602160045260246000fd5b816020015160048111156110fd577f4e487b7100000000000000000000000000000000000000000000000000000000600052602160045260246000fd5b8260400151836060015184608001518560a001518660c001518760e00151886101000151995099509950995099509950995099509950509193959799909294969850565b600061114b610a32565b821061118c576040517f08c379a000000000000000000000000000000000000000000000000000000000815260040161118390615049565b60405180910390fd5b600882815481106111c6577f4e487b7100000000000000000000000000000000000000000000000000000000600052603260045260246000fd5b90600052602060002001549050919050565b6000600b60009054906101000a900460ff16905090565b6000806002600084815260200190815260200160002060009054906101000a900473ffffffffffffffffffffffffffffffffffffffff169050600073ffffffffffffffffffffffffffffffffffffffff168173ffffffffffffffffffffffffffffffffffffffff161415611298576040517f08c379a000000000000000000000000000000000000000000000000000000000815260040161128f90614f09565b60405180910390fd5b80915050919050565b60008073ffffffffffffffffffffffffffffffffffffffff168273ffffffffffffffffffffffffffffffffffffffff161415611312576040517f08c379a000000000000000000000000000000000000000000000000000000000815260040161130990614ee9565b60405180910390fd5b600360008373ffffffffffffffffffffffffffffffffffffffff1673ffffffffffffffffffffffffffffffffffffffff168152602001908152602001600020549050919050565b611361611da4565b73ffffffffffffffffffffffffffffffffffffffff1661137f61150b565b73ffffffffffffffffffffffffffffffffffffffff16146113d5576040517f08c379a00000000000000000000000000000000000000000000000000000000081526004016113cc90614f89565b60405180910390fd5b6113df600061227b565b565b6113e9611da4565b73ffffffffffffffffffffffffffffffffffffffff1661140761150b565b73ffffffffffffffffffffffffffffffffffffffff161461145d576040517f08c379a000000000000000000000000000000000000000000000000000000000815260040161145490614f89565b60405180910390fd5b61148361146a600d6121bf565b611474600c6121bf565b61147e9190615349565b6117bc565b565b61148d611da4565b73ffffffffffffffffffffffffffffffffffffffff166114ab61150b565b73ffffffffffffffffffffffffffffffffffffffff1614611501576040517f08c379a00000000000000000000000000000000000000000000000000000000081526004016114f890614f89565b60405180910390fd5b611509612341565b565b6000600b60019054906101000a900473ffffffffffffffffffffffffffffffffffffffff16905090565b606060018054611544906154cc565b80601f0160208091040260200160405190810160405280929190818152602001828054611570906154cc565b80156115bd5780601f10611592576101008083540402835291602001916115bd565b820191906000526020600020905b8154815290600101906020018083116115a057829003601f168201915b5050505050905090565b6115cf611da4565b73ffffffffffffffffffffffffffffffffffffffff168273ffffffffffffffffffffffffffffffffffffffff16141561163d576040517f08c379a000000000000000000000000000000000000000000000000000000000815260040161163490614e69565b60405180910390fd5b806005600061164a611da4565b73ffffffffffffffffffffffffffffffffffffffff1673ffffffffffffffffffffffffffffffffffffffff16815260200190815260200160002060008473ffffffffffffffffffffffffffffffffffffffff1673ffffffffffffffffffffffffffffffffffffffff16815260200190815260200160002060006101000a81548160ff0219169083151502179055508173ffffffffffffffffffffffffffffffffffffffff166116f7611da4565b73ffffffffffffffffffffffffffffffffffffffff167f17307eab39ab6107e8899845ad3d59bd9653f200f220920489ca2b5937696c318360405161173c9190614d6c565b60405180910390a35050565b611759611753611da4565b83611e85565b611798576040517f08c379a000000000000000000000000000000000000000000000000000000000815260040161178f90615029565b60405180910390fd5b6117a4848484846123e4565b50505050565b60606117b582612440565b9050919050565b6117c4611da4565b73ffffffffffffffffffffffffffffffffffffffff166117e261150b565b73ffffffffffffffffffffffffffffffffffffffff1614611838576040517f08c379a000000000000000000000000000000000000000000000000000000000815260040161182f90614f89565b60405180910390fd5b6000611844600d6121bf565b61184e600c6121bf565b6118589190615349565b90506000828211611869578161186b565b825b9050600060014361187c9190615349565b4060001c905060005b828110156118f6576000611899600d6121bf565b905060008382846040516020016118b293929190614cc8565b6040516020818303038152906040528051906020012060001c90506118d782826118fd565b6118e1600d612592565b505080806118ee9061552f565b915050611885565b5050505050565b611905611da4565b73ffffffffffffffffffffffffffffffffffffffff1661192361150b565b73ffffffffffffffffffffffffffffffffffffffff1614611979576040517f08c379a000000000000000000000000000000000000000000000000000000000815260040161197090614f89565b60405180910390fd5b611982816125a8565b600e600084815260200190815260200160002060008201518160000160006101000a81548160ff021916908360028111156119e6577f4e487b7100000000000000000000000000000000000000000000000000000000600052602160045260246000fd5b021790555060208201518160000160016101000a81548160ff02191690836004811115611a3c577f4e487b7100000000000000000000000000000000000000000000000000000000600052602160045260246000fd5b021790555060408201518160000160026101000a81548161ffff021916908361ffff16021790555060608201518160000160046101000a81548160ff021916908360ff16021790555060808201518160000160056101000a81548160ff021916908360ff16021790555060a08201518160000160066101000a81548160ff021916908360ff16021790555060c08201518160000160076101000a81548160ff021916908360ff16021790555060e08201518160000160086101000a81548160ff021916908360ff1602179055506101008201518160000160096101000a81548160ff021916908360ff1602179055509050505050565b6000600560008473ffffffffffffffffffffffffffffffffffffffff1673ffffffffffffffffffffffffffffffffffffffff16815260200190815260200160002060008373ffffffffffffffffffffffffffffffffffffffff1673ffffffffffffffffffffffffffffffffffffffff16815260200190815260200160002060009054906101000a900460ff16905092915050565b611bce611da4565b73ffffffffffffffffffffffffffffffffffffffff16611bec61150b565b73ffffffffffffffffffffffffffffffffffffffff1614611c42576040517f08c379a0000000000000000000000000000000000000000000000000000000008152600401611c3990614f89565b60405180910390fd5b600073ffffffffffffffffffffffffffffffffffffffff168173ffffffffffffffffffffffffffffffffffffffff161415611cb2576040517f08c379a0000000000000000000000000000000000000000000000000000000008152600401611ca990614e09565b60405180910390fd5b611cbb8161227b565b50565b60007f780e9d63000000000000000000000000000000000000000000000000000000007bffffffffffffffffffffffffffffffffffffffffffffffffffffffff1916827bffffffffffffffffffffffffffffffffffffffffffffffffffffffff19161480611d315750611d3082612707565b5b9050919050565b60008073ffffffffffffffffffffffffffffffffffffffff166002600084815260200190815260200160002060009054906101000a900473ffffffffffffffffffffffffffffffffffffffff1673ffffffffffffffffffffffffffffffffffffffff1614159050919050565b600033905090565b816004600083815260200190815260200160002060006101000a81548173ffffffffffffffffffffffffffffffffffffffff021916908373ffffffffffffffffffffffffffffffffffffffff160217905550808273ffffffffffffffffffffffffffffffffffffffff16611e1f836111ef565b73ffffffffffffffffffffffffffffffffffffffff167f8c5be1e5ebec7d5bd14f71427d1e84f3dd0314c0f7b2291e5b200ac8c7c3b92560405160405180910390a45050565b611e7881611e73600c6121bf565b6127e9565b611e82600c612592565b50565b6000611e9082611d38565b611ecf576040517f08c379a0000000000000000000000000000000000000000000000000000000008152600401611ec690614e89565b60405180910390fd5b6000611eda836111ef565b90508073ffffffffffffffffffffffffffffffffffffffff168473ffffffffffffffffffffffffffffffffffffffff161480611f4957508373ffffffffffffffffffffffffffffffffffffffff16611f31846107ff565b73ffffffffffffffffffffffffffffffffffffffff16145b80611f5a5750611f598185611b32565b5b91505092915050565b8273ffffffffffffffffffffffffffffffffffffffff16611f83826111ef565b73ffffffffffffffffffffffffffffffffffffffff1614611fd9576040517f08c379a0000000000000000000000000000000000000000000000000000000008152600401611fd090614fa9565b60405180910390fd5b600073ffffffffffffffffffffffffffffffffffffffff168273ffffffffffffffffffffffffffffffffffffffff161415612049576040517f08c379a000000000000000000000000000000000000000000000000000000000815260040161204090614e49565b60405180910390fd5b612054838383612807565b61205f600082611dac565b6001600360008573ffffffffffffffffffffffffffffffffffffffff1673ffffffffffffffffffffffffffffffffffffffff16815260200190815260200160002060008282546120af9190615349565b925050819055506001600360008473ffffffffffffffffffffffffffffffffffffffff1673ffffffffffffffffffffffffffffffffffffffff1681526020019081526020016000206000828254612106919061521e565b92505081905550816002600083815260200190815260200160002060006101000a81548173ffffffffffffffffffffffffffffffffffffffff021916908373ffffffffffffffffffffffffffffffffffffffff160217905550808273ffffffffffffffffffffffffffffffffffffffff168473ffffffffffffffffffffffffffffffffffffffff167fddf252ad1be2c89b69c2b068fc378daa952ba7f163c4a11628f55a4df523b3ef60405160405180910390a4505050565b600081600001549050919050565b6121d56111d8565b612214576040517f08c379a000000000000000000000000000000000000000000000000000000000815260040161220b90614da9565b60405180910390fd5b6000600b60006101000a81548160ff0219169083151502179055507f5db9ee0a495bf2e6ff9c91a7834c1ba4fdd244a5e8aa4e537bd38aeae4b073aa612258611da4565b6040516122659190614d05565b60405180910390a1565b6122788161285f565b50565b6000600b60019054906101000a900473ffffffffffffffffffffffffffffffffffffffff16905081600b60016101000a81548173ffffffffffffffffffffffffffffffffffffffff021916908373ffffffffffffffffffffffffffffffffffffffff1602179055508173ffffffffffffffffffffffffffffffffffffffff168173ffffffffffffffffffffffffffffffffffffffff167f8be0079c531659141344cd1fd0a4f28419497f9722a3daafe3b4186f6b6457e060405160405180910390a35050565b6123496111d8565b15612389576040517f08c379a000000000000000000000000000000000000000000000000000000000815260040161238090614ea9565b60405180910390fd5b6001600b60006101000a81548160ff0219169083151502179055507f62e78cea01bee320cd4e420270b5ea74000d11b0c9f74754ebdbfc544b05a2586123cd611da4565b6040516123da9190614d05565b60405180910390a1565b6123ef848484611f63565b6123fb848484846128b2565b61243a576040517f08c379a000000000000000000000000000000000000000000000000000000000815260040161243190614de9565b60405180910390fd5b50505050565b606061244b82611d38565b61248a576040517f08c379a000000000000000000000000000000000000000000000000000000000815260040161248190614f49565b60405180910390fd5b6000600a600084815260200190815260200160002080546124aa906154cc565b80601f01602080910402602001604051908101604052809291908181526020018280546124d6906154cc565b80156125235780601f106124f857610100808354040283529160200191612523565b820191906000526020600020905b81548152906001019060200180831161250657829003601f168201915b505050505090506000612534612a49565b905060008151141561254a57819250505061258d565b60008251111561257f578082604051602001612567929190614ca4565b6040516020818303038152906040529250505061258d565b61258884612a86565b925050505b919050565b6001816000016000828254019250508190555050565b6125b0614329565b60006125bb83612b2d565b905060006125cc600885901c612b8d565b9050604051806101200160405280826002811115612613577f4e487b7100000000000000000000000000000000000000000000000000000000600052602160045260246000fd5b8152602001836004811115612651577f4e487b7100000000000000000000000000000000000000000000000000000000600052602160045260246000fd5b815260200161265e612bc3565b60ff1661ffff16815260200161267b8385600060108a901c612bcc565b60ff1681526020016126948385600160188a901c612bcc565b60ff1681526020016126ad8385600260208a901c612bcc565b60ff1681526020016126c68385600360288a901c612bcc565b60ff1681526020016126df8385600460308a901c612bcc565b60ff1681526020016126f88385600560388a901c612bcc565b60ff1681525092505050919050565b60007f80ac58cd000000000000000000000000000000000000000000000000000000007bffffffffffffffffffffffffffffffffffffffffffffffffffffffff1916827bffffffffffffffffffffffffffffffffffffffffffffffffffffffff191614806127d257507f5b5e139f000000000000000000000000000000000000000000000000000000007bffffffffffffffffffffffffffffffffffffffffffffffffffffffff1916827bffffffffffffffffffffffffffffffffffffffffffffffffffffffff1916145b806127e257506127e182612c00565b5b9050919050565b612803828260405180602001604052806000815250612c6a565b5050565b61280f6111d8565b1561284f576040517f08c379a000000000000000000000000000000000000000000000000000000000815260040161284690614ea9565b60405180910390fd5b61285a838383612cc5565b505050565b61286881612dd9565b6000600a60008381526020019081526020016000208054612888906154cc565b9050146128af57600a600082815260200190815260200160002060006128ae91906143fb565b5b50565b60006128d38473ffffffffffffffffffffffffffffffffffffffff16612eea565b15612a3c578373ffffffffffffffffffffffffffffffffffffffff1663150b7a026128fc611da4565b8786866040518563ffffffff1660e01b815260040161291e9493929190614d20565b602060405180830381600087803b15801561293857600080fd5b505af192505050801561296957506040513d601f19601f8201168201806040525081019061296691906146f9565b60015b6129ec573d8060008114612999576040519150601f19603f3d011682016040523d82523d6000602084013e61299e565b606091505b506000815114156129e4576040517f08c379a00000000000000000000000000000000000000000000000000000000081526004016129db90614de9565b60405180910390fd5b805181602001fd5b63150b7a0260e01b7bffffffffffffffffffffffffffffffffffffffffffffffffffffffff1916817bffffffffffffffffffffffffffffffffffffffffffffffffffffffff191614915050612a41565b600190505b949350505050565b60606040518060400160405280601281526020017f687474703a2f2f676f6f676c652e636f6d2f0000000000000000000000000000815250905090565b6060612a9182611d38565b612ad0576040517f08c379a0000000000000000000000000000000000000000000000000000000008152600401612ac790614fc9565b60405180910390fd5b6000612ada612a49565b90506000815111612afa5760405180602001604052806000815250612b25565b80612b0484612efd565b604051602001612b15929190614ca4565b6040516020818303038152906040525b915050919050565b600060808260ff161015612b445760009050612b88565b60cd8260ff161015612b595760019050612b88565b60f48260ff161015612b6e5760029050612b88565b60fe8260ff161015612b835760039050612b88565b600490505b919050565b600060568260ff161015612ba45760009050612bbe565b60ac8260ff161015612bb95760019050612bbe565b600290505b919050565b60006001905090565b600080612bd986856130aa565b90506000612be78683613b4f565b9050612bf4828286613da7565b92505050949350505050565b60007f01ffc9a7000000000000000000000000000000000000000000000000000000007bffffffffffffffffffffffffffffffffffffffffffffffffffffffff1916827bffffffffffffffffffffffffffffffffffffffffffffffffffffffff1916149050919050565b612c748383613dde565b612c8160008484846128b2565b612cc0576040517f08c379a0000000000000000000000000000000000000000000000000000000008152600401612cb790614de9565b60405180910390fd5b505050565b612cd0838383613fac565b600073ffffffffffffffffffffffffffffffffffffffff168373ffffffffffffffffffffffffffffffffffffffff161415612d1357612d0e81613fb1565b612d52565b8173ffffffffffffffffffffffffffffffffffffffff168373ffffffffffffffffffffffffffffffffffffffff1614612d5157612d508382613ffa565b5b5b600073ffffffffffffffffffffffffffffffffffffffff168273ffffffffffffffffffffffffffffffffffffffff161415612d9557612d9081614167565b612dd4565b8273ffffffffffffffffffffffffffffffffffffffff168273ffffffffffffffffffffffffffffffffffffffff1614612dd357612dd282826142aa565b5b5b505050565b6000612de4826111ef565b9050612df281600084612807565b612dfd600083611dac565b6001600360008373ffffffffffffffffffffffffffffffffffffffff1673ffffffffffffffffffffffffffffffffffffffff1681526020019081526020016000206000828254612e4d9190615349565b925050819055506002600083815260200190815260200160002060006101000a81549073ffffffffffffffffffffffffffffffffffffffff021916905581600073ffffffffffffffffffffffffffffffffffffffff168273ffffffffffffffffffffffffffffffffffffffff167fddf252ad1be2c89b69c2b068fc378daa952ba7f163c4a11628f55a4df523b3ef60405160405180910390a45050565b600080823b905060008111915050919050565b60606000821415612f45576040518060400160405280600181526020017f300000000000000000000000000000000000000000000000000000000000000081525090506130a5565b600082905060005b60008214612f77578080612f609061552f565b915050600a82612f7091906152dc565b9150612f4d565b60008167ffffffffffffffff811115612fb9577f4e487b7100000000000000000000000000000000000000000000000000000000600052604160045260246000fd5b6040519080825280601f01601f191660200182016040528015612feb5781602001600182028036833780820191505090505b5090505b6000851461309e576001826130049190615349565b9150600a856130139190615582565b603061301f919061521e565b60f81b81838151811061305b577f4e487b7100000000000000000000000000000000000000000000000000000000600052603260045260246000fd5b60200101907effffffffffffffffffffffffffffffffffffffffffffffffffffffffffffff1916908160001a905350600a8561309791906152dc565b9450612fef565b8093505050505b919050565b6000600160028111156130e6577f4e487b7100000000000000000000000000000000000000000000000000000000600052602160045260246000fd5b83600281111561311f577f4e487b7100000000000000000000000000000000000000000000000000000000600052602160045260246000fd5b1415613435576000600581111561315f577f4e487b7100000000000000000000000000000000000000000000000000000000600052602160045260246000fd5b826005811115613198577f4e487b7100000000000000000000000000000000000000000000000000000000600052602160045260246000fd5b14156131a75760339050613b49565b600160058111156131e1577f4e487b7100000000000000000000000000000000000000000000000000000000600052602160045260246000fd5b82600581111561321a577f4e487b7100000000000000000000000000000000000000000000000000000000600052602160045260246000fd5b14156132295760269050613b49565b60026005811115613263577f4e487b7100000000000000000000000000000000000000000000000000000000600052602160045260246000fd5b82600581111561329c577f4e487b7100000000000000000000000000000000000000000000000000000000600052602160045260246000fd5b14156132ab5760669050613b49565b600360058111156132e5577f4e487b7100000000000000000000000000000000000000000000000000000000600052602160045260246000fd5b82600581111561331e577f4e487b7100000000000000000000000000000000000000000000000000000000600052602160045260246000fd5b141561332d5760b39050613b49565b60046005811115613367577f4e487b7100000000000000000000000000000000000000000000000000000000600052602160045260246000fd5b8260058111156133a0577f4e487b7100000000000000000000000000000000000000000000000000000000600052602160045260246000fd5b14156133af5760739050613b49565b6005808111156133e8577f4e487b7100000000000000000000000000000000000000000000000000000000600052602160045260246000fd5b826005811115613421577f4e487b7100000000000000000000000000000000000000000000000000000000600052602160045260246000fd5b14156134305760cc9050613b49565b613b44565b60028081111561346e577f4e487b7100000000000000000000000000000000000000000000000000000000600052602160045260246000fd5b8360028111156134a7577f4e487b7100000000000000000000000000000000000000000000000000000000600052602160045260246000fd5b14156137bd57600060058111156134e7577f4e487b7100000000000000000000000000000000000000000000000000000000600052602160045260246000fd5b826005811115613520577f4e487b7100000000000000000000000000000000000000000000000000000000600052602160045260246000fd5b141561352f5760599050613b49565b60016005811115613569577f4e487b7100000000000000000000000000000000000000000000000000000000600052602160045260246000fd5b8260058111156135a2577f4e487b7100000000000000000000000000000000000000000000000000000000600052602160045260246000fd5b14156135b157604d9050613b49565b600260058111156135eb577f4e487b7100000000000000000000000000000000000000000000000000000000600052602160045260246000fd5b826005811115613624577f4e487b7100000000000000000000000000000000000000000000000000000000600052602160045260246000fd5b141561363357604d9050613b49565b6003600581111561366d577f4e487b7100000000000000000000000000000000000000000000000000000000600052602160045260246000fd5b8260058111156136a6577f4e487b7100000000000000000000000000000000000000000000000000000000600052602160045260246000fd5b14156136b55760669050613b49565b600460058111156136ef577f4e487b7100000000000000000000000000000000000000000000000000000000600052602160045260246000fd5b826005811115613728577f4e487b7100000000000000000000000000000000000000000000000000000000600052602160045260246000fd5b14156137375760a69050613b49565b600580811115613770577f4e487b7100000000000000000000000000000000000000000000000000000000600052602160045260246000fd5b8260058111156137a9577f4e487b7100000000000000000000000000000000000000000000000000000000600052602160045260246000fd5b14156137b85760b39050613b49565b613b43565b600060028111156137f7577f4e487b7100000000000000000000000000000000000000000000000000000000600052602160045260246000fd5b836002811115613830577f4e487b7100000000000000000000000000000000000000000000000000000000600052602160045260246000fd5b1415613b425760006005811115613870577f4e487b7100000000000000000000000000000000000000000000000000000000600052602160045260246000fd5b8260058111156138a9577f4e487b7100000000000000000000000000000000000000000000000000000000600052602160045260246000fd5b14156138b85760269050613b49565b600160058111156138f2577f4e487b7100000000000000000000000000000000000000000000000000000000600052602160045260246000fd5b82600581111561392b577f4e487b7100000000000000000000000000000000000000000000000000000000600052602160045260246000fd5b141561393a57600d9050613b49565b60026005811115613974577f4e487b7100000000000000000000000000000000000000000000000000000000600052602160045260246000fd5b8260058111156139ad577f4e487b7100000000000000000000000000000000000000000000000000000000600052602160045260246000fd5b14156139bc5760269050613b49565b600360058111156139f6577f4e487b7100000000000000000000000000000000000000000000000000000000600052602160045260246000fd5b826005811115613a2f577f4e487b7100000000000000000000000000000000000000000000000000000000600052602160045260246000fd5b1415613a3e5760739050613b49565b60046005811115613a78577f4e487b7100000000000000000000000000000000000000000000000000000000600052602160045260246000fd5b826005811115613ab1577f4e487b7100000000000000000000000000000000000000000000000000000000600052602160045260246000fd5b1415613ac05760599050613b49565b600580811115613af9577f4e487b7100000000000000000000000000000000000000000000000000000000600052602160045260246000fd5b826005811115613b32577f4e487b7100000000000000000000000000000000000000000000000000000000600052602160045260246000fd5b1415613b4157601a9050613b49565b5b5b5b600090505b92915050565b6000806000600c84613b619190615274565b905060016004811115613b9d577f4e487b7100000000000000000000000000000000000000000000000000000000600052602160045260246000fd5b856004811115613bd6577f4e487b7100000000000000000000000000000000000000000000000000000000600052602160045260246000fd5b1415613be157600d91505b60026004811115613c1b577f4e487b7100000000000000000000000000000000000000000000000000000000600052602160045260246000fd5b856004811115613c54577f4e487b7100000000000000000000000000000000000000000000000000000000600052602160045260246000fd5b1415613c5f57601a91505b60036004811115613c99577f4e487b7100000000000000000000000000000000000000000000000000000000600052602160045260246000fd5b856004811115613cd2577f4e487b7100000000000000000000000000000000000000000000000000000000600052602160045260246000fd5b1415613cdd57602b91505b600480811115613d16577f4e487b7100000000000000000000000000000000000000000000000000000000600052602160045260246000fd5b856004811115613d4f577f4e487b7100000000000000000000000000000000000000000000000000000000600052602160045260246000fd5b1415613d5a57604091505b600060ff838360ff613d6c919061537d565b60ff16613d79919061530d565b613d8391906152ab565b9050808583613d92919061537d565b613d9c9190615274565b935050505092915050565b600060ff8360ff168360ff16613dbd919061530d565b613dc791906152ab565b8460ff16613dd591906151e6565b90509392505050565b600073ffffffffffffffffffffffffffffffffffffffff168273ffffffffffffffffffffffffffffffffffffffff161415613e4e576040517f08c379a0000000000000000000000000000000000000000000000000000000008152600401613e4590614f29565b60405180910390fd5b613e5781611d38565b15613e97576040517f08c379a0000000000000000000000000000000000000000000000000000000008152600401613e8e90614e29565b60405180910390fd5b613ea360008383612807565b6001600360008473ffffffffffffffffffffffffffffffffffffffff1673ffffffffffffffffffffffffffffffffffffffff1681526020019081526020016000206000828254613ef3919061521e565b92505081905550816002600083815260200190815260200160002060006101000a81548173ffffffffffffffffffffffffffffffffffffffff021916908373ffffffffffffffffffffffffffffffffffffffff160217905550808273ffffffffffffffffffffffffffffffffffffffff16600073ffffffffffffffffffffffffffffffffffffffff167fddf252ad1be2c89b69c2b068fc378daa952ba7f163c4a11628f55a4df523b3ef60405160405180910390a45050565b505050565b6008805490506009600083815260200190815260200160002081905550600881908060018154018082558091505060019003906000526020600020016000909190919091505550565b60006001614007846112a1565b6140119190615349565b90506000600760008481526020019081526020016000205490508181146140f6576000600660008673ffffffffffffffffffffffffffffffffffffffff1673ffffffffffffffffffffffffffffffffffffffff168152602001908152602001600020600084815260200190815260200160002054905080600660008773ffffffffffffffffffffffffffffffffffffffff1673ffffffffffffffffffffffffffffffffffffffff168152602001908152602001600020600084815260200190815260200160002081905550816007600083815260200190815260200160002081905550505b6007600084815260200190815260200160002060009055600660008573ffffffffffffffffffffffffffffffffffffffff1673ffffffffffffffffffffffffffffffffffffffff16815260200190815260200160002060008381526020019081526020016000206000905550505050565b6000600160088054905061417b9190615349565b90506000600960008481526020019081526020016000205490506000600883815481106141d1577f4e487b7100000000000000000000000000000000000000000000000000000000600052603260045260246000fd5b906000526020600020015490508060088381548110614219577f4e487b7100000000000000000000000000000000000000000000000000000000600052603260045260246000fd5b90600052602060002001819055508160096000838152602001908152602001600020819055506009600085815260200190815260200160002060009055600880548061428e577f4e487b7100000000000000000000000000000000000000000000000000000000600052603160045260246000fd5b6001900381819060005260206000200160009055905550505050565b60006142b5836112a1565b905081600660008573ffffffffffffffffffffffffffffffffffffffff1673ffffffffffffffffffffffffffffffffffffffff168152602001908152602001600020600083815260200190815260200160002081905550806007600084815260200190815260200160002081905550505050565b6040518061012001604052806000600281111561436f577f4e487b7100000000000000000000000000000000000000000000000000000000600052602160045260246000fd5b8152602001600060048111156143ae577f4e487b7100000000000000000000000000000000000000000000000000000000600052602160045260246000fd5b8152602001600061ffff168152602001600060ff168152602001600060ff168152602001600060ff168152602001600060ff168152602001600060ff168152602001600060ff1681525090565b508054614407906154cc565b6000825580601f106144195750614438565b601f016020900490600052602060002090810190614437919061443b565b5b50565b5b8082111561445457600081600090555060010161443c565b5090565b600061446b61446684615172565b61514d565b90508281526020810184848401111561448357600080fd5b61448e84828561548a565b509392505050565b6000813590506144a581615ce6565b92915050565b6000813590506144ba81615cfd565b92915050565b6000813590506144cf81615d14565b92915050565b6000815190506144e481615d14565b92915050565b600082601f8301126144fb57600080fd5b813561450b848260208601614458565b91505092915050565b60008135905061452381615d2b565b92915050565b60006020828403121561453b57600080fd5b600061454984828501614496565b91505092915050565b6000806040838503121561456557600080fd5b600061457385828601614496565b925050602061458485828601614496565b9150509250929050565b6000806000606084860312156145a357600080fd5b60006145b186828701614496565b93505060206145c286828701614496565b92505060406145d386828701614514565b9150509250925092565b600080600080608085870312156145f357600080fd5b600061460187828801614496565b945050602061461287828801614496565b935050604061462387828801614514565b925050606085013567ffffffffffffffff81111561464057600080fd5b61464c878288016144ea565b91505092959194509250565b6000806040838503121561466b57600080fd5b600061467985828601614496565b925050602061468a858286016144ab565b9150509250929050565b600080604083850312156146a757600080fd5b60006146b585828601614496565b92505060206146c685828601614514565b9150509250929050565b6000602082840312156146e257600080fd5b60006146f0848285016144c0565b91505092915050565b60006020828403121561470b57600080fd5b6000614719848285016144d5565b91505092915050565b60006020828403121561473457600080fd5b600061474284828501614514565b91505092915050565b6000806040838503121561475e57600080fd5b600061476c85828601614514565b925050602061477d85828601614514565b9150509250929050565b614790816153b1565b82525050565b61479f816153c3565b82525050565b60006147b0826151a3565b6147ba81856151b9565b93506147ca818560208601615499565b6147d38161569e565b840191505092915050565b6147e781615466565b82525050565b6147f681615478565b82525050565b6000614807826151ae565b61481181856151ca565b9350614821818560208601615499565b61482a8161569e565b840191505092915050565b6000614840826151ae565b61484a81856151db565b935061485a818560208601615499565b80840191505092915050565b60006148736014836151ca565b915061487e826156af565b602082019050919050565b6000614896602b836151ca565b91506148a1826156d8565b604082019050919050565b60006148b96032836151ca565b91506148c482615727565b604082019050919050565b60006148dc6026836151ca565b91506148e782615776565b604082019050919050565b60006148ff601c836151ca565b915061490a826157c5565b602082019050919050565b60006149226024836151ca565b915061492d826157ee565b604082019050919050565b60006149456019836151ca565b91506149508261583d565b602082019050919050565b6000614968602c836151ca565b915061497382615866565b604082019050919050565b600061498b6010836151ca565b9150614996826158b5565b602082019050919050565b60006149ae6038836151ca565b91506149b9826158de565b604082019050919050565b60006149d1602a836151ca565b91506149dc8261592d565b604082019050919050565b60006149f46029836151ca565b91506149ff8261597c565b604082019050919050565b6000614a176020836151ca565b9150614a22826159cb565b602082019050919050565b6000614a3a6031836151ca565b9150614a45826159f4565b604082019050919050565b6000614a5d602c836151ca565b9150614a6882615a43565b604082019050919050565b6000614a806020836151ca565b9150614a8b82615a92565b602082019050919050565b6000614aa36029836151ca565b9150614aae82615abb565b604082019050919050565b6000614ac6602f836151ca565b9150614ad182615b0a565b604082019050919050565b6000614ae96010836151ca565b9150614af482615b59565b602082019050919050565b6000614b0c6021836151ca565b9150614b1782615b82565b604082019050919050565b6000614b2f6031836151ca565b9150614b3a82615bd1565b604082019050919050565b6000614b52602c836151ca565b9150614b5d82615c20565b604082019050919050565b6000614b756030836151ca565b9150614b8082615c6f565b604082019050919050565b61012082016000820151614ba260008501826147ed565b506020820151614bb560208501826147de565b506040820151614bc86040850182614c42565b506060820151614bdb6060850182614c86565b506080820151614bee6080850182614c86565b5060a0820151614c0160a0850182614c86565b5060c0820151614c1460c0850182614c86565b5060e0820151614c2760e0850182614c86565b50610100820151614c3c610100850182614c86565b50505050565b614c4b81615421565b82525050565b614c5a81615421565b82525050565b614c698161544f565b82525050565b614c80614c7b8261544f565b615578565b82525050565b614c8f81615459565b82525050565b614c9e81615459565b82525050565b6000614cb08285614835565b9150614cbc8284614835565b91508190509392505050565b6000614cd48286614c6f565b602082019150614ce48285614c6f565b602082019150614cf48284614c6f565b602082019150819050949350505050565b6000602082019050614d1a6000830184614787565b92915050565b6000608082019050614d356000830187614787565b614d426020830186614787565b614d4f6040830185614c60565b8181036060830152614d6181846147a5565b905095945050505050565b6000602082019050614d816000830184614796565b92915050565b60006020820190508181036000830152614da181846147fc565b905092915050565b60006020820190508181036000830152614dc281614866565b9050919050565b60006020820190508181036000830152614de281614889565b9050919050565b60006020820190508181036000830152614e02816148ac565b9050919050565b60006020820190508181036000830152614e22816148cf565b9050919050565b60006020820190508181036000830152614e42816148f2565b9050919050565b60006020820190508181036000830152614e6281614915565b9050919050565b60006020820190508181036000830152614e8281614938565b9050919050565b60006020820190508181036000830152614ea28161495b565b9050919050565b60006020820190508181036000830152614ec28161497e565b9050919050565b60006020820190508181036000830152614ee2816149a1565b9050919050565b60006020820190508181036000830152614f02816149c4565b9050919050565b60006020820190508181036000830152614f22816149e7565b9050919050565b60006020820190508181036000830152614f4281614a0a565b9050919050565b60006020820190508181036000830152614f6281614a2d565b9050919050565b60006020820190508181036000830152614f8281614a50565b9050919050565b60006020820190508181036000830152614fa281614a73565b9050919050565b60006020820190508181036000830152614fc281614a96565b9050919050565b60006020820190508181036000830152614fe281614ab9565b9050919050565b6000602082019050818103600083015261500281614adc565b9050919050565b6000602082019050818103600083015261502281614aff565b9050919050565b6000602082019050818103600083015261504281614b22565b9050919050565b6000602082019050818103600083015261506281614b45565b9050919050565b6000602082019050818103600083015261508281614b68565b9050919050565b60006101208201905061509f6000830184614b8b565b92915050565b6000610120820190506150bb600083018c614c51565b6150c8602083018b614c95565b6150d5604083018a614c51565b6150e26060830189614c95565b6150ef6080830188614c95565b6150fc60a0830187614c95565b61510960c0830186614c95565b61511660e0830185614c95565b615124610100830184614c95565b9a9950505050505050505050565b60006020820190506151476000830184614c60565b92915050565b6000615157615168565b905061516382826154fe565b919050565b6000604051905090565b600067ffffffffffffffff82111561518d5761518c61566f565b5b6151968261569e565b9050602081019050919050565b600081519050919050565b600081519050919050565b600082825260208201905092915050565b600082825260208201905092915050565b600081905092915050565b60006151f182615421565b91506151fc83615421565b92508261ffff03821115615213576152126155b3565b5b828201905092915050565b60006152298261544f565b91506152348361544f565b9250827fffffffffffffffffffffffffffffffffffffffffffffffffffffffffffffffff03821115615269576152686155b3565b5b828201905092915050565b600061527f82615459565b915061528a83615459565b92508260ff038211156152a05761529f6155b3565b5b828201905092915050565b60006152b682615421565b91506152c183615421565b9250826152d1576152d06155e2565b5b828204905092915050565b60006152e78261544f565b91506152f28361544f565b925082615302576153016155e2565b5b828204905092915050565b600061531882615421565b915061532383615421565b92508161ffff048311821515161561533e5761533d6155b3565b5b828202905092915050565b60006153548261544f565b915061535f8361544f565b925082821015615372576153716155b3565b5b828203905092915050565b600061538882615459565b915061539383615459565b9250828210156153a6576153a56155b3565b5b828203905092915050565b60006153bc8261542f565b9050919050565b60008115159050919050565b60007fffffffff0000000000000000000000000000000000000000000000000000000082169050919050565b600081905061540982615cbe565b919050565b600081905061541c82615cd2565b919050565b600061ffff82169050919050565b600073ffffffffffffffffffffffffffffffffffffffff82169050919050565b6000819050919050565b600060ff82169050919050565b6000615471826153fb565b9050919050565b60006154838261540e565b9050919050565b82818337600083830152505050565b60005b838110156154b757808201518184015260208101905061549c565b838111156154c6576000848401525b50505050565b600060028204905060018216806154e457607f821691505b602082108114156154f8576154f7615640565b5b50919050565b6155078261569e565b810181811067ffffffffffffffff821117156155265761552561566f565b5b80604052505050565b600061553a8261544f565b91507fffffffffffffffffffffffffffffffffffffffffffffffffffffffffffffffff82141561556d5761556c6155b3565b5b600182019050919050565b6000819050919050565b600061558d8261544f565b91506155988361544f565b9250826155a8576155a76155e2565b5b828206905092915050565b7f4e487b7100000000000000000000000000000000000000000000000000000000600052601160045260246000fd5b7f4e487b7100000000000000000000000000000000000000000000000000000000600052601260045260246000fd5b7f4e487b7100000000000000000000000000000000000000000000000000000000600052602160045260246000fd5b7f4e487b7100000000000000000000000000000000000000000000000000000000600052602260045260246000fd5b7f4e487b7100000000000000000000000000000000000000000000000000000000600052604160045260246000fd5b6000601f19601f8301169050919050565b7f5061757361626c653a206e6f7420706175736564000000000000000000000000600082015250565b7f455243373231456e756d657261626c653a206f776e657220696e646578206f7560008201527f74206f6620626f756e6473000000000000000000000000000000000000000000602082015250565b7f4552433732313a207472616e7366657220746f206e6f6e20455243373231526560008201527f63656976657220696d706c656d656e7465720000000000000000000000000000602082015250565b7f4f776e61626c653a206e6577206f776e657220697320746865207a65726f206160008201527f6464726573730000000000000000000000000000000000000000000000000000602082015250565b7f4552433732313a20746f6b656e20616c7265616479206d696e74656400000000600082015250565b7f4552433732313a207472616e7366657220746f20746865207a65726f2061646460008201527f7265737300000000000000000000000000000000000000000000000000000000602082015250565b7f4552433732313a20617070726f766520746f2063616c6c657200000000000000600082015250565b7f4552433732313a206f70657261746f7220717565727920666f72206e6f6e657860008201527f697374656e7420746f6b656e0000000000000000000000000000000000000000602082015250565b7f5061757361626c653a2070617573656400000000000000000000000000000000600082015250565b7f4552433732313a20617070726f76652063616c6c6572206973206e6f74206f7760008201527f6e6572206e6f7220617070726f76656420666f7220616c6c0000000000000000602082015250565b7f4552433732313a2062616c616e636520717565727920666f7220746865207a6560008201527f726f206164647265737300000000000000000000000000000000000000000000602082015250565b7f4552433732313a206f776e657220717565727920666f72206e6f6e657869737460008201527f656e7420746f6b656e0000000000000000000000000000000000000000000000602082015250565b7f4552433732313a206d696e7420746f20746865207a65726f2061646472657373600082015250565b7f45524337323155524953746f726167653a2055524920717565727920666f722060008201527f6e6f6e6578697374656e7420746f6b656e000000000000000000000000000000602082015250565b7f4552433732313a20617070726f76656420717565727920666f72206e6f6e657860008201527f697374656e7420746f6b656e0000000000000000000000000000000000000000602082015250565b7f4f776e61626c653a2063616c6c6572206973206e6f7420746865206f776e6572600082015250565b7f4552433732313a207472616e73666572206f6620746f6b656e2074686174206960008201527f73206e6f74206f776e0000000000000000000000000000000000000000000000602082015250565b7f4552433732314d657461646174613a2055524920717565727920666f72206e6f60008201527f6e6578697374656e7420746f6b656e0000000000000000000000000000000000602082015250565b7f4361726420636f73742069732031302e00000000000000000000000000000000600082015250565b7f4552433732313a20617070726f76616c20746f2063757272656e74206f776e6560008201527f7200000000000000000000000000000000000000000000000000000000000000602082015250565b7f4552433732313a207472616e736665722063616c6c6572206973206e6f74206f60008201527f776e6572206e6f7220617070726f766564000000000000000000000000000000602082015250565b7f455243373231456e756d657261626c653a20676c6f62616c20696e646578206f60008201527f7574206f6620626f756e64730000000000000000000000000000000000000000602082015250565b7f4552433732314275726e61626c653a2063616c6c6572206973206e6f74206f7760008201527f6e6572206e6f7220617070726f76656400000000000000000000000000000000602082015250565b60058110615ccf57615cce615611565b5b50565b60038110615ce357615ce2615611565b5b50565b615cef816153b1565b8114615cfa57600080fd5b50565b615d06816153c3565b8114615d1157600080fd5b50565b615d1d816153cf565b8114615d2857600080fd5b50565b615d348161544f565b8114615d3f57600080fd5b5056fea2646970667358221220b3459032c8c4fcaa7dc493fdff2bb1e4291123dda284c27340323d04386dd57b64736f6c63430008040033",
  "devdoc": {
    "kind": "dev",
    "methods": {
      "approve(address,uint256)": {
        "details": "See {IERC721-approve}."
      },
      "balanceOf(address)": {
        "details": "See {IERC721-balanceOf}."
      },
      "burn(uint256)": {
        "details": "Burns `tokenId`. See {ERC721-_burn}. Requirements: - The caller must own `tokenId` or be an approved operator."
      },
      "getApproved(uint256)": {
        "details": "See {IERC721-getApproved}."
      },
      "isApprovedForAll(address,address)": {
        "details": "See {IERC721-isApprovedForAll}."
      },
      "name()": {
        "details": "See {IERC721Metadata-name}."
      },
      "owner()": {
        "details": "Returns the address of the current owner."
      },
      "ownerOf(uint256)": {
        "details": "See {IERC721-ownerOf}."
      },
      "paused()": {
        "details": "Returns true if the contract is paused, and false otherwise."
      },
      "renounceOwnership()": {
        "details": "Leaves the contract without owner. It will not be possible to call `onlyOwner` functions anymore. Can only be called by the current owner. NOTE: Renouncing ownership will leave the contract without an owner, thereby removing any functionality that is only available to the owner."
      },
      "safeTransferFrom(address,address,uint256)": {
        "details": "See {IERC721-safeTransferFrom}."
      },
      "safeTransferFrom(address,address,uint256,bytes)": {
        "details": "See {IERC721-safeTransferFrom}."
      },
      "setApprovalForAll(address,bool)": {
        "details": "See {IERC721-setApprovalForAll}."
      },
      "symbol()": {
        "details": "See {IERC721Metadata-symbol}."
      },
      "tokenByIndex(uint256)": {
        "details": "See {IERC721Enumerable-tokenByIndex}."
      },
      "tokenOfOwnerByIndex(address,uint256)": {
        "details": "See {IERC721Enumerable-tokenOfOwnerByIndex}."
      },
      "totalSupply()": {
        "details": "See {IERC721Enumerable-totalSupply}."
      },
      "transferFrom(address,address,uint256)": {
        "details": "See {IERC721-transferFrom}."
      },
      "transferOwnership(address)": {
        "details": "Transfers ownership of the contract to a new account (`newOwner`). Can only be called by the current owner."
      }
    },
    "version": 1
  },
  "userdoc": {
    "kind": "user",
    "methods": {},
    "version": 1
  },
  "storageLayout": {
    "storage": [
      {
        "astId": 221,
        "contract": "contracts/Tunfo.sol:Tunfo",
        "label": "_name",
        "offset": 0,
        "slot": "0",
        "type": "t_string_storage"
      },
      {
        "astId": 223,
        "contract": "contracts/Tunfo.sol:Tunfo",
        "label": "_symbol",
        "offset": 0,
        "slot": "1",
        "type": "t_string_storage"
      },
      {
        "astId": 227,
        "contract": "contracts/Tunfo.sol:Tunfo",
        "label": "_owners",
        "offset": 0,
        "slot": "2",
        "type": "t_mapping(t_uint256,t_address)"
      },
      {
        "astId": 231,
        "contract": "contracts/Tunfo.sol:Tunfo",
        "label": "_balances",
        "offset": 0,
        "slot": "3",
        "type": "t_mapping(t_address,t_uint256)"
      },
      {
        "astId": 235,
        "contract": "contracts/Tunfo.sol:Tunfo",
        "label": "_tokenApprovals",
        "offset": 0,
        "slot": "4",
        "type": "t_mapping(t_uint256,t_address)"
      },
      {
        "astId": 241,
        "contract": "contracts/Tunfo.sol:Tunfo",
        "label": "_operatorApprovals",
        "offset": 0,
        "slot": "5",
        "type": "t_mapping(t_address,t_mapping(t_address,t_bool))"
      },
      {
        "astId": 1192,
        "contract": "contracts/Tunfo.sol:Tunfo",
        "label": "_ownedTokens",
        "offset": 0,
        "slot": "6",
        "type": "t_mapping(t_address,t_mapping(t_uint256,t_uint256))"
      },
      {
        "astId": 1196,
        "contract": "contracts/Tunfo.sol:Tunfo",
        "label": "_ownedTokensIndex",
        "offset": 0,
        "slot": "7",
        "type": "t_mapping(t_uint256,t_uint256)"
      },
      {
        "astId": 1199,
        "contract": "contracts/Tunfo.sol:Tunfo",
        "label": "_allTokens",
        "offset": 0,
        "slot": "8",
        "type": "t_array(t_uint256)dyn_storage"
      },
      {
        "astId": 1203,
        "contract": "contracts/Tunfo.sol:Tunfo",
        "label": "_allTokensIndex",
        "offset": 0,
        "slot": "9",
        "type": "t_mapping(t_uint256,t_uint256)"
      },
      {
        "astId": 1528,
        "contract": "contracts/Tunfo.sol:Tunfo",
        "label": "_tokenURIs",
        "offset": 0,
        "slot": "10",
        "type": "t_mapping(t_uint256,t_string_storage)"
      },
      {
        "astId": 121,
        "contract": "contracts/Tunfo.sol:Tunfo",
        "label": "_paused",
        "offset": 0,
        "slot": "11",
        "type": "t_bool"
      },
      {
        "astId": 7,
        "contract": "contracts/Tunfo.sol:Tunfo",
        "label": "_owner",
        "offset": 1,
        "slot": "11",
        "type": "t_address"
      },
      {
        "astId": 3787,
        "contract": "contracts/Tunfo.sol:Tunfo",
        "label": "_tokenIdCounter",
        "offset": 0,
        "slot": "12",
        "type": "t_struct(Counter)2024_storage"
      },
      {
        "astId": 3790,
        "contract": "contracts/Tunfo.sol:Tunfo",
        "label": "_tokenIdToGenerateCounter",
        "offset": 0,
        "slot": "13",
        "type": "t_struct(Counter)2024_storage"
      },
      {
        "astId": 3795,
        "contract": "contracts/Tunfo.sol:Tunfo",
        "label": "_cards",
        "offset": 0,
        "slot": "14",
        "type": "t_mapping(t_uint256,t_struct(Card)2374_storage)"
      }
    ],
    "types": {
      "t_address": {
        "encoding": "inplace",
        "label": "address",
        "numberOfBytes": "20"
      },
      "t_array(t_uint256)dyn_storage": {
        "base": "t_uint256",
        "encoding": "dynamic_array",
        "label": "uint256[]",
        "numberOfBytes": "32"
      },
      "t_bool": {
        "encoding": "inplace",
        "label": "bool",
        "numberOfBytes": "1"
      },
      "t_enum(CardRarity)2342": {
        "encoding": "inplace",
        "label": "enum Cards.CardRarity",
        "numberOfBytes": "1"
      },
      "t_enum(CardType)2346": {
        "encoding": "inplace",
        "label": "enum Cards.CardType",
        "numberOfBytes": "1"
      },
      "t_mapping(t_address,t_bool)": {
        "encoding": "mapping",
        "key": "t_address",
        "label": "mapping(address => bool)",
        "numberOfBytes": "32",
        "value": "t_bool"
      },
      "t_mapping(t_address,t_mapping(t_address,t_bool))": {
        "encoding": "mapping",
        "key": "t_address",
        "label": "mapping(address => mapping(address => bool))",
        "numberOfBytes": "32",
        "value": "t_mapping(t_address,t_bool)"
      },
      "t_mapping(t_address,t_mapping(t_uint256,t_uint256))": {
        "encoding": "mapping",
        "key": "t_address",
        "label": "mapping(address => mapping(uint256 => uint256))",
        "numberOfBytes": "32",
        "value": "t_mapping(t_uint256,t_uint256)"
      },
      "t_mapping(t_address,t_uint256)": {
        "encoding": "mapping",
        "key": "t_address",
        "label": "mapping(address => uint256)",
        "numberOfBytes": "32",
        "value": "t_uint256"
      },
      "t_mapping(t_uint256,t_address)": {
        "encoding": "mapping",
        "key": "t_uint256",
        "label": "mapping(uint256 => address)",
        "numberOfBytes": "32",
        "value": "t_address"
      },
      "t_mapping(t_uint256,t_string_storage)": {
        "encoding": "mapping",
        "key": "t_uint256",
        "label": "mapping(uint256 => string)",
        "numberOfBytes": "32",
        "value": "t_string_storage"
      },
      "t_mapping(t_uint256,t_struct(Card)2374_storage)": {
        "encoding": "mapping",
        "key": "t_uint256",
        "label": "mapping(uint256 => struct Cards.Card)",
        "numberOfBytes": "32",
        "value": "t_struct(Card)2374_storage"
      },
      "t_mapping(t_uint256,t_uint256)": {
        "encoding": "mapping",
        "key": "t_uint256",
        "label": "mapping(uint256 => uint256)",
        "numberOfBytes": "32",
        "value": "t_uint256"
      },
      "t_string_storage": {
        "encoding": "bytes",
        "label": "string",
        "numberOfBytes": "32"
      },
      "t_struct(Card)2374_storage": {
        "encoding": "inplace",
        "label": "struct Cards.Card",
        "members": [
          {
            "astId": 2356,
            "contract": "contracts/Tunfo.sol:Tunfo",
            "label": "cardType",
            "offset": 0,
            "slot": "0",
            "type": "t_enum(CardType)2346"
          },
          {
            "astId": 2359,
            "contract": "contracts/Tunfo.sol:Tunfo",
            "label": "rarity",
            "offset": 1,
            "slot": "0",
            "type": "t_enum(CardRarity)2342"
          },
          {
            "astId": 2361,
            "contract": "contracts/Tunfo.sol:Tunfo",
            "label": "generation",
            "offset": 2,
            "slot": "0",
            "type": "t_uint16"
          },
          {
            "astId": 2363,
            "contract": "contracts/Tunfo.sol:Tunfo",
            "label": "power",
            "offset": 4,
            "slot": "0",
            "type": "t_uint8"
          },
          {
            "astId": 2365,
            "contract": "contracts/Tunfo.sol:Tunfo",
            "label": "vitality",
            "offset": 5,
            "slot": "0",
            "type": "t_uint8"
          },
          {
            "astId": 2367,
            "contract": "contracts/Tunfo.sol:Tunfo",
            "label": "resistance",
            "offset": 6,
            "slot": "0",
            "type": "t_uint8"
          },
          {
            "astId": 2369,
            "contract": "contracts/Tunfo.sol:Tunfo",
            "label": "agility",
            "offset": 7,
            "slot": "0",
            "type": "t_uint8"
          },
          {
            "astId": 2371,
            "contract": "contracts/Tunfo.sol:Tunfo",
            "label": "inteligence",
            "offset": 8,
            "slot": "0",
            "type": "t_uint8"
          },
          {
            "astId": 2373,
            "contract": "contracts/Tunfo.sol:Tunfo",
            "label": "charisma",
            "offset": 9,
            "slot": "0",
            "type": "t_uint8"
          }
        ],
        "numberOfBytes": "32"
      },
      "t_struct(Counter)2024_storage": {
        "encoding": "inplace",
        "label": "struct Counters.Counter",
        "members": [
          {
            "astId": 2023,
            "contract": "contracts/Tunfo.sol:Tunfo",
            "label": "_value",
            "offset": 0,
            "slot": "0",
            "type": "t_uint256"
          }
        ],
        "numberOfBytes": "32"
      },
      "t_uint16": {
        "encoding": "inplace",
        "label": "uint16",
        "numberOfBytes": "2"
      },
      "t_uint256": {
        "encoding": "inplace",
        "label": "uint256",
        "numberOfBytes": "32"
      },
      "t_uint8": {
        "encoding": "inplace",
        "label": "uint8",
        "numberOfBytes": "1"
      }
    }
  }
}