{
  "address": "0x5FbDB2315678afecb367f032d93F642f64180aa3",
  "abi": [
    {
      "inputs": [],
      "stateMutability": "nonpayable",
      "type": "constructor"
    },
    {
      "anonymous": false,
      "inputs": [
        {
          "indexed": true,
          "internalType": "address",
          "name": "owner",
          "type": "address"
        },
        {
          "indexed": true,
          "internalType": "address",
          "name": "approved",
          "type": "address"
        },
        {
          "indexed": true,
          "internalType": "uint256",
          "name": "tokenId",
          "type": "uint256"
        }
      ],
      "name": "Approval",
      "type": "event"
    },
    {
      "anonymous": false,
      "inputs": [
        {
          "indexed": true,
          "internalType": "address",
          "name": "owner",
          "type": "address"
        },
        {
          "indexed": true,
          "internalType": "address",
          "name": "operator",
          "type": "address"
        },
        {
          "indexed": false,
          "internalType": "bool",
          "name": "approved",
          "type": "bool"
        }
      ],
      "name": "ApprovalForAll",
      "type": "event"
    },
    {
      "anonymous": false,
      "inputs": [
        {
          "indexed": true,
          "internalType": "address",
          "name": "previousOwner",
          "type": "address"
        },
        {
          "indexed": true,
          "internalType": "address",
          "name": "newOwner",
          "type": "address"
        }
      ],
      "name": "OwnershipTransferred",
      "type": "event"
    },
    {
      "anonymous": false,
      "inputs": [
        {
          "indexed": false,
          "internalType": "address",
          "name": "account",
          "type": "address"
        }
      ],
      "name": "Paused",
      "type": "event"
    },
    {
      "anonymous": false,
      "inputs": [
        {
          "indexed": true,
          "internalType": "address",
          "name": "from",
          "type": "address"
        },
        {
          "indexed": true,
          "internalType": "address",
          "name": "to",
          "type": "address"
        },
        {
          "indexed": true,
          "internalType": "uint256",
          "name": "tokenId",
          "type": "uint256"
        }
      ],
      "name": "Transfer",
      "type": "event"
    },
    {
      "anonymous": false,
      "inputs": [
        {
          "indexed": false,
          "internalType": "address",
          "name": "account",
          "type": "address"
        }
      ],
      "name": "Unpaused",
      "type": "event"
    },
    {
      "inputs": [
        {
          "internalType": "address",
          "name": "to",
          "type": "address"
        },
        {
          "internalType": "uint256",
          "name": "tokenId",
          "type": "uint256"
        }
      ],
      "name": "approve",
      "outputs": [],
      "stateMutability": "nonpayable",
      "type": "function"
    },
    {
      "inputs": [
        {
          "internalType": "address",
          "name": "owner",
          "type": "address"
        }
      ],
      "name": "balanceOf",
      "outputs": [
        {
          "internalType": "uint256",
          "name": "",
          "type": "uint256"
        }
      ],
      "stateMutability": "view",
      "type": "function"
    },
    {
      "inputs": [
        {
          "internalType": "uint256",
          "name": "tokenId",
          "type": "uint256"
        }
      ],
      "name": "burn",
      "outputs": [],
      "stateMutability": "nonpayable",
      "type": "function"
    },
    {
      "inputs": [],
      "name": "generateAllTokens",
      "outputs": [],
      "stateMutability": "nonpayable",
      "type": "function"
    },
    {
      "inputs": [
        {
          "internalType": "uint256",
          "name": "maxReceived",
          "type": "uint256"
        }
      ],
      "name": "generateTokens",
      "outputs": [],
      "stateMutability": "nonpayable",
      "type": "function"
    },
    {
      "inputs": [
        {
          "internalType": "uint256",
          "name": "tokenId",
          "type": "uint256"
        }
      ],
      "name": "getApproved",
      "outputs": [
        {
          "internalType": "address",
          "name": "",
          "type": "address"
        }
      ],
      "stateMutability": "view",
      "type": "function"
    },
    {
      "inputs": [
        {
          "internalType": "uint256",
          "name": "tokenId",
          "type": "uint256"
        }
      ],
      "name": "getAttributes",
      "outputs": [
        {
          "internalType": "uint16",
          "name": "",
          "type": "uint16"
        },
        {
          "internalType": "uint8",
          "name": "",
          "type": "uint8"
        },
        {
          "internalType": "uint16",
          "name": "",
          "type": "uint16"
        },
        {
          "internalType": "uint32",
          "name": "",
          "type": "uint32"
        },
        {
          "internalType": "uint8",
          "name": "",
          "type": "uint8"
        },
        {
          "internalType": "uint8",
          "name": "",
          "type": "uint8"
        },
        {
          "internalType": "uint8",
          "name": "",
          "type": "uint8"
        },
        {
          "internalType": "uint8",
          "name": "",
          "type": "uint8"
        },
        {
          "internalType": "uint8",
          "name": "",
          "type": "uint8"
        },
        {
          "internalType": "uint8",
          "name": "",
          "type": "uint8"
        }
      ],
      "stateMutability": "view",
      "type": "function"
    },
    {
      "inputs": [
        {
          "internalType": "uint256",
          "name": "tokenId",
          "type": "uint256"
        },
        {
          "internalType": "uint256",
          "name": "seed",
          "type": "uint256"
        }
      ],
      "name": "initializeToken",
      "outputs": [],
      "stateMutability": "nonpayable",
      "type": "function"
    },
    {
      "inputs": [
        {
          "internalType": "address",
          "name": "owner",
          "type": "address"
        },
        {
          "internalType": "address",
          "name": "operator",
          "type": "address"
        }
      ],
      "name": "isApprovedForAll",
      "outputs": [
        {
          "internalType": "bool",
          "name": "",
          "type": "bool"
        }
      ],
      "stateMutability": "view",
      "type": "function"
    },
    {
      "inputs": [
        {
          "internalType": "uint256",
          "name": "tokenId",
          "type": "uint256"
        }
      ],
      "name": "isTokenInitialized",
      "outputs": [
        {
          "internalType": "bool",
          "name": "",
          "type": "bool"
        }
      ],
      "stateMutability": "view",
      "type": "function"
    },
    {
      "inputs": [],
      "name": "mint",
      "outputs": [],
      "stateMutability": "payable",
      "type": "function"
    },
    {
      "inputs": [],
      "name": "name",
      "outputs": [
        {
          "internalType": "string",
          "name": "",
          "type": "string"
        }
      ],
      "stateMutability": "view",
      "type": "function"
    },
    {
      "inputs": [],
      "name": "owner",
      "outputs": [
        {
          "internalType": "address",
          "name": "",
          "type": "address"
        }
      ],
      "stateMutability": "view",
      "type": "function"
    },
    {
      "inputs": [
        {
          "internalType": "uint256",
          "name": "tokenId",
          "type": "uint256"
        }
      ],
      "name": "ownerOf",
      "outputs": [
        {
          "internalType": "address",
          "name": "",
          "type": "address"
        }
      ],
      "stateMutability": "view",
      "type": "function"
    },
    {
      "inputs": [],
      "name": "pause",
      "outputs": [],
      "stateMutability": "nonpayable",
      "type": "function"
    },
    {
      "inputs": [],
      "name": "paused",
      "outputs": [
        {
          "internalType": "bool",
          "name": "",
          "type": "bool"
        }
      ],
      "stateMutability": "view",
      "type": "function"
    },
    {
      "inputs": [],
      "name": "renounceOwnership",
      "outputs": [],
      "stateMutability": "nonpayable",
      "type": "function"
    },
    {
      "inputs": [
        {
          "internalType": "address",
          "name": "to",
          "type": "address"
        }
      ],
      "name": "safeMint",
      "outputs": [],
      "stateMutability": "nonpayable",
      "type": "function"
    },
    {
      "inputs": [
        {
          "internalType": "address",
          "name": "from",
          "type": "address"
        },
        {
          "internalType": "address",
          "name": "to",
          "type": "address"
        },
        {
          "internalType": "uint256",
          "name": "tokenId",
          "type": "uint256"
        }
      ],
      "name": "safeTransferFrom",
      "outputs": [],
      "stateMutability": "nonpayable",
      "type": "function"
    },
    {
      "inputs": [
        {
          "internalType": "address",
          "name": "from",
          "type": "address"
        },
        {
          "internalType": "address",
          "name": "to",
          "type": "address"
        },
        {
          "internalType": "uint256",
          "name": "tokenId",
          "type": "uint256"
        },
        {
          "internalType": "bytes",
          "name": "_data",
          "type": "bytes"
        }
      ],
      "name": "safeTransferFrom",
      "outputs": [],
      "stateMutability": "nonpayable",
      "type": "function"
    },
    {
      "inputs": [
        {
          "internalType": "address",
          "name": "operator",
          "type": "address"
        },
        {
          "internalType": "bool",
          "name": "approved",
          "type": "bool"
        }
      ],
      "name": "setApprovalForAll",
      "outputs": [],
      "stateMutability": "nonpayable",
      "type": "function"
    },
    {
      "inputs": [
        {
          "internalType": "bytes4",
          "name": "interfaceId",
          "type": "bytes4"
        }
      ],
      "name": "supportsInterface",
      "outputs": [
        {
          "internalType": "bool",
          "name": "",
          "type": "bool"
        }
      ],
      "stateMutability": "view",
      "type": "function"
    },
    {
      "inputs": [],
      "name": "symbol",
      "outputs": [
        {
          "internalType": "string",
          "name": "",
          "type": "string"
        }
      ],
      "stateMutability": "view",
      "type": "function"
    },
    {
      "inputs": [
        {
          "internalType": "uint256",
          "name": "index",
          "type": "uint256"
        }
      ],
      "name": "tokenByIndex",
      "outputs": [
        {
          "internalType": "uint256",
          "name": "",
          "type": "uint256"
        }
      ],
      "stateMutability": "view",
      "type": "function"
    },
    {
      "inputs": [
        {
          "internalType": "address",
          "name": "owner",
          "type": "address"
        },
        {
          "internalType": "uint256",
          "name": "index",
          "type": "uint256"
        }
      ],
      "name": "tokenOfOwnerByIndex",
      "outputs": [
        {
          "internalType": "uint256",
          "name": "",
          "type": "uint256"
        }
      ],
      "stateMutability": "view",
      "type": "function"
    },
    {
      "inputs": [
        {
          "internalType": "uint256",
          "name": "tokenId",
          "type": "uint256"
        }
      ],
      "name": "tokenURI",
      "outputs": [
        {
          "internalType": "string",
          "name": "",
          "type": "string"
        }
      ],
      "stateMutability": "view",
      "type": "function"
    },
    {
      "inputs": [],
      "name": "totalSupply",
      "outputs": [
        {
          "internalType": "uint256",
          "name": "",
          "type": "uint256"
        }
      ],
      "stateMutability": "view",
      "type": "function"
    },
    {
      "inputs": [
        {
          "internalType": "address",
          "name": "from",
          "type": "address"
        },
        {
          "internalType": "address",
          "name": "to",
          "type": "address"
        },
        {
          "internalType": "uint256",
          "name": "tokenId",
          "type": "uint256"
        }
      ],
      "name": "transferFrom",
      "outputs": [],
      "stateMutability": "nonpayable",
      "type": "function"
    },
    {
      "inputs": [
        {
          "internalType": "address",
          "name": "newOwner",
          "type": "address"
        }
      ],
      "name": "transferOwnership",
      "outputs": [],
      "stateMutability": "nonpayable",
      "type": "function"
    },
    {
      "inputs": [],
      "name": "unpause",
      "outputs": [],
      "stateMutability": "nonpayable",
      "type": "function"
    }
  ],
  "transactionHash": "0xcaee02e23f7431f2ce62a6a530e9d80596fa31859180b35c343b9c107b0fd70c",
  "args": [],
  "solcInputHash": "d724143a9e2a17eb55bcfe66e08f2035",
  "bytecode": "0x60806040523480156200001157600080fd5b506040518060400160405280600581526020017f54756e666f0000000000000000000000000000000000000000000000000000008152506040518060400160405280600381526020017f544e460000000000000000000000000000000000000000000000000000000000815250816000908051906020019062000096929190620001c1565b508060019080519060200190620000af929190620001c1565b5050506000600b60006101000a81548160ff021916908315150217905550620000ed620000e1620000f360201b60201c565b620000fb60201b60201c565b620002d6565b600033905090565b6000600b60019054906101000a900473ffffffffffffffffffffffffffffffffffffffff16905081600b60016101000a81548173ffffffffffffffffffffffffffffffffffffffff021916908373ffffffffffffffffffffffffffffffffffffffff1602179055508173ffffffffffffffffffffffffffffffffffffffff168173ffffffffffffffffffffffffffffffffffffffff167f8be0079c531659141344cd1fd0a4f28419497f9722a3daafe3b4186f6b6457e060405160405180910390a35050565b828054620001cf9062000271565b90600052602060002090601f016020900481019282620001f357600085556200023f565b82601f106200020e57805160ff19168380011785556200023f565b828001600101855582156200023f579182015b828111156200023e57825182559160200191906001019062000221565b5b5090506200024e919062000252565b5090565b5b808211156200026d57600081600090555060010162000253565b5090565b600060028204905060018216806200028a57607f821691505b60208210811415620002a157620002a0620002a7565b5b50919050565b7f4e487b7100000000000000000000000000000000000000000000000000000000600052602260045260246000fd5b615ac680620002e66000396000f3fe6080604052600436106101cd5760003560e01c80635c975abb116100f757806395d89b4111610095578063ca01ba3911610064578063ca01ba391461065c578063d607b5c614610685578063e985e9c5146106ae578063f2fde38b146106eb576101cd565b806395d89b41146105a2578063a22cb465146105cd578063b88d4fde146105f6578063c87b56dd1461061f576101cd565b8063715018a6116100d1578063715018a61461053257806372923270146105495780638456cb59146105605780638da5cb5b14610577576101cd565b80635c975abb1461048d5780636352211e146104b857806370a08231146104f5576101cd565b806327dc10e21161016f57806342842e0e1161013e57806342842e0e146103b857806342966c68146103e15780634378a6e31461040a5780634f6ccce714610450576101cd565b806327dc10e2146102fe5780632f745c591461033b5780633f4ba83a1461037857806340d097c31461038f576101cd565b8063095ea7b3116101ab578063095ea7b3146102775780631249c58b146102a057806318160ddd146102aa57806323b872dd146102d5576101cd565b806301ffc9a7146101d257806306fdde031461020f578063081812fc1461023a575b600080fd5b3480156101de57600080fd5b506101f960048036038101906101f491906145a0565b610714565b6040516102069190614b58565b60405180910390f35b34801561021b57600080fd5b50610224610726565b6040516102319190614b73565b60405180910390f35b34801561024657600080fd5b50610261600480360381019061025c91906145f2565b6107b8565b60405161026e9190614af1565b60405180910390f35b34801561028357600080fd5b5061029e60048036038101906102999190614564565b61083d565b005b6102a8610955565b005b3480156102b657600080fd5b506102bf6109a3565b6040516102cc9190614f11565b60405180910390f35b3480156102e157600080fd5b506102fc60048036038101906102f7919061445e565b6109b0565b005b34801561030a57600080fd5b50610325600480360381019061032091906145f2565b610a10565b6040516103329190614b58565b60405180910390f35b34801561034757600080fd5b50610362600480360381019061035d9190614564565b610a25565b60405161036f9190614f11565b60405180910390f35b34801561038457600080fd5b5061038d610aca565b005b34801561039b57600080fd5b506103b660048036038101906103b191906143f9565b610b50565b005b3480156103c457600080fd5b506103df60048036038101906103da919061445e565b610bd8565b005b3480156103ed57600080fd5b50610408600480360381019061040391906145f2565b610bf8565b005b34801561041657600080fd5b50610431600480360381019061042c91906145f2565b610c54565b6040516104479a99989796959493929190614e75565b60405180910390f35b34801561045c57600080fd5b50610477600480360381019061047291906145f2565b610f63565b6040516104849190614f11565b60405180910390f35b34801561049957600080fd5b506104a2610ffa565b6040516104af9190614b58565b60405180910390f35b3480156104c457600080fd5b506104df60048036038101906104da91906145f2565b611011565b6040516104ec9190614af1565b60405180910390f35b34801561050157600080fd5b5061051c600480360381019061051791906143f9565b6110c3565b6040516105299190614f11565b60405180910390f35b34801561053e57600080fd5b5061054761117b565b005b34801561055557600080fd5b5061055e611203565b005b34801561056c57600080fd5b506105756112a7565b005b34801561058357600080fd5b5061058c61132d565b6040516105999190614af1565b60405180910390f35b3480156105ae57600080fd5b506105b7611357565b6040516105c49190614b73565b60405180910390f35b3480156105d957600080fd5b506105f460048036038101906105ef9190614528565b6113e9565b005b34801561060257600080fd5b5061061d600480360381019061061891906144ad565b61156a565b005b34801561062b57600080fd5b50610646600480360381019061064191906145f2565b6115cc565b6040516106539190614b73565b60405180910390f35b34801561066857600080fd5b50610683600480360381019061067e91906145f2565b6115de565b005b34801561069157600080fd5b506106ac60048036038101906106a7919061461b565b61171f565b005b3480156106ba57600080fd5b506106d560048036038101906106d09190614422565b61197c565b6040516106e29190614b58565b60405180910390f35b3480156106f757600080fd5b50610712600480360381019061070d91906143f9565b611a10565b005b600061071f82611b08565b9050919050565b60606000805461073590615271565b80601f016020809104026020016040519081016040528092919081815260200182805461076190615271565b80156107ae5780601f10610783576101008083540402835291602001916107ae565b820191906000526020600020905b81548152906001019060200180831161079157829003601f168201915b5050505050905090565b60006107c382611b82565b610802576040517f08c379a00000000000000000000000000000000000000000000000000000000081526004016107f990614d55565b60405180910390fd5b6004600083815260200190815260200160002060009054906101000a900473ffffffffffffffffffffffffffffffffffffffff169050919050565b600061084882611011565b90508073ffffffffffffffffffffffffffffffffffffffff168373ffffffffffffffffffffffffffffffffffffffff1614156108b9576040517f08c379a00000000000000000000000000000000000000000000000000000000081526004016108b090614df5565b60405180910390fd5b8073ffffffffffffffffffffffffffffffffffffffff166108d8611bee565b73ffffffffffffffffffffffffffffffffffffffff161480610907575061090681610901611bee565b61197c565b5b610946576040517f08c379a000000000000000000000000000000000000000000000000000000000815260040161093d90614cb5565b60405180910390fd5b6109508383611bf6565b505050565b600a3414610998576040517f08c379a000000000000000000000000000000000000000000000000000000000815260040161098f90614dd5565b60405180910390fd5b6109a133611caf565b565b6000600880549050905090565b6109c16109bb611bee565b82611ccf565b610a00576040517f08c379a00000000000000000000000000000000000000000000000000000000081526004016109f790614e15565b60405180910390fd5b610a0b838383611dad565b505050565b600081610a1d600d612009565b119050919050565b6000610a30836110c3565b8210610a71576040517f08c379a0000000000000000000000000000000000000000000000000000000008152600401610a6890614bb5565b60405180910390fd5b600660008473ffffffffffffffffffffffffffffffffffffffff1673ffffffffffffffffffffffffffffffffffffffff168152602001908152602001600020600083815260200190815260200160002054905092915050565b610ad2611bee565b73ffffffffffffffffffffffffffffffffffffffff16610af061132d565b73ffffffffffffffffffffffffffffffffffffffff1614610b46576040517f08c379a0000000000000000000000000000000000000000000000000000000008152600401610b3d90614d75565b60405180910390fd5b610b4e612017565b565b610b58611bee565b73ffffffffffffffffffffffffffffffffffffffff16610b7661132d565b73ffffffffffffffffffffffffffffffffffffffff1614610bcc576040517f08c379a0000000000000000000000000000000000000000000000000000000008152600401610bc390614d75565b60405180910390fd5b610bd581611caf565b50565b610bf38383836040518060200160405280600081525061156a565b505050565b610c09610c03611bee565b82611ccf565b610c48576040517f08c379a0000000000000000000000000000000000000000000000000000000008152600401610c3f90614e55565b60405180910390fd5b610c51816120b9565b50565b6000806000806000806000806000808a610c6e600d612009565b11610c7857600080fd5b6000600e60008d8152602001908152602001600020604051806101400160405290816000820160009054906101000a900460ff166002811115610ce4577f4e487b7100000000000000000000000000000000000000000000000000000000600052602160045260246000fd5b6002811115610d1c577f4e487b7100000000000000000000000000000000000000000000000000000000600052602160045260246000fd5b81526020016000820160019054906101000a900460ff166004811115610d6b577f4e487b7100000000000000000000000000000000000000000000000000000000600052602160045260246000fd5b6004811115610da3577f4e487b7100000000000000000000000000000000000000000000000000000000600052602160045260246000fd5b81526020016000820160029054906101000a900461ffff1661ffff1661ffff1681526020016000820160049054906101000a900463ffffffff1663ffffffff1663ffffffff1681526020016000820160089054906101000a900460ff1660ff1660ff1681526020016000820160099054906101000a900460ff1660ff1660ff16815260200160008201600a9054906101000a900460ff1660ff1660ff16815260200160008201600b9054906101000a900460ff1660ff1660ff16815260200160008201600c9054906101000a900460ff1660ff1660ff16815260200160008201600d9054906101000a900460ff1660ff1660ff1681525050905080600001516002811115610eda577f4e487b7100000000000000000000000000000000000000000000000000000000600052602160045260246000fd5b81602001516004811115610f17577f4e487b7100000000000000000000000000000000000000000000000000000000600052602160045260246000fd5b8260400151836060015184608001518560a001518660c001518760e001518861010001518961012001519a509a509a509a509a509a509a509a509a509a50509193959799509193959799565b6000610f6d6109a3565b8210610fae576040517f08c379a0000000000000000000000000000000000000000000000000000000008152600401610fa590614e35565b60405180910390fd5b60088281548110610fe8577f4e487b7100000000000000000000000000000000000000000000000000000000600052603260045260246000fd5b90600052602060002001549050919050565b6000600b60009054906101000a900460ff16905090565b6000806002600084815260200190815260200160002060009054906101000a900473ffffffffffffffffffffffffffffffffffffffff169050600073ffffffffffffffffffffffffffffffffffffffff168173ffffffffffffffffffffffffffffffffffffffff1614156110ba576040517f08c379a00000000000000000000000000000000000000000000000000000000081526004016110b190614cf5565b60405180910390fd5b80915050919050565b60008073ffffffffffffffffffffffffffffffffffffffff168273ffffffffffffffffffffffffffffffffffffffff161415611134576040517f08c379a000000000000000000000000000000000000000000000000000000000815260040161112b90614cd5565b60405180910390fd5b600360008373ffffffffffffffffffffffffffffffffffffffff1673ffffffffffffffffffffffffffffffffffffffff168152602001908152602001600020549050919050565b611183611bee565b73ffffffffffffffffffffffffffffffffffffffff166111a161132d565b73ffffffffffffffffffffffffffffffffffffffff16146111f7576040517f08c379a00000000000000000000000000000000000000000000000000000000081526004016111ee90614d75565b60405180910390fd5b61120160006120c5565b565b61120b611bee565b73ffffffffffffffffffffffffffffffffffffffff1661122961132d565b73ffffffffffffffffffffffffffffffffffffffff161461127f576040517f08c379a000000000000000000000000000000000000000000000000000000000815260040161127690614d75565b60405180910390fd5b6112a561128c600d612009565b611296600c612009565b6112a09190615128565b6115de565b565b6112af611bee565b73ffffffffffffffffffffffffffffffffffffffff166112cd61132d565b73ffffffffffffffffffffffffffffffffffffffff1614611323576040517f08c379a000000000000000000000000000000000000000000000000000000000815260040161131a90614d75565b60405180910390fd5b61132b61218b565b565b6000600b60019054906101000a900473ffffffffffffffffffffffffffffffffffffffff16905090565b60606001805461136690615271565b80601f016020809104026020016040519081016040528092919081815260200182805461139290615271565b80156113df5780601f106113b4576101008083540402835291602001916113df565b820191906000526020600020905b8154815290600101906020018083116113c257829003601f168201915b5050505050905090565b6113f1611bee565b73ffffffffffffffffffffffffffffffffffffffff168273ffffffffffffffffffffffffffffffffffffffff16141561145f576040517f08c379a000000000000000000000000000000000000000000000000000000000815260040161145690614c55565b60405180910390fd5b806005600061146c611bee565b73ffffffffffffffffffffffffffffffffffffffff1673ffffffffffffffffffffffffffffffffffffffff16815260200190815260200160002060008473ffffffffffffffffffffffffffffffffffffffff1673ffffffffffffffffffffffffffffffffffffffff16815260200190815260200160002060006101000a81548160ff0219169083151502179055508173ffffffffffffffffffffffffffffffffffffffff16611519611bee565b73ffffffffffffffffffffffffffffffffffffffff167f17307eab39ab6107e8899845ad3d59bd9653f200f220920489ca2b5937696c318360405161155e9190614b58565b60405180910390a35050565b61157b611575611bee565b83611ccf565b6115ba576040517f08c379a00000000000000000000000000000000000000000000000000000000081526004016115b190614e15565b60405180910390fd5b6115c68484848461222e565b50505050565b60606115d78261228a565b9050919050565b6115e6611bee565b73ffffffffffffffffffffffffffffffffffffffff1661160461132d565b73ffffffffffffffffffffffffffffffffffffffff161461165a576040517f08c379a000000000000000000000000000000000000000000000000000000000815260040161165190614d75565b60405180910390fd5b6000611666600d612009565b611670600c612009565b61167a9190615128565b9050600082821161168b578161168d565b825b9050600060014361169e9190615128565b4060001c905060005b828110156117185760006116bb600d612009565b905060008382846040516020016116d493929190614ab4565b6040516020818303038152906040528051906020012060001c90506116f9828261171f565b611703600d6123dc565b50508080611710906152d4565b9150506116a7565b5050505050565b611727611bee565b73ffffffffffffffffffffffffffffffffffffffff1661174561132d565b73ffffffffffffffffffffffffffffffffffffffff161461179b576040517f08c379a000000000000000000000000000000000000000000000000000000000815260040161179290614d75565b60405180910390fd5b6117a4816123f2565b600e600084815260200190815260200160002060008201518160000160006101000a81548160ff02191690836002811115611808577f4e487b7100000000000000000000000000000000000000000000000000000000600052602160045260246000fd5b021790555060208201518160000160016101000a81548160ff0219169083600481111561185e577f4e487b7100000000000000000000000000000000000000000000000000000000600052602160045260246000fd5b021790555060408201518160000160026101000a81548161ffff021916908361ffff16021790555060608201518160000160046101000a81548163ffffffff021916908363ffffffff16021790555060808201518160000160086101000a81548160ff021916908360ff16021790555060a08201518160000160096101000a81548160ff021916908360ff16021790555060c082015181600001600a6101000a81548160ff021916908360ff16021790555060e082015181600001600b6101000a81548160ff021916908360ff16021790555061010082015181600001600c6101000a81548160ff021916908360ff16021790555061012082015181600001600d6101000a81548160ff021916908360ff1602179055509050505050565b6000600560008473ffffffffffffffffffffffffffffffffffffffff1673ffffffffffffffffffffffffffffffffffffffff16815260200190815260200160002060008373ffffffffffffffffffffffffffffffffffffffff1673ffffffffffffffffffffffffffffffffffffffff16815260200190815260200160002060009054906101000a900460ff16905092915050565b611a18611bee565b73ffffffffffffffffffffffffffffffffffffffff16611a3661132d565b73ffffffffffffffffffffffffffffffffffffffff1614611a8c576040517f08c379a0000000000000000000000000000000000000000000000000000000008152600401611a8390614d75565b60405180910390fd5b600073ffffffffffffffffffffffffffffffffffffffff168173ffffffffffffffffffffffffffffffffffffffff161415611afc576040517f08c379a0000000000000000000000000000000000000000000000000000000008152600401611af390614bf5565b60405180910390fd5b611b05816120c5565b50565b60007f780e9d63000000000000000000000000000000000000000000000000000000007bffffffffffffffffffffffffffffffffffffffffffffffffffffffff1916827bffffffffffffffffffffffffffffffffffffffffffffffffffffffff19161480611b7b5750611b7a82612569565b5b9050919050565b60008073ffffffffffffffffffffffffffffffffffffffff166002600084815260200190815260200160002060009054906101000a900473ffffffffffffffffffffffffffffffffffffffff1673ffffffffffffffffffffffffffffffffffffffff1614159050919050565b600033905090565b816004600083815260200190815260200160002060006101000a81548173ffffffffffffffffffffffffffffffffffffffff021916908373ffffffffffffffffffffffffffffffffffffffff160217905550808273ffffffffffffffffffffffffffffffffffffffff16611c6983611011565b73ffffffffffffffffffffffffffffffffffffffff167f8c5be1e5ebec7d5bd14f71427d1e84f3dd0314c0f7b2291e5b200ac8c7c3b92560405160405180910390a45050565b611cc281611cbd600c612009565b61264b565b611ccc600c6123dc565b50565b6000611cda82611b82565b611d19576040517f08c379a0000000000000000000000000000000000000000000000000000000008152600401611d1090614c75565b60405180910390fd5b6000611d2483611011565b90508073ffffffffffffffffffffffffffffffffffffffff168473ffffffffffffffffffffffffffffffffffffffff161480611d9357508373ffffffffffffffffffffffffffffffffffffffff16611d7b846107b8565b73ffffffffffffffffffffffffffffffffffffffff16145b80611da45750611da3818561197c565b5b91505092915050565b8273ffffffffffffffffffffffffffffffffffffffff16611dcd82611011565b73ffffffffffffffffffffffffffffffffffffffff1614611e23576040517f08c379a0000000000000000000000000000000000000000000000000000000008152600401611e1a90614d95565b60405180910390fd5b600073ffffffffffffffffffffffffffffffffffffffff168273ffffffffffffffffffffffffffffffffffffffff161415611e93576040517f08c379a0000000000000000000000000000000000000000000000000000000008152600401611e8a90614c35565b60405180910390fd5b611e9e838383612669565b611ea9600082611bf6565b6001600360008573ffffffffffffffffffffffffffffffffffffffff1673ffffffffffffffffffffffffffffffffffffffff1681526020019081526020016000206000828254611ef99190615128565b925050819055506001600360008473ffffffffffffffffffffffffffffffffffffffff1673ffffffffffffffffffffffffffffffffffffffff1681526020019081526020016000206000828254611f509190614ffd565b92505081905550816002600083815260200190815260200160002060006101000a81548173ffffffffffffffffffffffffffffffffffffffff021916908373ffffffffffffffffffffffffffffffffffffffff160217905550808273ffffffffffffffffffffffffffffffffffffffff168473ffffffffffffffffffffffffffffffffffffffff167fddf252ad1be2c89b69c2b068fc378daa952ba7f163c4a11628f55a4df523b3ef60405160405180910390a4505050565b600081600001549050919050565b61201f610ffa565b61205e576040517f08c379a000000000000000000000000000000000000000000000000000000000815260040161205590614b95565b60405180910390fd5b6000600b60006101000a81548160ff0219169083151502179055507f5db9ee0a495bf2e6ff9c91a7834c1ba4fdd244a5e8aa4e537bd38aeae4b073aa6120a2611bee565b6040516120af9190614af1565b60405180910390a1565b6120c2816126c1565b50565b6000600b60019054906101000a900473ffffffffffffffffffffffffffffffffffffffff16905081600b60016101000a81548173ffffffffffffffffffffffffffffffffffffffff021916908373ffffffffffffffffffffffffffffffffffffffff1602179055508173ffffffffffffffffffffffffffffffffffffffff168173ffffffffffffffffffffffffffffffffffffffff167f8be0079c531659141344cd1fd0a4f28419497f9722a3daafe3b4186f6b6457e060405160405180910390a35050565b612193610ffa565b156121d3576040517f08c379a00000000000000000000000000000000000000000000000000000000081526004016121ca90614c95565b60405180910390fd5b6001600b60006101000a81548160ff0219169083151502179055507f62e78cea01bee320cd4e420270b5ea74000d11b0c9f74754ebdbfc544b05a258612217611bee565b6040516122249190614af1565b60405180910390a1565b612239848484611dad565b61224584848484612714565b612284576040517f08c379a000000000000000000000000000000000000000000000000000000000815260040161227b90614bd5565b60405180910390fd5b50505050565b606061229582611b82565b6122d4576040517f08c379a00000000000000000000000000000000000000000000000000000000081526004016122cb90614d35565b60405180910390fd5b6000600a600084815260200190815260200160002080546122f490615271565b80601f016020809104026020016040519081016040528092919081815260200182805461232090615271565b801561236d5780601f106123425761010080835404028352916020019161236d565b820191906000526020600020905b81548152906001019060200180831161235057829003601f168201915b50505050509050600061237e6128ab565b90506000815114156123945781925050506123d7565b6000825111156123c95780826040516020016123b1929190614a90565b604051602081830303815290604052925050506123d7565b6123d2846128e8565b925050505b919050565b6001816000016000828254019250508190555050565b6123fa6141ec565b60006124058361298f565b90506000612416600885901c6129ef565b905060405180610140016040528082600281111561245d577f4e487b7100000000000000000000000000000000000000000000000000000000600052602160045260246000fd5b815260200183600481111561249b577f4e487b7100000000000000000000000000000000000000000000000000000000600052602160045260246000fd5b81526020016124a8612a25565b60ff1661ffff1681526020016124c1601087901c612a2e565b63ffffffff1681526020016124dd8385600060188a901c612a8f565b60ff1681526020016124f68385600160208a901c612a8f565b60ff16815260200161250f8385600260288a901c612a8f565b60ff1681526020016125288385600360308a901c612a8f565b60ff1681526020016125418385600460388a901c612a8f565b60ff16815260200161255a8385600560408a901c612a8f565b60ff1681525092505050919050565b60007f80ac58cd000000000000000000000000000000000000000000000000000000007bffffffffffffffffffffffffffffffffffffffffffffffffffffffff1916827bffffffffffffffffffffffffffffffffffffffffffffffffffffffff1916148061263457507f5b5e139f000000000000000000000000000000000000000000000000000000007bffffffffffffffffffffffffffffffffffffffffffffffffffffffff1916827bffffffffffffffffffffffffffffffffffffffffffffffffffffffff1916145b80612644575061264382612ac3565b5b9050919050565b612665828260405180602001604052806000815250612b2d565b5050565b612671610ffa565b156126b1576040517f08c379a00000000000000000000000000000000000000000000000000000000081526004016126a890614c95565b60405180910390fd5b6126bc838383612b88565b505050565b6126ca81612c9c565b6000600a600083815260200190815260200160002080546126ea90615271565b90501461271157600a6000828152602001908152602001600020600061271091906142cb565b5b50565b60006127358473ffffffffffffffffffffffffffffffffffffffff16612dad565b1561289e578373ffffffffffffffffffffffffffffffffffffffff1663150b7a0261275e611bee565b8786866040518563ffffffff1660e01b81526004016127809493929190614b0c565b602060405180830381600087803b15801561279a57600080fd5b505af19250505080156127cb57506040513d601f19601f820116820180604052508101906127c891906145c9565b60015b61284e573d80600081146127fb576040519150601f19603f3d011682016040523d82523d6000602084013e612800565b606091505b50600081511415612846576040517f08c379a000000000000000000000000000000000000000000000000000000000815260040161283d90614bd5565b60405180910390fd5b805181602001fd5b63150b7a0260e01b7bffffffffffffffffffffffffffffffffffffffffffffffffffffffff1916817bffffffffffffffffffffffffffffffffffffffffffffffffffffffff1916149150506128a3565b600190505b949350505050565b60606040518060400160405280601281526020017f687474703a2f2f676f6f676c652e636f6d2f0000000000000000000000000000815250905090565b60606128f382611b82565b612932576040517f08c379a000000000000000000000000000000000000000000000000000000000815260040161292990614db5565b60405180910390fd5b600061293c6128ab565b9050600081511161295c5760405180602001604052806000815250612987565b8061296684612dc0565b604051602001612977929190614a90565b6040516020818303038152906040525b915050919050565b600060808260ff1610156129a657600090506129ea565b60cd8260ff1610156129bb57600190506129ea565b60f48260ff1610156129d057600290506129ea565b60fe8260ff1610156129e557600390506129ea565b600490505b919050565b600060568260ff161015612a065760009050612a20565b60ac8260ff161015612a1b5760019050612a20565b600290505b919050565b60006001905090565b600060698260ff161015612a455760019050612a8a565b60cf8260ff161015612a5a57600a9050612a8a565b60f48260ff161015612a6f5760329050612a8a565b60ff8260ff161015612a845760649050612a8a565b6103e890505b919050565b600080612a9c8685612f6d565b90506000612aaa8683613a12565b9050612ab7828286613c6a565b92505050949350505050565b60007f01ffc9a7000000000000000000000000000000000000000000000000000000007bffffffffffffffffffffffffffffffffffffffffffffffffffffffff1916827bffffffffffffffffffffffffffffffffffffffffffffffffffffffff1916149050919050565b612b378383613ca1565b612b446000848484612714565b612b83576040517f08c379a0000000000000000000000000000000000000000000000000000000008152600401612b7a90614bd5565b60405180910390fd5b505050565b612b93838383613e6f565b600073ffffffffffffffffffffffffffffffffffffffff168373ffffffffffffffffffffffffffffffffffffffff161415612bd657612bd181613e74565b612c15565b8173ffffffffffffffffffffffffffffffffffffffff168373ffffffffffffffffffffffffffffffffffffffff1614612c1457612c138382613ebd565b5b5b600073ffffffffffffffffffffffffffffffffffffffff168273ffffffffffffffffffffffffffffffffffffffff161415612c5857612c538161402a565b612c97565b8273ffffffffffffffffffffffffffffffffffffffff168273ffffffffffffffffffffffffffffffffffffffff1614612c9657612c95828261416d565b5b5b505050565b6000612ca782611011565b9050612cb581600084612669565b612cc0600083611bf6565b6001600360008373ffffffffffffffffffffffffffffffffffffffff1673ffffffffffffffffffffffffffffffffffffffff1681526020019081526020016000206000828254612d109190615128565b925050819055506002600083815260200190815260200160002060006101000a81549073ffffffffffffffffffffffffffffffffffffffff021916905581600073ffffffffffffffffffffffffffffffffffffffff168273ffffffffffffffffffffffffffffffffffffffff167fddf252ad1be2c89b69c2b068fc378daa952ba7f163c4a11628f55a4df523b3ef60405160405180910390a45050565b600080823b905060008111915050919050565b60606000821415612e08576040518060400160405280600181526020017f30000000000000000000000000000000000000000000000000000000000000008152509050612f68565b600082905060005b60008214612e3a578080612e23906152d4565b915050600a82612e3391906150bb565b9150612e10565b60008167ffffffffffffffff811115612e7c577f4e487b7100000000000000000000000000000000000000000000000000000000600052604160045260246000fd5b6040519080825280601f01601f191660200182016040528015612eae5781602001600182028036833780820191505090505b5090505b60008514612f6157600182612ec79190615128565b9150600a85612ed69190615327565b6030612ee29190614ffd565b60f81b818381518110612f1e577f4e487b7100000000000000000000000000000000000000000000000000000000600052603260045260246000fd5b60200101907effffffffffffffffffffffffffffffffffffffffffffffffffffffffffffff1916908160001a905350600a85612f5a91906150bb565b9450612eb2565b8093505050505b919050565b600060016002811115612fa9577f4e487b7100000000000000000000000000000000000000000000000000000000600052602160045260246000fd5b836002811115612fe2577f4e487b7100000000000000000000000000000000000000000000000000000000600052602160045260246000fd5b14156132f85760006005811115613022577f4e487b7100000000000000000000000000000000000000000000000000000000600052602160045260246000fd5b82600581111561305b577f4e487b7100000000000000000000000000000000000000000000000000000000600052602160045260246000fd5b141561306a5760339050613a0c565b600160058111156130a4577f4e487b7100000000000000000000000000000000000000000000000000000000600052602160045260246000fd5b8260058111156130dd577f4e487b7100000000000000000000000000000000000000000000000000000000600052602160045260246000fd5b14156130ec5760269050613a0c565b60026005811115613126577f4e487b7100000000000000000000000000000000000000000000000000000000600052602160045260246000fd5b82600581111561315f577f4e487b7100000000000000000000000000000000000000000000000000000000600052602160045260246000fd5b141561316e5760669050613a0c565b600360058111156131a8577f4e487b7100000000000000000000000000000000000000000000000000000000600052602160045260246000fd5b8260058111156131e1577f4e487b7100000000000000000000000000000000000000000000000000000000600052602160045260246000fd5b14156131f05760b39050613a0c565b6004600581111561322a577f4e487b7100000000000000000000000000000000000000000000000000000000600052602160045260246000fd5b826005811115613263577f4e487b7100000000000000000000000000000000000000000000000000000000600052602160045260246000fd5b14156132725760739050613a0c565b6005808111156132ab577f4e487b7100000000000000000000000000000000000000000000000000000000600052602160045260246000fd5b8260058111156132e4577f4e487b7100000000000000000000000000000000000000000000000000000000600052602160045260246000fd5b14156132f35760cc9050613a0c565b613a07565b600280811115613331577f4e487b7100000000000000000000000000000000000000000000000000000000600052602160045260246000fd5b83600281111561336a577f4e487b7100000000000000000000000000000000000000000000000000000000600052602160045260246000fd5b141561368057600060058111156133aa577f4e487b7100000000000000000000000000000000000000000000000000000000600052602160045260246000fd5b8260058111156133e3577f4e487b7100000000000000000000000000000000000000000000000000000000600052602160045260246000fd5b14156133f25760599050613a0c565b6001600581111561342c577f4e487b7100000000000000000000000000000000000000000000000000000000600052602160045260246000fd5b826005811115613465577f4e487b7100000000000000000000000000000000000000000000000000000000600052602160045260246000fd5b141561347457604d9050613a0c565b600260058111156134ae577f4e487b7100000000000000000000000000000000000000000000000000000000600052602160045260246000fd5b8260058111156134e7577f4e487b7100000000000000000000000000000000000000000000000000000000600052602160045260246000fd5b14156134f657604d9050613a0c565b60036005811115613530577f4e487b7100000000000000000000000000000000000000000000000000000000600052602160045260246000fd5b826005811115613569577f4e487b7100000000000000000000000000000000000000000000000000000000600052602160045260246000fd5b14156135785760669050613a0c565b600460058111156135b2577f4e487b7100000000000000000000000000000000000000000000000000000000600052602160045260246000fd5b8260058111156135eb577f4e487b7100000000000000000000000000000000000000000000000000000000600052602160045260246000fd5b14156135fa5760a69050613a0c565b600580811115613633577f4e487b7100000000000000000000000000000000000000000000000000000000600052602160045260246000fd5b82600581111561366c577f4e487b7100000000000000000000000000000000000000000000000000000000600052602160045260246000fd5b141561367b5760b39050613a0c565b613a06565b600060028111156136ba577f4e487b7100000000000000000000000000000000000000000000000000000000600052602160045260246000fd5b8360028111156136f3577f4e487b7100000000000000000000000000000000000000000000000000000000600052602160045260246000fd5b1415613a055760006005811115613733577f4e487b7100000000000000000000000000000000000000000000000000000000600052602160045260246000fd5b82600581111561376c577f4e487b7100000000000000000000000000000000000000000000000000000000600052602160045260246000fd5b141561377b5760269050613a0c565b600160058111156137b5577f4e487b7100000000000000000000000000000000000000000000000000000000600052602160045260246000fd5b8260058111156137ee577f4e487b7100000000000000000000000000000000000000000000000000000000600052602160045260246000fd5b14156137fd57600d9050613a0c565b60026005811115613837577f4e487b7100000000000000000000000000000000000000000000000000000000600052602160045260246000fd5b826005811115613870577f4e487b7100000000000000000000000000000000000000000000000000000000600052602160045260246000fd5b141561387f5760269050613a0c565b600360058111156138b9577f4e487b7100000000000000000000000000000000000000000000000000000000600052602160045260246000fd5b8260058111156138f2577f4e487b7100000000000000000000000000000000000000000000000000000000600052602160045260246000fd5b14156139015760739050613a0c565b6004600581111561393b577f4e487b7100000000000000000000000000000000000000000000000000000000600052602160045260246000fd5b826005811115613974577f4e487b7100000000000000000000000000000000000000000000000000000000600052602160045260246000fd5b14156139835760599050613a0c565b6005808111156139bc577f4e487b7100000000000000000000000000000000000000000000000000000000600052602160045260246000fd5b8260058111156139f5577f4e487b7100000000000000000000000000000000000000000000000000000000600052602160045260246000fd5b1415613a0457601a9050613a0c565b5b5b5b600090505b92915050565b6000806000600c84613a249190615053565b905060016004811115613a60577f4e487b7100000000000000000000000000000000000000000000000000000000600052602160045260246000fd5b856004811115613a99577f4e487b7100000000000000000000000000000000000000000000000000000000600052602160045260246000fd5b1415613aa457600d91505b60026004811115613ade577f4e487b7100000000000000000000000000000000000000000000000000000000600052602160045260246000fd5b856004811115613b17577f4e487b7100000000000000000000000000000000000000000000000000000000600052602160045260246000fd5b1415613b2257601a91505b60036004811115613b5c577f4e487b7100000000000000000000000000000000000000000000000000000000600052602160045260246000fd5b856004811115613b95577f4e487b7100000000000000000000000000000000000000000000000000000000600052602160045260246000fd5b1415613ba057602b91505b600480811115613bd9577f4e487b7100000000000000000000000000000000000000000000000000000000600052602160045260246000fd5b856004811115613c12577f4e487b7100000000000000000000000000000000000000000000000000000000600052602160045260246000fd5b1415613c1d57604091505b600060ff838360ff613c2f919061515c565b60ff16613c3c91906150ec565b613c46919061508a565b9050808583613c55919061515c565b613c5f9190615053565b935050505092915050565b600060ff8360ff168360ff16613c8091906150ec565b613c8a919061508a565b8460ff16613c989190614fc5565b90509392505050565b600073ffffffffffffffffffffffffffffffffffffffff168273ffffffffffffffffffffffffffffffffffffffff161415613d11576040517f08c379a0000000000000000000000000000000000000000000000000000000008152600401613d0890614d15565b60405180910390fd5b613d1a81611b82565b15613d5a576040517f08c379a0000000000000000000000000000000000000000000000000000000008152600401613d5190614c15565b60405180910390fd5b613d6660008383612669565b6001600360008473ffffffffffffffffffffffffffffffffffffffff1673ffffffffffffffffffffffffffffffffffffffff1681526020019081526020016000206000828254613db69190614ffd565b92505081905550816002600083815260200190815260200160002060006101000a81548173ffffffffffffffffffffffffffffffffffffffff021916908373ffffffffffffffffffffffffffffffffffffffff160217905550808273ffffffffffffffffffffffffffffffffffffffff16600073ffffffffffffffffffffffffffffffffffffffff167fddf252ad1be2c89b69c2b068fc378daa952ba7f163c4a11628f55a4df523b3ef60405160405180910390a45050565b505050565b6008805490506009600083815260200190815260200160002081905550600881908060018154018082558091505060019003906000526020600020016000909190919091505550565b60006001613eca846110c3565b613ed49190615128565b9050600060076000848152602001908152602001600020549050818114613fb9576000600660008673ffffffffffffffffffffffffffffffffffffffff1673ffffffffffffffffffffffffffffffffffffffff168152602001908152602001600020600084815260200190815260200160002054905080600660008773ffffffffffffffffffffffffffffffffffffffff1673ffffffffffffffffffffffffffffffffffffffff168152602001908152602001600020600084815260200190815260200160002081905550816007600083815260200190815260200160002081905550505b6007600084815260200190815260200160002060009055600660008573ffffffffffffffffffffffffffffffffffffffff1673ffffffffffffffffffffffffffffffffffffffff16815260200190815260200160002060008381526020019081526020016000206000905550505050565b6000600160088054905061403e9190615128565b9050600060096000848152602001908152602001600020549050600060088381548110614094577f4e487b7100000000000000000000000000000000000000000000000000000000600052603260045260246000fd5b9060005260206000200154905080600883815481106140dc577f4e487b7100000000000000000000000000000000000000000000000000000000600052603260045260246000fd5b906000526020600020018190555081600960008381526020019081526020016000208190555060096000858152602001908152602001600020600090556008805480614151577f4e487b7100000000000000000000000000000000000000000000000000000000600052603160045260246000fd5b6001900381819060005260206000200160009055905550505050565b6000614178836110c3565b905081600660008573ffffffffffffffffffffffffffffffffffffffff1673ffffffffffffffffffffffffffffffffffffffff168152602001908152602001600020600083815260200190815260200160002081905550806007600084815260200190815260200160002081905550505050565b60405180610140016040528060006002811115614232577f4e487b7100000000000000000000000000000000000000000000000000000000600052602160045260246000fd5b815260200160006004811115614271577f4e487b7100000000000000000000000000000000000000000000000000000000600052602160045260246000fd5b8152602001600061ffff168152602001600063ffffffff168152602001600060ff168152602001600060ff168152602001600060ff168152602001600060ff168152602001600060ff168152602001600060ff1681525090565b5080546142d790615271565b6000825580601f106142e95750614308565b601f016020900490600052602060002090810190614307919061430b565b5b50565b5b8082111561432457600081600090555060010161430c565b5090565b600061433b61433684614f51565b614f2c565b90508281526020810184848401111561435357600080fd5b61435e84828561522f565b509392505050565b60008135905061437581615a34565b92915050565b60008135905061438a81615a4b565b92915050565b60008135905061439f81615a62565b92915050565b6000815190506143b481615a62565b92915050565b600082601f8301126143cb57600080fd5b81356143db848260208601614328565b91505092915050565b6000813590506143f381615a79565b92915050565b60006020828403121561440b57600080fd5b600061441984828501614366565b91505092915050565b6000806040838503121561443557600080fd5b600061444385828601614366565b925050602061445485828601614366565b9150509250929050565b60008060006060848603121561447357600080fd5b600061448186828701614366565b935050602061449286828701614366565b92505060406144a3868287016143e4565b9150509250925092565b600080600080608085870312156144c357600080fd5b60006144d187828801614366565b94505060206144e287828801614366565b93505060406144f3878288016143e4565b925050606085013567ffffffffffffffff81111561451057600080fd5b61451c878288016143ba565b91505092959194509250565b6000806040838503121561453b57600080fd5b600061454985828601614366565b925050602061455a8582860161437b565b9150509250929050565b6000806040838503121561457757600080fd5b600061458585828601614366565b9250506020614596858286016143e4565b9150509250929050565b6000602082840312156145b257600080fd5b60006145c084828501614390565b91505092915050565b6000602082840312156145db57600080fd5b60006145e9848285016143a5565b91505092915050565b60006020828403121561460457600080fd5b6000614612848285016143e4565b91505092915050565b6000806040838503121561462e57600080fd5b600061463c858286016143e4565b925050602061464d858286016143e4565b9150509250929050565b61466081615190565b82525050565b61466f816151a2565b82525050565b600061468082614f82565b61468a8185614f98565b935061469a81856020860161523e565b6146a381615414565b840191505092915050565b60006146b982614f8d565b6146c38185614fa9565b93506146d381856020860161523e565b6146dc81615414565b840191505092915050565b60006146f282614f8d565b6146fc8185614fba565b935061470c81856020860161523e565b80840191505092915050565b6000614725601483614fa9565b915061473082615425565b602082019050919050565b6000614748602b83614fa9565b91506147538261544e565b604082019050919050565b600061476b603283614fa9565b91506147768261549d565b604082019050919050565b600061478e602683614fa9565b9150614799826154ec565b604082019050919050565b60006147b1601c83614fa9565b91506147bc8261553b565b602082019050919050565b60006147d4602483614fa9565b91506147df82615564565b604082019050919050565b60006147f7601983614fa9565b9150614802826155b3565b602082019050919050565b600061481a602c83614fa9565b9150614825826155dc565b604082019050919050565b600061483d601083614fa9565b91506148488261562b565b602082019050919050565b6000614860603883614fa9565b915061486b82615654565b604082019050919050565b6000614883602a83614fa9565b915061488e826156a3565b604082019050919050565b60006148a6602983614fa9565b91506148b1826156f2565b604082019050919050565b60006148c9602083614fa9565b91506148d482615741565b602082019050919050565b60006148ec603183614fa9565b91506148f78261576a565b604082019050919050565b600061490f602c83614fa9565b915061491a826157b9565b604082019050919050565b6000614932602083614fa9565b915061493d82615808565b602082019050919050565b6000614955602983614fa9565b915061496082615831565b604082019050919050565b6000614978602f83614fa9565b915061498382615880565b604082019050919050565b600061499b601083614fa9565b91506149a6826158cf565b602082019050919050565b60006149be602183614fa9565b91506149c9826158f8565b604082019050919050565b60006149e1603183614fa9565b91506149ec82615947565b604082019050919050565b6000614a04602c83614fa9565b9150614a0f82615996565b604082019050919050565b6000614a27603083614fa9565b9150614a32826159e5565b604082019050919050565b614a46816151da565b82525050565b614a5581615208565b82525050565b614a6c614a6782615208565b61531d565b82525050565b614a7b81615212565b82525050565b614a8a81615222565b82525050565b6000614a9c82856146e7565b9150614aa882846146e7565b91508190509392505050565b6000614ac08286614a5b565b602082019150614ad08285614a5b565b602082019150614ae08284614a5b565b602082019150819050949350505050565b6000602082019050614b066000830184614657565b92915050565b6000608082019050614b216000830187614657565b614b2e6020830186614657565b614b3b6040830185614a4c565b8181036060830152614b4d8184614675565b905095945050505050565b6000602082019050614b6d6000830184614666565b92915050565b60006020820190508181036000830152614b8d81846146ae565b905092915050565b60006020820190508181036000830152614bae81614718565b9050919050565b60006020820190508181036000830152614bce8161473b565b9050919050565b60006020820190508181036000830152614bee8161475e565b9050919050565b60006020820190508181036000830152614c0e81614781565b9050919050565b60006020820190508181036000830152614c2e816147a4565b9050919050565b60006020820190508181036000830152614c4e816147c7565b9050919050565b60006020820190508181036000830152614c6e816147ea565b9050919050565b60006020820190508181036000830152614c8e8161480d565b9050919050565b60006020820190508181036000830152614cae81614830565b9050919050565b60006020820190508181036000830152614cce81614853565b9050919050565b60006020820190508181036000830152614cee81614876565b9050919050565b60006020820190508181036000830152614d0e81614899565b9050919050565b60006020820190508181036000830152614d2e816148bc565b9050919050565b60006020820190508181036000830152614d4e816148df565b9050919050565b60006020820190508181036000830152614d6e81614902565b9050919050565b60006020820190508181036000830152614d8e81614925565b9050919050565b60006020820190508181036000830152614dae81614948565b9050919050565b60006020820190508181036000830152614dce8161496b565b9050919050565b60006020820190508181036000830152614dee8161498e565b9050919050565b60006020820190508181036000830152614e0e816149b1565b9050919050565b60006020820190508181036000830152614e2e816149d4565b9050919050565b60006020820190508181036000830152614e4e816149f7565b9050919050565b60006020820190508181036000830152614e6e81614a1a565b9050919050565b600061014082019050614e8b600083018d614a3d565b614e98602083018c614a81565b614ea5604083018b614a3d565b614eb2606083018a614a72565b614ebf6080830189614a81565b614ecc60a0830188614a81565b614ed960c0830187614a81565b614ee660e0830186614a81565b614ef4610100830185614a81565b614f02610120830184614a81565b9b9a5050505050505050505050565b6000602082019050614f266000830184614a4c565b92915050565b6000614f36614f47565b9050614f4282826152a3565b919050565b6000604051905090565b600067ffffffffffffffff821115614f6c57614f6b6153e5565b5b614f7582615414565b9050602081019050919050565b600081519050919050565b600081519050919050565b600082825260208201905092915050565b600082825260208201905092915050565b600081905092915050565b6000614fd0826151da565b9150614fdb836151da565b92508261ffff03821115614ff257614ff1615358565b5b828201905092915050565b600061500882615208565b915061501383615208565b9250827fffffffffffffffffffffffffffffffffffffffffffffffffffffffffffffffff0382111561504857615047615358565b5b828201905092915050565b600061505e82615222565b915061506983615222565b92508260ff0382111561507f5761507e615358565b5b828201905092915050565b6000615095826151da565b91506150a0836151da565b9250826150b0576150af615387565b5b828204905092915050565b60006150c682615208565b91506150d183615208565b9250826150e1576150e0615387565b5b828204905092915050565b60006150f7826151da565b9150615102836151da565b92508161ffff048311821515161561511d5761511c615358565b5b828202905092915050565b600061513382615208565b915061513e83615208565b92508282101561515157615150615358565b5b828203905092915050565b600061516782615222565b915061517283615222565b92508282101561518557615184615358565b5b828203905092915050565b600061519b826151e8565b9050919050565b60008115159050919050565b60007fffffffff0000000000000000000000000000000000000000000000000000000082169050919050565b600061ffff82169050919050565b600073ffffffffffffffffffffffffffffffffffffffff82169050919050565b6000819050919050565b600063ffffffff82169050919050565b600060ff82169050919050565b82818337600083830152505050565b60005b8381101561525c578082015181840152602081019050615241565b8381111561526b576000848401525b50505050565b6000600282049050600182168061528957607f821691505b6020821081141561529d5761529c6153b6565b5b50919050565b6152ac82615414565b810181811067ffffffffffffffff821117156152cb576152ca6153e5565b5b80604052505050565b60006152df82615208565b91507fffffffffffffffffffffffffffffffffffffffffffffffffffffffffffffffff82141561531257615311615358565b5b600182019050919050565b6000819050919050565b600061533282615208565b915061533d83615208565b92508261534d5761534c615387565b5b828206905092915050565b7f4e487b7100000000000000000000000000000000000000000000000000000000600052601160045260246000fd5b7f4e487b7100000000000000000000000000000000000000000000000000000000600052601260045260246000fd5b7f4e487b7100000000000000000000000000000000000000000000000000000000600052602260045260246000fd5b7f4e487b7100000000000000000000000000000000000000000000000000000000600052604160045260246000fd5b6000601f19601f8301169050919050565b7f5061757361626c653a206e6f7420706175736564000000000000000000000000600082015250565b7f455243373231456e756d657261626c653a206f776e657220696e646578206f7560008201527f74206f6620626f756e6473000000000000000000000000000000000000000000602082015250565b7f4552433732313a207472616e7366657220746f206e6f6e20455243373231526560008201527f63656976657220696d706c656d656e7465720000000000000000000000000000602082015250565b7f4f776e61626c653a206e6577206f776e657220697320746865207a65726f206160008201527f6464726573730000000000000000000000000000000000000000000000000000602082015250565b7f4552433732313a20746f6b656e20616c7265616479206d696e74656400000000600082015250565b7f4552433732313a207472616e7366657220746f20746865207a65726f2061646460008201527f7265737300000000000000000000000000000000000000000000000000000000602082015250565b7f4552433732313a20617070726f766520746f2063616c6c657200000000000000600082015250565b7f4552433732313a206f70657261746f7220717565727920666f72206e6f6e657860008201527f697374656e7420746f6b656e0000000000000000000000000000000000000000602082015250565b7f5061757361626c653a2070617573656400000000000000000000000000000000600082015250565b7f4552433732313a20617070726f76652063616c6c6572206973206e6f74206f7760008201527f6e6572206e6f7220617070726f76656420666f7220616c6c0000000000000000602082015250565b7f4552433732313a2062616c616e636520717565727920666f7220746865207a6560008201527f726f206164647265737300000000000000000000000000000000000000000000602082015250565b7f4552433732313a206f776e657220717565727920666f72206e6f6e657869737460008201527f656e7420746f6b656e0000000000000000000000000000000000000000000000602082015250565b7f4552433732313a206d696e7420746f20746865207a65726f2061646472657373600082015250565b7f45524337323155524953746f726167653a2055524920717565727920666f722060008201527f6e6f6e6578697374656e7420746f6b656e000000000000000000000000000000602082015250565b7f4552433732313a20617070726f76656420717565727920666f72206e6f6e657860008201527f697374656e7420746f6b656e0000000000000000000000000000000000000000602082015250565b7f4f776e61626c653a2063616c6c6572206973206e6f7420746865206f776e6572600082015250565b7f4552433732313a207472616e73666572206f6620746f6b656e2074686174206960008201527f73206e6f74206f776e0000000000000000000000000000000000000000000000602082015250565b7f4552433732314d657461646174613a2055524920717565727920666f72206e6f60008201527f6e6578697374656e7420746f6b656e0000000000000000000000000000000000602082015250565b7f4361726420636f73742069732031302e00000000000000000000000000000000600082015250565b7f4552433732313a20617070726f76616c20746f2063757272656e74206f776e6560008201527f7200000000000000000000000000000000000000000000000000000000000000602082015250565b7f4552433732313a207472616e736665722063616c6c6572206973206e6f74206f60008201527f776e6572206e6f7220617070726f766564000000000000000000000000000000602082015250565b7f455243373231456e756d657261626c653a20676c6f62616c20696e646578206f60008201527f7574206f6620626f756e64730000000000000000000000000000000000000000602082015250565b7f4552433732314275726e61626c653a2063616c6c6572206973206e6f74206f7760008201527f6e6572206e6f7220617070726f76656400000000000000000000000000000000602082015250565b615a3d81615190565b8114615a4857600080fd5b50565b615a54816151a2565b8114615a5f57600080fd5b50565b615a6b816151ae565b8114615a7657600080fd5b50565b615a8281615208565b8114615a8d57600080fd5b5056fea2646970667358221220cf0d88ba11b26d27d1c3d05b6ff414a9f5056338f69dfe3690cf4160f0b9fee164736f6c63430008040033",
  "devdoc": {
    "kind": "dev",
    "methods": {
      "approve(address,uint256)": {
        "details": "See {IERC721-approve}."
      },
      "balanceOf(address)": {
        "details": "See {IERC721-balanceOf}."
      },
      "burn(uint256)": {
        "details": "Burns `tokenId`. See {ERC721-_burn}. Requirements: - The caller must own `tokenId` or be an approved operator."
      },
      "getApproved(uint256)": {
        "details": "See {IERC721-getApproved}."
      },
      "isApprovedForAll(address,address)": {
        "details": "See {IERC721-isApprovedForAll}."
      },
      "name()": {
        "details": "See {IERC721Metadata-name}."
      },
      "owner()": {
        "details": "Returns the address of the current owner."
      },
      "ownerOf(uint256)": {
        "details": "See {IERC721-ownerOf}."
      },
      "paused()": {
        "details": "Returns true if the contract is paused, and false otherwise."
      },
      "renounceOwnership()": {
        "details": "Leaves the contract without owner. It will not be possible to call `onlyOwner` functions anymore. Can only be called by the current owner. NOTE: Renouncing ownership will leave the contract without an owner, thereby removing any functionality that is only available to the owner."
      },
      "safeTransferFrom(address,address,uint256)": {
        "details": "See {IERC721-safeTransferFrom}."
      },
      "safeTransferFrom(address,address,uint256,bytes)": {
        "details": "See {IERC721-safeTransferFrom}."
      },
      "setApprovalForAll(address,bool)": {
        "details": "See {IERC721-setApprovalForAll}."
      },
      "symbol()": {
        "details": "See {IERC721Metadata-symbol}."
      },
      "tokenByIndex(uint256)": {
        "details": "See {IERC721Enumerable-tokenByIndex}."
      },
      "tokenOfOwnerByIndex(address,uint256)": {
        "details": "See {IERC721Enumerable-tokenOfOwnerByIndex}."
      },
      "totalSupply()": {
        "details": "See {IERC721Enumerable-totalSupply}."
      },
      "transferFrom(address,address,uint256)": {
        "details": "See {IERC721-transferFrom}."
      },
      "transferOwnership(address)": {
        "details": "Transfers ownership of the contract to a new account (`newOwner`). Can only be called by the current owner."
      }
    },
    "version": 1
  },
  "userdoc": {
    "kind": "user",
    "methods": {},
    "version": 1
  },
  "storageLayout": {
    "storage": [
      {
        "astId": 221,
        "contract": "contracts/Tunfo.sol:Tunfo",
        "label": "_name",
        "offset": 0,
        "slot": "0",
        "type": "t_string_storage"
      },
      {
        "astId": 223,
        "contract": "contracts/Tunfo.sol:Tunfo",
        "label": "_symbol",
        "offset": 0,
        "slot": "1",
        "type": "t_string_storage"
      },
      {
        "astId": 227,
        "contract": "contracts/Tunfo.sol:Tunfo",
        "label": "_owners",
        "offset": 0,
        "slot": "2",
        "type": "t_mapping(t_uint256,t_address)"
      },
      {
        "astId": 231,
        "contract": "contracts/Tunfo.sol:Tunfo",
        "label": "_balances",
        "offset": 0,
        "slot": "3",
        "type": "t_mapping(t_address,t_uint256)"
      },
      {
        "astId": 235,
        "contract": "contracts/Tunfo.sol:Tunfo",
        "label": "_tokenApprovals",
        "offset": 0,
        "slot": "4",
        "type": "t_mapping(t_uint256,t_address)"
      },
      {
        "astId": 241,
        "contract": "contracts/Tunfo.sol:Tunfo",
        "label": "_operatorApprovals",
        "offset": 0,
        "slot": "5",
        "type": "t_mapping(t_address,t_mapping(t_address,t_bool))"
      },
      {
        "astId": 1192,
        "contract": "contracts/Tunfo.sol:Tunfo",
        "label": "_ownedTokens",
        "offset": 0,
        "slot": "6",
        "type": "t_mapping(t_address,t_mapping(t_uint256,t_uint256))"
      },
      {
        "astId": 1196,
        "contract": "contracts/Tunfo.sol:Tunfo",
        "label": "_ownedTokensIndex",
        "offset": 0,
        "slot": "7",
        "type": "t_mapping(t_uint256,t_uint256)"
      },
      {
        "astId": 1199,
        "contract": "contracts/Tunfo.sol:Tunfo",
        "label": "_allTokens",
        "offset": 0,
        "slot": "8",
        "type": "t_array(t_uint256)dyn_storage"
      },
      {
        "astId": 1203,
        "contract": "contracts/Tunfo.sol:Tunfo",
        "label": "_allTokensIndex",
        "offset": 0,
        "slot": "9",
        "type": "t_mapping(t_uint256,t_uint256)"
      },
      {
        "astId": 1528,
        "contract": "contracts/Tunfo.sol:Tunfo",
        "label": "_tokenURIs",
        "offset": 0,
        "slot": "10",
        "type": "t_mapping(t_uint256,t_string_storage)"
      },
      {
        "astId": 121,
        "contract": "contracts/Tunfo.sol:Tunfo",
        "label": "_paused",
        "offset": 0,
        "slot": "11",
        "type": "t_bool"
      },
      {
        "astId": 7,
        "contract": "contracts/Tunfo.sol:Tunfo",
        "label": "_owner",
        "offset": 1,
        "slot": "11",
        "type": "t_address"
      },
      {
        "astId": 2937,
        "contract": "contracts/Tunfo.sol:Tunfo",
        "label": "_tokenIdCounter",
        "offset": 0,
        "slot": "12",
        "type": "t_struct(Counter)2024_storage"
      },
      {
        "astId": 2940,
        "contract": "contracts/Tunfo.sol:Tunfo",
        "label": "_tokenIdToGenerateCounter",
        "offset": 0,
        "slot": "13",
        "type": "t_struct(Counter)2024_storage"
      },
      {
        "astId": 2945,
        "contract": "contracts/Tunfo.sol:Tunfo",
        "label": "_cards",
        "offset": 0,
        "slot": "14",
        "type": "t_mapping(t_uint256,t_struct(Card)2376_storage)"
      }
    ],
    "types": {
      "t_address": {
        "encoding": "inplace",
        "label": "address",
        "numberOfBytes": "20"
      },
      "t_array(t_uint256)dyn_storage": {
        "base": "t_uint256",
        "encoding": "dynamic_array",
        "label": "uint256[]",
        "numberOfBytes": "32"
      },
      "t_bool": {
        "encoding": "inplace",
        "label": "bool",
        "numberOfBytes": "1"
      },
      "t_enum(CardRarity)2342": {
        "encoding": "inplace",
        "label": "enum Cards.CardRarity",
        "numberOfBytes": "1"
      },
      "t_enum(CardType)2346": {
        "encoding": "inplace",
        "label": "enum Cards.CardType",
        "numberOfBytes": "1"
      },
      "t_mapping(t_address,t_bool)": {
        "encoding": "mapping",
        "key": "t_address",
        "label": "mapping(address => bool)",
        "numberOfBytes": "32",
        "value": "t_bool"
      },
      "t_mapping(t_address,t_mapping(t_address,t_bool))": {
        "encoding": "mapping",
        "key": "t_address",
        "label": "mapping(address => mapping(address => bool))",
        "numberOfBytes": "32",
        "value": "t_mapping(t_address,t_bool)"
      },
      "t_mapping(t_address,t_mapping(t_uint256,t_uint256))": {
        "encoding": "mapping",
        "key": "t_address",
        "label": "mapping(address => mapping(uint256 => uint256))",
        "numberOfBytes": "32",
        "value": "t_mapping(t_uint256,t_uint256)"
      },
      "t_mapping(t_address,t_uint256)": {
        "encoding": "mapping",
        "key": "t_address",
        "label": "mapping(address => uint256)",
        "numberOfBytes": "32",
        "value": "t_uint256"
      },
      "t_mapping(t_uint256,t_address)": {
        "encoding": "mapping",
        "key": "t_uint256",
        "label": "mapping(uint256 => address)",
        "numberOfBytes": "32",
        "value": "t_address"
      },
      "t_mapping(t_uint256,t_string_storage)": {
        "encoding": "mapping",
        "key": "t_uint256",
        "label": "mapping(uint256 => string)",
        "numberOfBytes": "32",
        "value": "t_string_storage"
      },
      "t_mapping(t_uint256,t_struct(Card)2376_storage)": {
        "encoding": "mapping",
        "key": "t_uint256",
        "label": "mapping(uint256 => struct Cards.Card)",
        "numberOfBytes": "32",
        "value": "t_struct(Card)2376_storage"
      },
      "t_mapping(t_uint256,t_uint256)": {
        "encoding": "mapping",
        "key": "t_uint256",
        "label": "mapping(uint256 => uint256)",
        "numberOfBytes": "32",
        "value": "t_uint256"
      },
      "t_string_storage": {
        "encoding": "bytes",
        "label": "string",
        "numberOfBytes": "32"
      },
      "t_struct(Card)2376_storage": {
        "encoding": "inplace",
        "label": "struct Cards.Card",
        "members": [
          {
            "astId": 2356,
            "contract": "contracts/Tunfo.sol:Tunfo",
            "label": "cardType",
            "offset": 0,
            "slot": "0",
            "type": "t_enum(CardType)2346"
          },
          {
            "astId": 2359,
            "contract": "contracts/Tunfo.sol:Tunfo",
            "label": "rarity",
            "offset": 1,
            "slot": "0",
            "type": "t_enum(CardRarity)2342"
          },
          {
            "astId": 2361,
            "contract": "contracts/Tunfo.sol:Tunfo",
            "label": "generation",
            "offset": 2,
            "slot": "0",
            "type": "t_uint16"
          },
          {
            "astId": 2363,
            "contract": "contracts/Tunfo.sol:Tunfo",
            "label": "donationValue",
            "offset": 4,
            "slot": "0",
            "type": "t_uint32"
          },
          {
            "astId": 2365,
            "contract": "contracts/Tunfo.sol:Tunfo",
            "label": "power",
            "offset": 8,
            "slot": "0",
            "type": "t_uint8"
          },
          {
            "astId": 2367,
            "contract": "contracts/Tunfo.sol:Tunfo",
            "label": "vitality",
            "offset": 9,
            "slot": "0",
            "type": "t_uint8"
          },
          {
            "astId": 2369,
            "contract": "contracts/Tunfo.sol:Tunfo",
            "label": "resistance",
            "offset": 10,
            "slot": "0",
            "type": "t_uint8"
          },
          {
            "astId": 2371,
            "contract": "contracts/Tunfo.sol:Tunfo",
            "label": "agility",
            "offset": 11,
            "slot": "0",
            "type": "t_uint8"
          },
          {
            "astId": 2373,
            "contract": "contracts/Tunfo.sol:Tunfo",
            "label": "inteligence",
            "offset": 12,
            "slot": "0",
            "type": "t_uint8"
          },
          {
            "astId": 2375,
            "contract": "contracts/Tunfo.sol:Tunfo",
            "label": "charisma",
            "offset": 13,
            "slot": "0",
            "type": "t_uint8"
          }
        ],
        "numberOfBytes": "32"
      },
      "t_struct(Counter)2024_storage": {
        "encoding": "inplace",
        "label": "struct Counters.Counter",
        "members": [
          {
            "astId": 2023,
            "contract": "contracts/Tunfo.sol:Tunfo",
            "label": "_value",
            "offset": 0,
            "slot": "0",
            "type": "t_uint256"
          }
        ],
        "numberOfBytes": "32"
      },
      "t_uint16": {
        "encoding": "inplace",
        "label": "uint16",
        "numberOfBytes": "2"
      },
      "t_uint256": {
        "encoding": "inplace",
        "label": "uint256",
        "numberOfBytes": "32"
      },
      "t_uint32": {
        "encoding": "inplace",
        "label": "uint32",
        "numberOfBytes": "4"
      },
      "t_uint8": {
        "encoding": "inplace",
        "label": "uint8",
        "numberOfBytes": "1"
      }
    }
  }
}