{
  "address": "0x5FbDB2315678afecb367f032d93F642f64180aa3",
  "abi": [
    {
      "inputs": [],
      "stateMutability": "nonpayable",
      "type": "constructor"
    },
    {
      "anonymous": false,
      "inputs": [
        {
          "indexed": true,
          "internalType": "address",
          "name": "owner",
          "type": "address"
        },
        {
          "indexed": true,
          "internalType": "address",
          "name": "approved",
          "type": "address"
        },
        {
          "indexed": true,
          "internalType": "uint256",
          "name": "tokenId",
          "type": "uint256"
        }
      ],
      "name": "Approval",
      "type": "event"
    },
    {
      "anonymous": false,
      "inputs": [
        {
          "indexed": true,
          "internalType": "address",
          "name": "owner",
          "type": "address"
        },
        {
          "indexed": true,
          "internalType": "address",
          "name": "operator",
          "type": "address"
        },
        {
          "indexed": false,
          "internalType": "bool",
          "name": "approved",
          "type": "bool"
        }
      ],
      "name": "ApprovalForAll",
      "type": "event"
    },
    {
      "anonymous": false,
      "inputs": [
        {
          "indexed": true,
          "internalType": "address",
          "name": "previousOwner",
          "type": "address"
        },
        {
          "indexed": true,
          "internalType": "address",
          "name": "newOwner",
          "type": "address"
        }
      ],
      "name": "OwnershipTransferred",
      "type": "event"
    },
    {
      "anonymous": false,
      "inputs": [
        {
          "indexed": false,
          "internalType": "address",
          "name": "account",
          "type": "address"
        }
      ],
      "name": "Paused",
      "type": "event"
    },
    {
      "anonymous": false,
      "inputs": [
        {
          "indexed": true,
          "internalType": "address",
          "name": "from",
          "type": "address"
        },
        {
          "indexed": true,
          "internalType": "address",
          "name": "to",
          "type": "address"
        },
        {
          "indexed": true,
          "internalType": "uint256",
          "name": "tokenId",
          "type": "uint256"
        }
      ],
      "name": "Transfer",
      "type": "event"
    },
    {
      "anonymous": false,
      "inputs": [
        {
          "indexed": false,
          "internalType": "address",
          "name": "account",
          "type": "address"
        }
      ],
      "name": "Unpaused",
      "type": "event"
    },
    {
      "inputs": [
        {
          "internalType": "address",
          "name": "to",
          "type": "address"
        },
        {
          "internalType": "uint256",
          "name": "tokenId",
          "type": "uint256"
        }
      ],
      "name": "approve",
      "outputs": [],
      "stateMutability": "nonpayable",
      "type": "function"
    },
    {
      "inputs": [
        {
          "internalType": "address",
          "name": "owner",
          "type": "address"
        }
      ],
      "name": "balanceOf",
      "outputs": [
        {
          "internalType": "uint256",
          "name": "",
          "type": "uint256"
        }
      ],
      "stateMutability": "view",
      "type": "function"
    },
    {
      "inputs": [
        {
          "internalType": "uint256",
          "name": "tokenId",
          "type": "uint256"
        }
      ],
      "name": "burn",
      "outputs": [],
      "stateMutability": "nonpayable",
      "type": "function"
    },
    {
      "inputs": [],
      "name": "generateAllTokens",
      "outputs": [],
      "stateMutability": "nonpayable",
      "type": "function"
    },
    {
      "inputs": [
        {
          "internalType": "uint256",
          "name": "maxReceived",
          "type": "uint256"
        }
      ],
      "name": "generateTokens",
      "outputs": [],
      "stateMutability": "nonpayable",
      "type": "function"
    },
    {
      "inputs": [
        {
          "internalType": "uint256",
          "name": "tokenId",
          "type": "uint256"
        }
      ],
      "name": "getApproved",
      "outputs": [
        {
          "internalType": "address",
          "name": "",
          "type": "address"
        }
      ],
      "stateMutability": "view",
      "type": "function"
    },
    {
      "inputs": [
        {
          "internalType": "uint256",
          "name": "tokenId",
          "type": "uint256"
        }
      ],
      "name": "getAttributes",
      "outputs": [
        {
          "internalType": "uint16",
          "name": "",
          "type": "uint16"
        },
        {
          "internalType": "uint8",
          "name": "",
          "type": "uint8"
        },
        {
          "internalType": "uint16",
          "name": "",
          "type": "uint16"
        },
        {
          "internalType": "uint32",
          "name": "",
          "type": "uint32"
        },
        {
          "internalType": "uint8",
          "name": "",
          "type": "uint8"
        },
        {
          "internalType": "uint8",
          "name": "",
          "type": "uint8"
        },
        {
          "internalType": "uint8",
          "name": "",
          "type": "uint8"
        },
        {
          "internalType": "uint8",
          "name": "",
          "type": "uint8"
        },
        {
          "internalType": "uint8",
          "name": "",
          "type": "uint8"
        },
        {
          "internalType": "uint8",
          "name": "",
          "type": "uint8"
        }
      ],
      "stateMutability": "view",
      "type": "function"
    },
    {
      "inputs": [
        {
          "internalType": "uint256",
          "name": "tokenId",
          "type": "uint256"
        },
        {
          "internalType": "uint256",
          "name": "seed",
          "type": "uint256"
        }
      ],
      "name": "initializeToken",
      "outputs": [],
      "stateMutability": "nonpayable",
      "type": "function"
    },
    {
      "inputs": [
        {
          "internalType": "address",
          "name": "owner",
          "type": "address"
        },
        {
          "internalType": "address",
          "name": "operator",
          "type": "address"
        }
      ],
      "name": "isApprovedForAll",
      "outputs": [
        {
          "internalType": "bool",
          "name": "",
          "type": "bool"
        }
      ],
      "stateMutability": "view",
      "type": "function"
    },
    {
      "inputs": [
        {
          "internalType": "uint256",
          "name": "tokenId",
          "type": "uint256"
        }
      ],
      "name": "isTokenInitialized",
      "outputs": [
        {
          "internalType": "bool",
          "name": "",
          "type": "bool"
        }
      ],
      "stateMutability": "view",
      "type": "function"
    },
    {
      "inputs": [],
      "name": "mint",
      "outputs": [],
      "stateMutability": "payable",
      "type": "function"
    },
    {
      "inputs": [],
      "name": "name",
      "outputs": [
        {
          "internalType": "string",
          "name": "",
          "type": "string"
        }
      ],
      "stateMutability": "view",
      "type": "function"
    },
    {
      "inputs": [],
      "name": "owner",
      "outputs": [
        {
          "internalType": "address",
          "name": "",
          "type": "address"
        }
      ],
      "stateMutability": "view",
      "type": "function"
    },
    {
      "inputs": [
        {
          "internalType": "uint256",
          "name": "tokenId",
          "type": "uint256"
        }
      ],
      "name": "ownerOf",
      "outputs": [
        {
          "internalType": "address",
          "name": "",
          "type": "address"
        }
      ],
      "stateMutability": "view",
      "type": "function"
    },
    {
      "inputs": [],
      "name": "pause",
      "outputs": [],
      "stateMutability": "nonpayable",
      "type": "function"
    },
    {
      "inputs": [],
      "name": "paused",
      "outputs": [
        {
          "internalType": "bool",
          "name": "",
          "type": "bool"
        }
      ],
      "stateMutability": "view",
      "type": "function"
    },
    {
      "inputs": [],
      "name": "renounceOwnership",
      "outputs": [],
      "stateMutability": "nonpayable",
      "type": "function"
    },
    {
      "inputs": [
        {
          "internalType": "address",
          "name": "to",
          "type": "address"
        }
      ],
      "name": "safeMint",
      "outputs": [],
      "stateMutability": "nonpayable",
      "type": "function"
    },
    {
      "inputs": [
        {
          "internalType": "address",
          "name": "from",
          "type": "address"
        },
        {
          "internalType": "address",
          "name": "to",
          "type": "address"
        },
        {
          "internalType": "uint256",
          "name": "tokenId",
          "type": "uint256"
        }
      ],
      "name": "safeTransferFrom",
      "outputs": [],
      "stateMutability": "nonpayable",
      "type": "function"
    },
    {
      "inputs": [
        {
          "internalType": "address",
          "name": "from",
          "type": "address"
        },
        {
          "internalType": "address",
          "name": "to",
          "type": "address"
        },
        {
          "internalType": "uint256",
          "name": "tokenId",
          "type": "uint256"
        },
        {
          "internalType": "bytes",
          "name": "_data",
          "type": "bytes"
        }
      ],
      "name": "safeTransferFrom",
      "outputs": [],
      "stateMutability": "nonpayable",
      "type": "function"
    },
    {
      "inputs": [
        {
          "internalType": "address",
          "name": "operator",
          "type": "address"
        },
        {
          "internalType": "bool",
          "name": "approved",
          "type": "bool"
        }
      ],
      "name": "setApprovalForAll",
      "outputs": [],
      "stateMutability": "nonpayable",
      "type": "function"
    },
    {
      "inputs": [
        {
          "internalType": "bytes4",
          "name": "interfaceId",
          "type": "bytes4"
        }
      ],
      "name": "supportsInterface",
      "outputs": [
        {
          "internalType": "bool",
          "name": "",
          "type": "bool"
        }
      ],
      "stateMutability": "view",
      "type": "function"
    },
    {
      "inputs": [],
      "name": "symbol",
      "outputs": [
        {
          "internalType": "string",
          "name": "",
          "type": "string"
        }
      ],
      "stateMutability": "view",
      "type": "function"
    },
    {
      "inputs": [
        {
          "internalType": "uint256",
          "name": "index",
          "type": "uint256"
        }
      ],
      "name": "tokenByIndex",
      "outputs": [
        {
          "internalType": "uint256",
          "name": "",
          "type": "uint256"
        }
      ],
      "stateMutability": "view",
      "type": "function"
    },
    {
      "inputs": [
        {
          "internalType": "address",
          "name": "owner",
          "type": "address"
        },
        {
          "internalType": "uint256",
          "name": "index",
          "type": "uint256"
        }
      ],
      "name": "tokenOfOwnerByIndex",
      "outputs": [
        {
          "internalType": "uint256",
          "name": "",
          "type": "uint256"
        }
      ],
      "stateMutability": "view",
      "type": "function"
    },
    {
      "inputs": [
        {
          "internalType": "uint256",
          "name": "tokenId",
          "type": "uint256"
        }
      ],
      "name": "tokenURI",
      "outputs": [
        {
          "internalType": "string",
          "name": "",
          "type": "string"
        }
      ],
      "stateMutability": "view",
      "type": "function"
    },
    {
      "inputs": [],
      "name": "totalSupply",
      "outputs": [
        {
          "internalType": "uint256",
          "name": "",
          "type": "uint256"
        }
      ],
      "stateMutability": "view",
      "type": "function"
    },
    {
      "inputs": [
        {
          "internalType": "address",
          "name": "from",
          "type": "address"
        },
        {
          "internalType": "address",
          "name": "to",
          "type": "address"
        },
        {
          "internalType": "uint256",
          "name": "tokenId",
          "type": "uint256"
        }
      ],
      "name": "transferFrom",
      "outputs": [],
      "stateMutability": "nonpayable",
      "type": "function"
    },
    {
      "inputs": [
        {
          "internalType": "address",
          "name": "newOwner",
          "type": "address"
        }
      ],
      "name": "transferOwnership",
      "outputs": [],
      "stateMutability": "nonpayable",
      "type": "function"
    },
    {
      "inputs": [],
      "name": "unpause",
      "outputs": [],
      "stateMutability": "nonpayable",
      "type": "function"
    }
  ],
  "transactionHash": "0xc83e7c7fe092cd823f52256f8e3805637d4fc0afd0959e76403eb468f62b4b22",
  "args": [],
  "solcInputHash": "a64fcf1d00251d9cc69c514715f0c39b",
  "bytecode": "0x60806040523480156200001157600080fd5b506040518060400160405280600581526020017f54756e666f0000000000000000000000000000000000000000000000000000008152506040518060400160405280600381526020017f544e460000000000000000000000000000000000000000000000000000000000815250816000908051906020019062000096929190620001c1565b508060019080519060200190620000af929190620001c1565b5050506000600b60006101000a81548160ff021916908315150217905550620000ed620000e1620000f360201b60201c565b620000fb60201b60201c565b620002d6565b600033905090565b6000600b60019054906101000a900473ffffffffffffffffffffffffffffffffffffffff16905081600b60016101000a81548173ffffffffffffffffffffffffffffffffffffffff021916908373ffffffffffffffffffffffffffffffffffffffff1602179055508173ffffffffffffffffffffffffffffffffffffffff168173ffffffffffffffffffffffffffffffffffffffff167f8be0079c531659141344cd1fd0a4f28419497f9722a3daafe3b4186f6b6457e060405160405180910390a35050565b828054620001cf9062000271565b90600052602060002090601f016020900481019282620001f357600085556200023f565b82601f106200020e57805160ff19168380011785556200023f565b828001600101855582156200023f579182015b828111156200023e57825182559160200191906001019062000221565b5b5090506200024e919062000252565b5090565b5b808211156200026d57600081600090555060010162000253565b5090565b600060028204905060018216806200028a57607f821691505b60208210811415620002a157620002a0620002a7565b5b50919050565b7f4e487b7100000000000000000000000000000000000000000000000000000000600052602260045260246000fd5b615b0e80620002e66000396000f3fe6080604052600436106101cd5760003560e01c80635c975abb116100f757806395d89b4111610095578063ca01ba3911610064578063ca01ba391461065c578063d607b5c614610685578063e985e9c5146106ae578063f2fde38b146106eb576101cd565b806395d89b41146105a2578063a22cb465146105cd578063b88d4fde146105f6578063c87b56dd1461061f576101cd565b8063715018a6116100d1578063715018a61461053257806372923270146105495780638456cb59146105605780638da5cb5b14610577576101cd565b80635c975abb1461048d5780636352211e146104b857806370a08231146104f5576101cd565b806327dc10e21161016f57806342842e0e1161013e57806342842e0e146103b857806342966c68146103e15780634378a6e31461040a5780634f6ccce714610450576101cd565b806327dc10e2146102fe5780632f745c591461033b5780633f4ba83a1461037857806340d097c31461038f576101cd565b8063095ea7b3116101ab578063095ea7b3146102775780631249c58b146102a057806318160ddd146102aa57806323b872dd146102d5576101cd565b806301ffc9a7146101d257806306fdde031461020f578063081812fc1461023a575b600080fd5b3480156101de57600080fd5b506101f960048036038101906101f491906145e8565b610714565b6040516102069190614ba0565b60405180910390f35b34801561021b57600080fd5b50610224610726565b6040516102319190614bbb565b60405180910390f35b34801561024657600080fd5b50610261600480360381019061025c919061463a565b6107b8565b60405161026e9190614b39565b60405180910390f35b34801561028357600080fd5b5061029e600480360381019061029991906145ac565b61083d565b005b6102a8610955565b005b3480156102b657600080fd5b506102bf6109eb565b6040516102cc9190614f59565b60405180910390f35b3480156102e157600080fd5b506102fc60048036038101906102f791906144a6565b6109f8565b005b34801561030a57600080fd5b506103256004803603810190610320919061463a565b610a58565b6040516103329190614ba0565b60405180910390f35b34801561034757600080fd5b50610362600480360381019061035d91906145ac565b610a6d565b60405161036f9190614f59565b60405180910390f35b34801561038457600080fd5b5061038d610b12565b005b34801561039b57600080fd5b506103b660048036038101906103b19190614441565b610b98565b005b3480156103c457600080fd5b506103df60048036038101906103da91906144a6565b610c20565b005b3480156103ed57600080fd5b506104086004803603810190610403919061463a565b610c40565b005b34801561041657600080fd5b50610431600480360381019061042c919061463a565b610c9c565b6040516104479a99989796959493929190614ebd565b60405180910390f35b34801561045c57600080fd5b506104776004803603810190610472919061463a565b610fab565b6040516104849190614f59565b60405180910390f35b34801561049957600080fd5b506104a2611042565b6040516104af9190614ba0565b60405180910390f35b3480156104c457600080fd5b506104df60048036038101906104da919061463a565b611059565b6040516104ec9190614b39565b60405180910390f35b34801561050157600080fd5b5061051c60048036038101906105179190614441565b61110b565b6040516105299190614f59565b60405180910390f35b34801561053e57600080fd5b506105476111c3565b005b34801561055557600080fd5b5061055e61124b565b005b34801561056c57600080fd5b506105756112ef565b005b34801561058357600080fd5b5061058c611375565b6040516105999190614b39565b60405180910390f35b3480156105ae57600080fd5b506105b761139f565b6040516105c49190614bbb565b60405180910390f35b3480156105d957600080fd5b506105f460048036038101906105ef9190614570565b611431565b005b34801561060257600080fd5b5061061d600480360381019061061891906144f5565b6115b2565b005b34801561062b57600080fd5b506106466004803603810190610641919061463a565b611614565b6040516106539190614bbb565b60405180910390f35b34801561066857600080fd5b50610683600480360381019061067e919061463a565b611626565b005b34801561069157600080fd5b506106ac60048036038101906106a79190614663565b611767565b005b3480156106ba57600080fd5b506106d560048036038101906106d0919061446a565b6119c4565b6040516106e29190614ba0565b60405180910390f35b3480156106f757600080fd5b50610712600480360381019061070d9190614441565b611a58565b005b600061071f82611b50565b9050919050565b606060008054610735906152b9565b80601f0160208091040260200160405190810160405280929190818152602001828054610761906152b9565b80156107ae5780601f10610783576101008083540402835291602001916107ae565b820191906000526020600020905b81548152906001019060200180831161079157829003601f168201915b5050505050905090565b60006107c382611bca565b610802576040517f08c379a00000000000000000000000000000000000000000000000000000000081526004016107f990614d9d565b60405180910390fd5b6004600083815260200190815260200160002060009054906101000a900473ffffffffffffffffffffffffffffffffffffffff169050919050565b600061084882611059565b90508073ffffffffffffffffffffffffffffffffffffffff168373ffffffffffffffffffffffffffffffffffffffff1614156108b9576040517f08c379a00000000000000000000000000000000000000000000000000000000081526004016108b090614e3d565b60405180910390fd5b8073ffffffffffffffffffffffffffffffffffffffff166108d8611c36565b73ffffffffffffffffffffffffffffffffffffffff161480610907575061090681610901611c36565b6119c4565b5b610946576040517f08c379a000000000000000000000000000000000000000000000000000000000815260040161093d90614cfd565b60405180910390fd5b6109508383611c3e565b505050565b61095d611042565b1561099d576040517f08c379a000000000000000000000000000000000000000000000000000000000815260040161099490614cdd565b60405180910390fd5b600a34146109e0576040517f08c379a00000000000000000000000000000000000000000000000000000000081526004016109d790614e1d565b60405180910390fd5b6109e933611cf7565b565b6000600880549050905090565b610a09610a03611c36565b82611d17565b610a48576040517f08c379a0000000000000000000000000000000000000000000000000000000008152600401610a3f90614e5d565b60405180910390fd5b610a53838383611df5565b505050565b600081610a65600d612051565b119050919050565b6000610a788361110b565b8210610ab9576040517f08c379a0000000000000000000000000000000000000000000000000000000008152600401610ab090614bfd565b60405180910390fd5b600660008473ffffffffffffffffffffffffffffffffffffffff1673ffffffffffffffffffffffffffffffffffffffff168152602001908152602001600020600083815260200190815260200160002054905092915050565b610b1a611c36565b73ffffffffffffffffffffffffffffffffffffffff16610b38611375565b73ffffffffffffffffffffffffffffffffffffffff1614610b8e576040517f08c379a0000000000000000000000000000000000000000000000000000000008152600401610b8590614dbd565b60405180910390fd5b610b9661205f565b565b610ba0611c36565b73ffffffffffffffffffffffffffffffffffffffff16610bbe611375565b73ffffffffffffffffffffffffffffffffffffffff1614610c14576040517f08c379a0000000000000000000000000000000000000000000000000000000008152600401610c0b90614dbd565b60405180910390fd5b610c1d81611cf7565b50565b610c3b838383604051806020016040528060008152506115b2565b505050565b610c51610c4b611c36565b82611d17565b610c90576040517f08c379a0000000000000000000000000000000000000000000000000000000008152600401610c8790614e9d565b60405180910390fd5b610c9981612101565b50565b6000806000806000806000806000808a610cb6600d612051565b11610cc057600080fd5b6000600e60008d8152602001908152602001600020604051806101400160405290816000820160009054906101000a900460ff166002811115610d2c577f4e487b7100000000000000000000000000000000000000000000000000000000600052602160045260246000fd5b6002811115610d64577f4e487b7100000000000000000000000000000000000000000000000000000000600052602160045260246000fd5b81526020016000820160019054906101000a900460ff166004811115610db3577f4e487b7100000000000000000000000000000000000000000000000000000000600052602160045260246000fd5b6004811115610deb577f4e487b7100000000000000000000000000000000000000000000000000000000600052602160045260246000fd5b81526020016000820160029054906101000a900461ffff1661ffff1661ffff1681526020016000820160049054906101000a900463ffffffff1663ffffffff1663ffffffff1681526020016000820160089054906101000a900460ff1660ff1660ff1681526020016000820160099054906101000a900460ff1660ff1660ff16815260200160008201600a9054906101000a900460ff1660ff1660ff16815260200160008201600b9054906101000a900460ff1660ff1660ff16815260200160008201600c9054906101000a900460ff1660ff1660ff16815260200160008201600d9054906101000a900460ff1660ff1660ff1681525050905080600001516002811115610f22577f4e487b7100000000000000000000000000000000000000000000000000000000600052602160045260246000fd5b81602001516004811115610f5f577f4e487b7100000000000000000000000000000000000000000000000000000000600052602160045260246000fd5b8260400151836060015184608001518560a001518660c001518760e001518861010001518961012001519a509a509a509a509a509a509a509a509a509a50509193959799509193959799565b6000610fb56109eb565b8210610ff6576040517f08c379a0000000000000000000000000000000000000000000000000000000008152600401610fed90614e7d565b60405180910390fd5b60088281548110611030577f4e487b7100000000000000000000000000000000000000000000000000000000600052603260045260246000fd5b90600052602060002001549050919050565b6000600b60009054906101000a900460ff16905090565b6000806002600084815260200190815260200160002060009054906101000a900473ffffffffffffffffffffffffffffffffffffffff169050600073ffffffffffffffffffffffffffffffffffffffff168173ffffffffffffffffffffffffffffffffffffffff161415611102576040517f08c379a00000000000000000000000000000000000000000000000000000000081526004016110f990614d3d565b60405180910390fd5b80915050919050565b60008073ffffffffffffffffffffffffffffffffffffffff168273ffffffffffffffffffffffffffffffffffffffff16141561117c576040517f08c379a000000000000000000000000000000000000000000000000000000000815260040161117390614d1d565b60405180910390fd5b600360008373ffffffffffffffffffffffffffffffffffffffff1673ffffffffffffffffffffffffffffffffffffffff168152602001908152602001600020549050919050565b6111cb611c36565b73ffffffffffffffffffffffffffffffffffffffff166111e9611375565b73ffffffffffffffffffffffffffffffffffffffff161461123f576040517f08c379a000000000000000000000000000000000000000000000000000000000815260040161123690614dbd565b60405180910390fd5b611249600061210d565b565b611253611c36565b73ffffffffffffffffffffffffffffffffffffffff16611271611375565b73ffffffffffffffffffffffffffffffffffffffff16146112c7576040517f08c379a00000000000000000000000000000000000000000000000000000000081526004016112be90614dbd565b60405180910390fd5b6112ed6112d4600d612051565b6112de600c612051565b6112e89190615170565b611626565b565b6112f7611c36565b73ffffffffffffffffffffffffffffffffffffffff16611315611375565b73ffffffffffffffffffffffffffffffffffffffff161461136b576040517f08c379a000000000000000000000000000000000000000000000000000000000815260040161136290614dbd565b60405180910390fd5b6113736121d3565b565b6000600b60019054906101000a900473ffffffffffffffffffffffffffffffffffffffff16905090565b6060600180546113ae906152b9565b80601f01602080910402602001604051908101604052809291908181526020018280546113da906152b9565b80156114275780601f106113fc57610100808354040283529160200191611427565b820191906000526020600020905b81548152906001019060200180831161140a57829003601f168201915b5050505050905090565b611439611c36565b73ffffffffffffffffffffffffffffffffffffffff168273ffffffffffffffffffffffffffffffffffffffff1614156114a7576040517f08c379a000000000000000000000000000000000000000000000000000000000815260040161149e90614c9d565b60405180910390fd5b80600560006114b4611c36565b73ffffffffffffffffffffffffffffffffffffffff1673ffffffffffffffffffffffffffffffffffffffff16815260200190815260200160002060008473ffffffffffffffffffffffffffffffffffffffff1673ffffffffffffffffffffffffffffffffffffffff16815260200190815260200160002060006101000a81548160ff0219169083151502179055508173ffffffffffffffffffffffffffffffffffffffff16611561611c36565b73ffffffffffffffffffffffffffffffffffffffff167f17307eab39ab6107e8899845ad3d59bd9653f200f220920489ca2b5937696c31836040516115a69190614ba0565b60405180910390a35050565b6115c36115bd611c36565b83611d17565b611602576040517f08c379a00000000000000000000000000000000000000000000000000000000081526004016115f990614e5d565b60405180910390fd5b61160e84848484612276565b50505050565b606061161f826122d2565b9050919050565b61162e611c36565b73ffffffffffffffffffffffffffffffffffffffff1661164c611375565b73ffffffffffffffffffffffffffffffffffffffff16146116a2576040517f08c379a000000000000000000000000000000000000000000000000000000000815260040161169990614dbd565b60405180910390fd5b60006116ae600d612051565b6116b8600c612051565b6116c29190615170565b905060008282116116d357816116d5565b825b905060006001436116e69190615170565b4060001c905060005b82811015611760576000611703600d612051565b9050600083828460405160200161171c93929190614afc565b6040516020818303038152906040528051906020012060001c90506117418282611767565b61174b600d612424565b505080806117589061531c565b9150506116ef565b5050505050565b61176f611c36565b73ffffffffffffffffffffffffffffffffffffffff1661178d611375565b73ffffffffffffffffffffffffffffffffffffffff16146117e3576040517f08c379a00000000000000000000000000000000000000000000000000000000081526004016117da90614dbd565b60405180910390fd5b6117ec8161243a565b600e600084815260200190815260200160002060008201518160000160006101000a81548160ff02191690836002811115611850577f4e487b7100000000000000000000000000000000000000000000000000000000600052602160045260246000fd5b021790555060208201518160000160016101000a81548160ff021916908360048111156118a6577f4e487b7100000000000000000000000000000000000000000000000000000000600052602160045260246000fd5b021790555060408201518160000160026101000a81548161ffff021916908361ffff16021790555060608201518160000160046101000a81548163ffffffff021916908363ffffffff16021790555060808201518160000160086101000a81548160ff021916908360ff16021790555060a08201518160000160096101000a81548160ff021916908360ff16021790555060c082015181600001600a6101000a81548160ff021916908360ff16021790555060e082015181600001600b6101000a81548160ff021916908360ff16021790555061010082015181600001600c6101000a81548160ff021916908360ff16021790555061012082015181600001600d6101000a81548160ff021916908360ff1602179055509050505050565b6000600560008473ffffffffffffffffffffffffffffffffffffffff1673ffffffffffffffffffffffffffffffffffffffff16815260200190815260200160002060008373ffffffffffffffffffffffffffffffffffffffff1673ffffffffffffffffffffffffffffffffffffffff16815260200190815260200160002060009054906101000a900460ff16905092915050565b611a60611c36565b73ffffffffffffffffffffffffffffffffffffffff16611a7e611375565b73ffffffffffffffffffffffffffffffffffffffff1614611ad4576040517f08c379a0000000000000000000000000000000000000000000000000000000008152600401611acb90614dbd565b60405180910390fd5b600073ffffffffffffffffffffffffffffffffffffffff168173ffffffffffffffffffffffffffffffffffffffff161415611b44576040517f08c379a0000000000000000000000000000000000000000000000000000000008152600401611b3b90614c3d565b60405180910390fd5b611b4d8161210d565b50565b60007f780e9d63000000000000000000000000000000000000000000000000000000007bffffffffffffffffffffffffffffffffffffffffffffffffffffffff1916827bffffffffffffffffffffffffffffffffffffffffffffffffffffffff19161480611bc35750611bc2826125b1565b5b9050919050565b60008073ffffffffffffffffffffffffffffffffffffffff166002600084815260200190815260200160002060009054906101000a900473ffffffffffffffffffffffffffffffffffffffff1673ffffffffffffffffffffffffffffffffffffffff1614159050919050565b600033905090565b816004600083815260200190815260200160002060006101000a81548173ffffffffffffffffffffffffffffffffffffffff021916908373ffffffffffffffffffffffffffffffffffffffff160217905550808273ffffffffffffffffffffffffffffffffffffffff16611cb183611059565b73ffffffffffffffffffffffffffffffffffffffff167f8c5be1e5ebec7d5bd14f71427d1e84f3dd0314c0f7b2291e5b200ac8c7c3b92560405160405180910390a45050565b611d0a81611d05600c612051565b612693565b611d14600c612424565b50565b6000611d2282611bca565b611d61576040517f08c379a0000000000000000000000000000000000000000000000000000000008152600401611d5890614cbd565b60405180910390fd5b6000611d6c83611059565b90508073ffffffffffffffffffffffffffffffffffffffff168473ffffffffffffffffffffffffffffffffffffffff161480611ddb57508373ffffffffffffffffffffffffffffffffffffffff16611dc3846107b8565b73ffffffffffffffffffffffffffffffffffffffff16145b80611dec5750611deb81856119c4565b5b91505092915050565b8273ffffffffffffffffffffffffffffffffffffffff16611e1582611059565b73ffffffffffffffffffffffffffffffffffffffff1614611e6b576040517f08c379a0000000000000000000000000000000000000000000000000000000008152600401611e6290614ddd565b60405180910390fd5b600073ffffffffffffffffffffffffffffffffffffffff168273ffffffffffffffffffffffffffffffffffffffff161415611edb576040517f08c379a0000000000000000000000000000000000000000000000000000000008152600401611ed290614c7d565b60405180910390fd5b611ee68383836126b1565b611ef1600082611c3e565b6001600360008573ffffffffffffffffffffffffffffffffffffffff1673ffffffffffffffffffffffffffffffffffffffff1681526020019081526020016000206000828254611f419190615170565b925050819055506001600360008473ffffffffffffffffffffffffffffffffffffffff1673ffffffffffffffffffffffffffffffffffffffff1681526020019081526020016000206000828254611f989190615045565b92505081905550816002600083815260200190815260200160002060006101000a81548173ffffffffffffffffffffffffffffffffffffffff021916908373ffffffffffffffffffffffffffffffffffffffff160217905550808273ffffffffffffffffffffffffffffffffffffffff168473ffffffffffffffffffffffffffffffffffffffff167fddf252ad1be2c89b69c2b068fc378daa952ba7f163c4a11628f55a4df523b3ef60405160405180910390a4505050565b600081600001549050919050565b612067611042565b6120a6576040517f08c379a000000000000000000000000000000000000000000000000000000000815260040161209d90614bdd565b60405180910390fd5b6000600b60006101000a81548160ff0219169083151502179055507f5db9ee0a495bf2e6ff9c91a7834c1ba4fdd244a5e8aa4e537bd38aeae4b073aa6120ea611c36565b6040516120f79190614b39565b60405180910390a1565b61210a81612709565b50565b6000600b60019054906101000a900473ffffffffffffffffffffffffffffffffffffffff16905081600b60016101000a81548173ffffffffffffffffffffffffffffffffffffffff021916908373ffffffffffffffffffffffffffffffffffffffff1602179055508173ffffffffffffffffffffffffffffffffffffffff168173ffffffffffffffffffffffffffffffffffffffff167f8be0079c531659141344cd1fd0a4f28419497f9722a3daafe3b4186f6b6457e060405160405180910390a35050565b6121db611042565b1561221b576040517f08c379a000000000000000000000000000000000000000000000000000000000815260040161221290614cdd565b60405180910390fd5b6001600b60006101000a81548160ff0219169083151502179055507f62e78cea01bee320cd4e420270b5ea74000d11b0c9f74754ebdbfc544b05a25861225f611c36565b60405161226c9190614b39565b60405180910390a1565b612281848484611df5565b61228d8484848461275c565b6122cc576040517f08c379a00000000000000000000000000000000000000000000000000000000081526004016122c390614c1d565b60405180910390fd5b50505050565b60606122dd82611bca565b61231c576040517f08c379a000000000000000000000000000000000000000000000000000000000815260040161231390614d7d565b60405180910390fd5b6000600a6000848152602001908152602001600020805461233c906152b9565b80601f0160208091040260200160405190810160405280929190818152602001828054612368906152b9565b80156123b55780601f1061238a576101008083540402835291602001916123b5565b820191906000526020600020905b81548152906001019060200180831161239857829003601f168201915b5050505050905060006123c66128f3565b90506000815114156123dc57819250505061241f565b6000825111156124115780826040516020016123f9929190614ad8565b6040516020818303038152906040529250505061241f565b61241a84612930565b925050505b919050565b6001816000016000828254019250508190555050565b612442614234565b600061244d836129d7565b9050600061245e600885901c612a37565b90506040518061014001604052808260028111156124a5577f4e487b7100000000000000000000000000000000000000000000000000000000600052602160045260246000fd5b81526020018360048111156124e3577f4e487b7100000000000000000000000000000000000000000000000000000000600052602160045260246000fd5b81526020016124f0612a6d565b60ff1661ffff168152602001612509601087901c612a76565b63ffffffff1681526020016125258385600060188a901c612ad7565b60ff16815260200161253e8385600160208a901c612ad7565b60ff1681526020016125578385600260288a901c612ad7565b60ff1681526020016125708385600360308a901c612ad7565b60ff1681526020016125898385600460388a901c612ad7565b60ff1681526020016125a28385600560408a901c612ad7565b60ff1681525092505050919050565b60007f80ac58cd000000000000000000000000000000000000000000000000000000007bffffffffffffffffffffffffffffffffffffffffffffffffffffffff1916827bffffffffffffffffffffffffffffffffffffffffffffffffffffffff1916148061267c57507f5b5e139f000000000000000000000000000000000000000000000000000000007bffffffffffffffffffffffffffffffffffffffffffffffffffffffff1916827bffffffffffffffffffffffffffffffffffffffffffffffffffffffff1916145b8061268c575061268b82612b0b565b5b9050919050565b6126ad828260405180602001604052806000815250612b75565b5050565b6126b9611042565b156126f9576040517f08c379a00000000000000000000000000000000000000000000000000000000081526004016126f090614cdd565b60405180910390fd5b612704838383612bd0565b505050565b61271281612ce4565b6000600a60008381526020019081526020016000208054612732906152b9565b90501461275957600a600082815260200190815260200160002060006127589190614313565b5b50565b600061277d8473ffffffffffffffffffffffffffffffffffffffff16612df5565b156128e6578373ffffffffffffffffffffffffffffffffffffffff1663150b7a026127a6611c36565b8786866040518563ffffffff1660e01b81526004016127c89493929190614b54565b602060405180830381600087803b1580156127e257600080fd5b505af192505050801561281357506040513d601f19601f820116820180604052508101906128109190614611565b60015b612896573d8060008114612843576040519150601f19603f3d011682016040523d82523d6000602084013e612848565b606091505b5060008151141561288e576040517f08c379a000000000000000000000000000000000000000000000000000000000815260040161288590614c1d565b60405180910390fd5b805181602001fd5b63150b7a0260e01b7bffffffffffffffffffffffffffffffffffffffffffffffffffffffff1916817bffffffffffffffffffffffffffffffffffffffffffffffffffffffff1916149150506128eb565b600190505b949350505050565b60606040518060400160405280601281526020017f687474703a2f2f676f6f676c652e636f6d2f0000000000000000000000000000815250905090565b606061293b82611bca565b61297a576040517f08c379a000000000000000000000000000000000000000000000000000000000815260040161297190614dfd565b60405180910390fd5b60006129846128f3565b905060008151116129a457604051806020016040528060008152506129cf565b806129ae84612e08565b6040516020016129bf929190614ad8565b6040516020818303038152906040525b915050919050565b600060808260ff1610156129ee5760009050612a32565b60cd8260ff161015612a035760019050612a32565b60f48260ff161015612a185760029050612a32565b60fe8260ff161015612a2d5760039050612a32565b600490505b919050565b600060568260ff161015612a4e5760009050612a68565b60ac8260ff161015612a635760019050612a68565b600290505b919050565b60006001905090565b600060698260ff161015612a8d5760019050612ad2565b60cf8260ff161015612aa257600a9050612ad2565b60f48260ff161015612ab75760329050612ad2565b60ff8260ff161015612acc5760649050612ad2565b6103e890505b919050565b600080612ae48685612fb5565b90506000612af28683613a5a565b9050612aff828286613cb2565b92505050949350505050565b60007f01ffc9a7000000000000000000000000000000000000000000000000000000007bffffffffffffffffffffffffffffffffffffffffffffffffffffffff1916827bffffffffffffffffffffffffffffffffffffffffffffffffffffffff1916149050919050565b612b7f8383613ce9565b612b8c600084848461275c565b612bcb576040517f08c379a0000000000000000000000000000000000000000000000000000000008152600401612bc290614c1d565b60405180910390fd5b505050565b612bdb838383613eb7565b600073ffffffffffffffffffffffffffffffffffffffff168373ffffffffffffffffffffffffffffffffffffffff161415612c1e57612c1981613ebc565b612c5d565b8173ffffffffffffffffffffffffffffffffffffffff168373ffffffffffffffffffffffffffffffffffffffff1614612c5c57612c5b8382613f05565b5b5b600073ffffffffffffffffffffffffffffffffffffffff168273ffffffffffffffffffffffffffffffffffffffff161415612ca057612c9b81614072565b612cdf565b8273ffffffffffffffffffffffffffffffffffffffff168273ffffffffffffffffffffffffffffffffffffffff1614612cde57612cdd82826141b5565b5b5b505050565b6000612cef82611059565b9050612cfd816000846126b1565b612d08600083611c3e565b6001600360008373ffffffffffffffffffffffffffffffffffffffff1673ffffffffffffffffffffffffffffffffffffffff1681526020019081526020016000206000828254612d589190615170565b925050819055506002600083815260200190815260200160002060006101000a81549073ffffffffffffffffffffffffffffffffffffffff021916905581600073ffffffffffffffffffffffffffffffffffffffff168273ffffffffffffffffffffffffffffffffffffffff167fddf252ad1be2c89b69c2b068fc378daa952ba7f163c4a11628f55a4df523b3ef60405160405180910390a45050565b600080823b905060008111915050919050565b60606000821415612e50576040518060400160405280600181526020017f30000000000000000000000000000000000000000000000000000000000000008152509050612fb0565b600082905060005b60008214612e82578080612e6b9061531c565b915050600a82612e7b9190615103565b9150612e58565b60008167ffffffffffffffff811115612ec4577f4e487b7100000000000000000000000000000000000000000000000000000000600052604160045260246000fd5b6040519080825280601f01601f191660200182016040528015612ef65781602001600182028036833780820191505090505b5090505b60008514612fa957600182612f0f9190615170565b9150600a85612f1e919061536f565b6030612f2a9190615045565b60f81b818381518110612f66577f4e487b7100000000000000000000000000000000000000000000000000000000600052603260045260246000fd5b60200101907effffffffffffffffffffffffffffffffffffffffffffffffffffffffffffff1916908160001a905350600a85612fa29190615103565b9450612efa565b8093505050505b919050565b600060016002811115612ff1577f4e487b7100000000000000000000000000000000000000000000000000000000600052602160045260246000fd5b83600281111561302a577f4e487b7100000000000000000000000000000000000000000000000000000000600052602160045260246000fd5b1415613340576000600581111561306a577f4e487b7100000000000000000000000000000000000000000000000000000000600052602160045260246000fd5b8260058111156130a3577f4e487b7100000000000000000000000000000000000000000000000000000000600052602160045260246000fd5b14156130b25760339050613a54565b600160058111156130ec577f4e487b7100000000000000000000000000000000000000000000000000000000600052602160045260246000fd5b826005811115613125577f4e487b7100000000000000000000000000000000000000000000000000000000600052602160045260246000fd5b14156131345760269050613a54565b6002600581111561316e577f4e487b7100000000000000000000000000000000000000000000000000000000600052602160045260246000fd5b8260058111156131a7577f4e487b7100000000000000000000000000000000000000000000000000000000600052602160045260246000fd5b14156131b65760669050613a54565b600360058111156131f0577f4e487b7100000000000000000000000000000000000000000000000000000000600052602160045260246000fd5b826005811115613229577f4e487b7100000000000000000000000000000000000000000000000000000000600052602160045260246000fd5b14156132385760b39050613a54565b60046005811115613272577f4e487b7100000000000000000000000000000000000000000000000000000000600052602160045260246000fd5b8260058111156132ab577f4e487b7100000000000000000000000000000000000000000000000000000000600052602160045260246000fd5b14156132ba5760739050613a54565b6005808111156132f3577f4e487b7100000000000000000000000000000000000000000000000000000000600052602160045260246000fd5b82600581111561332c577f4e487b7100000000000000000000000000000000000000000000000000000000600052602160045260246000fd5b141561333b5760cc9050613a54565b613a4f565b600280811115613379577f4e487b7100000000000000000000000000000000000000000000000000000000600052602160045260246000fd5b8360028111156133b2577f4e487b7100000000000000000000000000000000000000000000000000000000600052602160045260246000fd5b14156136c857600060058111156133f2577f4e487b7100000000000000000000000000000000000000000000000000000000600052602160045260246000fd5b82600581111561342b577f4e487b7100000000000000000000000000000000000000000000000000000000600052602160045260246000fd5b141561343a5760599050613a54565b60016005811115613474577f4e487b7100000000000000000000000000000000000000000000000000000000600052602160045260246000fd5b8260058111156134ad577f4e487b7100000000000000000000000000000000000000000000000000000000600052602160045260246000fd5b14156134bc57604d9050613a54565b600260058111156134f6577f4e487b7100000000000000000000000000000000000000000000000000000000600052602160045260246000fd5b82600581111561352f577f4e487b7100000000000000000000000000000000000000000000000000000000600052602160045260246000fd5b141561353e57604d9050613a54565b60036005811115613578577f4e487b7100000000000000000000000000000000000000000000000000000000600052602160045260246000fd5b8260058111156135b1577f4e487b7100000000000000000000000000000000000000000000000000000000600052602160045260246000fd5b14156135c05760669050613a54565b600460058111156135fa577f4e487b7100000000000000000000000000000000000000000000000000000000600052602160045260246000fd5b826005811115613633577f4e487b7100000000000000000000000000000000000000000000000000000000600052602160045260246000fd5b14156136425760a69050613a54565b60058081111561367b577f4e487b7100000000000000000000000000000000000000000000000000000000600052602160045260246000fd5b8260058111156136b4577f4e487b7100000000000000000000000000000000000000000000000000000000600052602160045260246000fd5b14156136c35760b39050613a54565b613a4e565b60006002811115613702577f4e487b7100000000000000000000000000000000000000000000000000000000600052602160045260246000fd5b83600281111561373b577f4e487b7100000000000000000000000000000000000000000000000000000000600052602160045260246000fd5b1415613a4d576000600581111561377b577f4e487b7100000000000000000000000000000000000000000000000000000000600052602160045260246000fd5b8260058111156137b4577f4e487b7100000000000000000000000000000000000000000000000000000000600052602160045260246000fd5b14156137c35760269050613a54565b600160058111156137fd577f4e487b7100000000000000000000000000000000000000000000000000000000600052602160045260246000fd5b826005811115613836577f4e487b7100000000000000000000000000000000000000000000000000000000600052602160045260246000fd5b141561384557600d9050613a54565b6002600581111561387f577f4e487b7100000000000000000000000000000000000000000000000000000000600052602160045260246000fd5b8260058111156138b8577f4e487b7100000000000000000000000000000000000000000000000000000000600052602160045260246000fd5b14156138c75760269050613a54565b60036005811115613901577f4e487b7100000000000000000000000000000000000000000000000000000000600052602160045260246000fd5b82600581111561393a577f4e487b7100000000000000000000000000000000000000000000000000000000600052602160045260246000fd5b14156139495760739050613a54565b60046005811115613983577f4e487b7100000000000000000000000000000000000000000000000000000000600052602160045260246000fd5b8260058111156139bc577f4e487b7100000000000000000000000000000000000000000000000000000000600052602160045260246000fd5b14156139cb5760599050613a54565b600580811115613a04577f4e487b7100000000000000000000000000000000000000000000000000000000600052602160045260246000fd5b826005811115613a3d577f4e487b7100000000000000000000000000000000000000000000000000000000600052602160045260246000fd5b1415613a4c57601a9050613a54565b5b5b5b600090505b92915050565b6000806000600c84613a6c919061509b565b905060016004811115613aa8577f4e487b7100000000000000000000000000000000000000000000000000000000600052602160045260246000fd5b856004811115613ae1577f4e487b7100000000000000000000000000000000000000000000000000000000600052602160045260246000fd5b1415613aec57600d91505b60026004811115613b26577f4e487b7100000000000000000000000000000000000000000000000000000000600052602160045260246000fd5b856004811115613b5f577f4e487b7100000000000000000000000000000000000000000000000000000000600052602160045260246000fd5b1415613b6a57601a91505b60036004811115613ba4577f4e487b7100000000000000000000000000000000000000000000000000000000600052602160045260246000fd5b856004811115613bdd577f4e487b7100000000000000000000000000000000000000000000000000000000600052602160045260246000fd5b1415613be857602b91505b600480811115613c21577f4e487b7100000000000000000000000000000000000000000000000000000000600052602160045260246000fd5b856004811115613c5a577f4e487b7100000000000000000000000000000000000000000000000000000000600052602160045260246000fd5b1415613c6557604091505b600060ff838360ff613c7791906151a4565b60ff16613c849190615134565b613c8e91906150d2565b9050808583613c9d91906151a4565b613ca7919061509b565b935050505092915050565b600060ff8360ff168360ff16613cc89190615134565b613cd291906150d2565b8460ff16613ce0919061500d565b90509392505050565b600073ffffffffffffffffffffffffffffffffffffffff168273ffffffffffffffffffffffffffffffffffffffff161415613d59576040517f08c379a0000000000000000000000000000000000000000000000000000000008152600401613d5090614d5d565b60405180910390fd5b613d6281611bca565b15613da2576040517f08c379a0000000000000000000000000000000000000000000000000000000008152600401613d9990614c5d565b60405180910390fd5b613dae600083836126b1565b6001600360008473ffffffffffffffffffffffffffffffffffffffff1673ffffffffffffffffffffffffffffffffffffffff1681526020019081526020016000206000828254613dfe9190615045565b92505081905550816002600083815260200190815260200160002060006101000a81548173ffffffffffffffffffffffffffffffffffffffff021916908373ffffffffffffffffffffffffffffffffffffffff160217905550808273ffffffffffffffffffffffffffffffffffffffff16600073ffffffffffffffffffffffffffffffffffffffff167fddf252ad1be2c89b69c2b068fc378daa952ba7f163c4a11628f55a4df523b3ef60405160405180910390a45050565b505050565b6008805490506009600083815260200190815260200160002081905550600881908060018154018082558091505060019003906000526020600020016000909190919091505550565b60006001613f128461110b565b613f1c9190615170565b9050600060076000848152602001908152602001600020549050818114614001576000600660008673ffffffffffffffffffffffffffffffffffffffff1673ffffffffffffffffffffffffffffffffffffffff168152602001908152602001600020600084815260200190815260200160002054905080600660008773ffffffffffffffffffffffffffffffffffffffff1673ffffffffffffffffffffffffffffffffffffffff168152602001908152602001600020600084815260200190815260200160002081905550816007600083815260200190815260200160002081905550505b6007600084815260200190815260200160002060009055600660008573ffffffffffffffffffffffffffffffffffffffff1673ffffffffffffffffffffffffffffffffffffffff16815260200190815260200160002060008381526020019081526020016000206000905550505050565b600060016008805490506140869190615170565b90506000600960008481526020019081526020016000205490506000600883815481106140dc577f4e487b7100000000000000000000000000000000000000000000000000000000600052603260045260246000fd5b906000526020600020015490508060088381548110614124577f4e487b7100000000000000000000000000000000000000000000000000000000600052603260045260246000fd5b906000526020600020018190555081600960008381526020019081526020016000208190555060096000858152602001908152602001600020600090556008805480614199577f4e487b7100000000000000000000000000000000000000000000000000000000600052603160045260246000fd5b6001900381819060005260206000200160009055905550505050565b60006141c08361110b565b905081600660008573ffffffffffffffffffffffffffffffffffffffff1673ffffffffffffffffffffffffffffffffffffffff168152602001908152602001600020600083815260200190815260200160002081905550806007600084815260200190815260200160002081905550505050565b6040518061014001604052806000600281111561427a577f4e487b7100000000000000000000000000000000000000000000000000000000600052602160045260246000fd5b8152602001600060048111156142b9577f4e487b7100000000000000000000000000000000000000000000000000000000600052602160045260246000fd5b8152602001600061ffff168152602001600063ffffffff168152602001600060ff168152602001600060ff168152602001600060ff168152602001600060ff168152602001600060ff168152602001600060ff1681525090565b50805461431f906152b9565b6000825580601f106143315750614350565b601f01602090049060005260206000209081019061434f9190614353565b5b50565b5b8082111561436c576000816000905550600101614354565b5090565b600061438361437e84614f99565b614f74565b90508281526020810184848401111561439b57600080fd5b6143a6848285615277565b509392505050565b6000813590506143bd81615a7c565b92915050565b6000813590506143d281615a93565b92915050565b6000813590506143e781615aaa565b92915050565b6000815190506143fc81615aaa565b92915050565b600082601f83011261441357600080fd5b8135614423848260208601614370565b91505092915050565b60008135905061443b81615ac1565b92915050565b60006020828403121561445357600080fd5b6000614461848285016143ae565b91505092915050565b6000806040838503121561447d57600080fd5b600061448b858286016143ae565b925050602061449c858286016143ae565b9150509250929050565b6000806000606084860312156144bb57600080fd5b60006144c9868287016143ae565b93505060206144da868287016143ae565b92505060406144eb8682870161442c565b9150509250925092565b6000806000806080858703121561450b57600080fd5b6000614519878288016143ae565b945050602061452a878288016143ae565b935050604061453b8782880161442c565b925050606085013567ffffffffffffffff81111561455857600080fd5b61456487828801614402565b91505092959194509250565b6000806040838503121561458357600080fd5b6000614591858286016143ae565b92505060206145a2858286016143c3565b9150509250929050565b600080604083850312156145bf57600080fd5b60006145cd858286016143ae565b92505060206145de8582860161442c565b9150509250929050565b6000602082840312156145fa57600080fd5b6000614608848285016143d8565b91505092915050565b60006020828403121561462357600080fd5b6000614631848285016143ed565b91505092915050565b60006020828403121561464c57600080fd5b600061465a8482850161442c565b91505092915050565b6000806040838503121561467657600080fd5b60006146848582860161442c565b92505060206146958582860161442c565b9150509250929050565b6146a8816151d8565b82525050565b6146b7816151ea565b82525050565b60006146c882614fca565b6146d28185614fe0565b93506146e2818560208601615286565b6146eb8161545c565b840191505092915050565b600061470182614fd5565b61470b8185614ff1565b935061471b818560208601615286565b6147248161545c565b840191505092915050565b600061473a82614fd5565b6147448185615002565b9350614754818560208601615286565b80840191505092915050565b600061476d601483614ff1565b91506147788261546d565b602082019050919050565b6000614790602b83614ff1565b915061479b82615496565b604082019050919050565b60006147b3603283614ff1565b91506147be826154e5565b604082019050919050565b60006147d6602683614ff1565b91506147e182615534565b604082019050919050565b60006147f9601c83614ff1565b915061480482615583565b602082019050919050565b600061481c602483614ff1565b9150614827826155ac565b604082019050919050565b600061483f601983614ff1565b915061484a826155fb565b602082019050919050565b6000614862602c83614ff1565b915061486d82615624565b604082019050919050565b6000614885601083614ff1565b915061489082615673565b602082019050919050565b60006148a8603883614ff1565b91506148b38261569c565b604082019050919050565b60006148cb602a83614ff1565b91506148d6826156eb565b604082019050919050565b60006148ee602983614ff1565b91506148f98261573a565b604082019050919050565b6000614911602083614ff1565b915061491c82615789565b602082019050919050565b6000614934603183614ff1565b915061493f826157b2565b604082019050919050565b6000614957602c83614ff1565b915061496282615801565b604082019050919050565b600061497a602083614ff1565b915061498582615850565b602082019050919050565b600061499d602983614ff1565b91506149a882615879565b604082019050919050565b60006149c0602f83614ff1565b91506149cb826158c8565b604082019050919050565b60006149e3601083614ff1565b91506149ee82615917565b602082019050919050565b6000614a06602183614ff1565b9150614a1182615940565b604082019050919050565b6000614a29603183614ff1565b9150614a348261598f565b604082019050919050565b6000614a4c602c83614ff1565b9150614a57826159de565b604082019050919050565b6000614a6f603083614ff1565b9150614a7a82615a2d565b604082019050919050565b614a8e81615222565b82525050565b614a9d81615250565b82525050565b614ab4614aaf82615250565b615365565b82525050565b614ac38161525a565b82525050565b614ad28161526a565b82525050565b6000614ae4828561472f565b9150614af0828461472f565b91508190509392505050565b6000614b088286614aa3565b602082019150614b188285614aa3565b602082019150614b288284614aa3565b602082019150819050949350505050565b6000602082019050614b4e600083018461469f565b92915050565b6000608082019050614b69600083018761469f565b614b76602083018661469f565b614b836040830185614a94565b8181036060830152614b9581846146bd565b905095945050505050565b6000602082019050614bb560008301846146ae565b92915050565b60006020820190508181036000830152614bd581846146f6565b905092915050565b60006020820190508181036000830152614bf681614760565b9050919050565b60006020820190508181036000830152614c1681614783565b9050919050565b60006020820190508181036000830152614c36816147a6565b9050919050565b60006020820190508181036000830152614c56816147c9565b9050919050565b60006020820190508181036000830152614c76816147ec565b9050919050565b60006020820190508181036000830152614c968161480f565b9050919050565b60006020820190508181036000830152614cb681614832565b9050919050565b60006020820190508181036000830152614cd681614855565b9050919050565b60006020820190508181036000830152614cf681614878565b9050919050565b60006020820190508181036000830152614d168161489b565b9050919050565b60006020820190508181036000830152614d36816148be565b9050919050565b60006020820190508181036000830152614d56816148e1565b9050919050565b60006020820190508181036000830152614d7681614904565b9050919050565b60006020820190508181036000830152614d9681614927565b9050919050565b60006020820190508181036000830152614db68161494a565b9050919050565b60006020820190508181036000830152614dd68161496d565b9050919050565b60006020820190508181036000830152614df681614990565b9050919050565b60006020820190508181036000830152614e16816149b3565b9050919050565b60006020820190508181036000830152614e36816149d6565b9050919050565b60006020820190508181036000830152614e56816149f9565b9050919050565b60006020820190508181036000830152614e7681614a1c565b9050919050565b60006020820190508181036000830152614e9681614a3f565b9050919050565b60006020820190508181036000830152614eb681614a62565b9050919050565b600061014082019050614ed3600083018d614a85565b614ee0602083018c614ac9565b614eed604083018b614a85565b614efa606083018a614aba565b614f076080830189614ac9565b614f1460a0830188614ac9565b614f2160c0830187614ac9565b614f2e60e0830186614ac9565b614f3c610100830185614ac9565b614f4a610120830184614ac9565b9b9a5050505050505050505050565b6000602082019050614f6e6000830184614a94565b92915050565b6000614f7e614f8f565b9050614f8a82826152eb565b919050565b6000604051905090565b600067ffffffffffffffff821115614fb457614fb361542d565b5b614fbd8261545c565b9050602081019050919050565b600081519050919050565b600081519050919050565b600082825260208201905092915050565b600082825260208201905092915050565b600081905092915050565b600061501882615222565b915061502383615222565b92508261ffff0382111561503a576150396153a0565b5b828201905092915050565b600061505082615250565b915061505b83615250565b9250827fffffffffffffffffffffffffffffffffffffffffffffffffffffffffffffffff038211156150905761508f6153a0565b5b828201905092915050565b60006150a68261526a565b91506150b18361526a565b92508260ff038211156150c7576150c66153a0565b5b828201905092915050565b60006150dd82615222565b91506150e883615222565b9250826150f8576150f76153cf565b5b828204905092915050565b600061510e82615250565b915061511983615250565b925082615129576151286153cf565b5b828204905092915050565b600061513f82615222565b915061514a83615222565b92508161ffff0483118215151615615165576151646153a0565b5b828202905092915050565b600061517b82615250565b915061518683615250565b925082821015615199576151986153a0565b5b828203905092915050565b60006151af8261526a565b91506151ba8361526a565b9250828210156151cd576151cc6153a0565b5b828203905092915050565b60006151e382615230565b9050919050565b60008115159050919050565b60007fffffffff0000000000000000000000000000000000000000000000000000000082169050919050565b600061ffff82169050919050565b600073ffffffffffffffffffffffffffffffffffffffff82169050919050565b6000819050919050565b600063ffffffff82169050919050565b600060ff82169050919050565b82818337600083830152505050565b60005b838110156152a4578082015181840152602081019050615289565b838111156152b3576000848401525b50505050565b600060028204905060018216806152d157607f821691505b602082108114156152e5576152e46153fe565b5b50919050565b6152f48261545c565b810181811067ffffffffffffffff821117156153135761531261542d565b5b80604052505050565b600061532782615250565b91507fffffffffffffffffffffffffffffffffffffffffffffffffffffffffffffffff82141561535a576153596153a0565b5b600182019050919050565b6000819050919050565b600061537a82615250565b915061538583615250565b925082615395576153946153cf565b5b828206905092915050565b7f4e487b7100000000000000000000000000000000000000000000000000000000600052601160045260246000fd5b7f4e487b7100000000000000000000000000000000000000000000000000000000600052601260045260246000fd5b7f4e487b7100000000000000000000000000000000000000000000000000000000600052602260045260246000fd5b7f4e487b7100000000000000000000000000000000000000000000000000000000600052604160045260246000fd5b6000601f19601f8301169050919050565b7f5061757361626c653a206e6f7420706175736564000000000000000000000000600082015250565b7f455243373231456e756d657261626c653a206f776e657220696e646578206f7560008201527f74206f6620626f756e6473000000000000000000000000000000000000000000602082015250565b7f4552433732313a207472616e7366657220746f206e6f6e20455243373231526560008201527f63656976657220696d706c656d656e7465720000000000000000000000000000602082015250565b7f4f776e61626c653a206e6577206f776e657220697320746865207a65726f206160008201527f6464726573730000000000000000000000000000000000000000000000000000602082015250565b7f4552433732313a20746f6b656e20616c7265616479206d696e74656400000000600082015250565b7f4552433732313a207472616e7366657220746f20746865207a65726f2061646460008201527f7265737300000000000000000000000000000000000000000000000000000000602082015250565b7f4552433732313a20617070726f766520746f2063616c6c657200000000000000600082015250565b7f4552433732313a206f70657261746f7220717565727920666f72206e6f6e657860008201527f697374656e7420746f6b656e0000000000000000000000000000000000000000602082015250565b7f5061757361626c653a2070617573656400000000000000000000000000000000600082015250565b7f4552433732313a20617070726f76652063616c6c6572206973206e6f74206f7760008201527f6e6572206e6f7220617070726f76656420666f7220616c6c0000000000000000602082015250565b7f4552433732313a2062616c616e636520717565727920666f7220746865207a6560008201527f726f206164647265737300000000000000000000000000000000000000000000602082015250565b7f4552433732313a206f776e657220717565727920666f72206e6f6e657869737460008201527f656e7420746f6b656e0000000000000000000000000000000000000000000000602082015250565b7f4552433732313a206d696e7420746f20746865207a65726f2061646472657373600082015250565b7f45524337323155524953746f726167653a2055524920717565727920666f722060008201527f6e6f6e6578697374656e7420746f6b656e000000000000000000000000000000602082015250565b7f4552433732313a20617070726f76656420717565727920666f72206e6f6e657860008201527f697374656e7420746f6b656e0000000000000000000000000000000000000000602082015250565b7f4f776e61626c653a2063616c6c6572206973206e6f7420746865206f776e6572600082015250565b7f4552433732313a207472616e73666572206f6620746f6b656e2074686174206960008201527f73206e6f74206f776e0000000000000000000000000000000000000000000000602082015250565b7f4552433732314d657461646174613a2055524920717565727920666f72206e6f60008201527f6e6578697374656e7420746f6b656e0000000000000000000000000000000000602082015250565b7f4361726420636f73742069732031302e00000000000000000000000000000000600082015250565b7f4552433732313a20617070726f76616c20746f2063757272656e74206f776e6560008201527f7200000000000000000000000000000000000000000000000000000000000000602082015250565b7f4552433732313a207472616e736665722063616c6c6572206973206e6f74206f60008201527f776e6572206e6f7220617070726f766564000000000000000000000000000000602082015250565b7f455243373231456e756d657261626c653a20676c6f62616c20696e646578206f60008201527f7574206f6620626f756e64730000000000000000000000000000000000000000602082015250565b7f4552433732314275726e61626c653a2063616c6c6572206973206e6f74206f7760008201527f6e6572206e6f7220617070726f76656400000000000000000000000000000000602082015250565b615a85816151d8565b8114615a9057600080fd5b50565b615a9c816151ea565b8114615aa757600080fd5b50565b615ab3816151f6565b8114615abe57600080fd5b50565b615aca81615250565b8114615ad557600080fd5b5056fea264697066735822122080065370c62f891037e493c116ed1e8bf64c10bdb5ae702b438efaaa6e6a8b7b64736f6c63430008040033",
  "devdoc": {
    "kind": "dev",
    "methods": {
      "approve(address,uint256)": {
        "details": "See {IERC721-approve}."
      },
      "balanceOf(address)": {
        "details": "See {IERC721-balanceOf}."
      },
      "burn(uint256)": {
        "details": "Burns `tokenId`. See {ERC721-_burn}. Requirements: - The caller must own `tokenId` or be an approved operator."
      },
      "getApproved(uint256)": {
        "details": "See {IERC721-getApproved}."
      },
      "isApprovedForAll(address,address)": {
        "details": "See {IERC721-isApprovedForAll}."
      },
      "name()": {
        "details": "See {IERC721Metadata-name}."
      },
      "owner()": {
        "details": "Returns the address of the current owner."
      },
      "ownerOf(uint256)": {
        "details": "See {IERC721-ownerOf}."
      },
      "paused()": {
        "details": "Returns true if the contract is paused, and false otherwise."
      },
      "renounceOwnership()": {
        "details": "Leaves the contract without owner. It will not be possible to call `onlyOwner` functions anymore. Can only be called by the current owner. NOTE: Renouncing ownership will leave the contract without an owner, thereby removing any functionality that is only available to the owner."
      },
      "safeTransferFrom(address,address,uint256)": {
        "details": "See {IERC721-safeTransferFrom}."
      },
      "safeTransferFrom(address,address,uint256,bytes)": {
        "details": "See {IERC721-safeTransferFrom}."
      },
      "setApprovalForAll(address,bool)": {
        "details": "See {IERC721-setApprovalForAll}."
      },
      "symbol()": {
        "details": "See {IERC721Metadata-symbol}."
      },
      "tokenByIndex(uint256)": {
        "details": "See {IERC721Enumerable-tokenByIndex}."
      },
      "tokenOfOwnerByIndex(address,uint256)": {
        "details": "See {IERC721Enumerable-tokenOfOwnerByIndex}."
      },
      "totalSupply()": {
        "details": "See {IERC721Enumerable-totalSupply}."
      },
      "transferFrom(address,address,uint256)": {
        "details": "See {IERC721-transferFrom}."
      },
      "transferOwnership(address)": {
        "details": "Transfers ownership of the contract to a new account (`newOwner`). Can only be called by the current owner."
      }
    },
    "version": 1
  },
  "userdoc": {
    "kind": "user",
    "methods": {},
    "version": 1
  },
  "storageLayout": {
    "storage": [
      {
        "astId": 221,
        "contract": "contracts/Tunfo.sol:Tunfo",
        "label": "_name",
        "offset": 0,
        "slot": "0",
        "type": "t_string_storage"
      },
      {
        "astId": 223,
        "contract": "contracts/Tunfo.sol:Tunfo",
        "label": "_symbol",
        "offset": 0,
        "slot": "1",
        "type": "t_string_storage"
      },
      {
        "astId": 227,
        "contract": "contracts/Tunfo.sol:Tunfo",
        "label": "_owners",
        "offset": 0,
        "slot": "2",
        "type": "t_mapping(t_uint256,t_address)"
      },
      {
        "astId": 231,
        "contract": "contracts/Tunfo.sol:Tunfo",
        "label": "_balances",
        "offset": 0,
        "slot": "3",
        "type": "t_mapping(t_address,t_uint256)"
      },
      {
        "astId": 235,
        "contract": "contracts/Tunfo.sol:Tunfo",
        "label": "_tokenApprovals",
        "offset": 0,
        "slot": "4",
        "type": "t_mapping(t_uint256,t_address)"
      },
      {
        "astId": 241,
        "contract": "contracts/Tunfo.sol:Tunfo",
        "label": "_operatorApprovals",
        "offset": 0,
        "slot": "5",
        "type": "t_mapping(t_address,t_mapping(t_address,t_bool))"
      },
      {
        "astId": 1192,
        "contract": "contracts/Tunfo.sol:Tunfo",
        "label": "_ownedTokens",
        "offset": 0,
        "slot": "6",
        "type": "t_mapping(t_address,t_mapping(t_uint256,t_uint256))"
      },
      {
        "astId": 1196,
        "contract": "contracts/Tunfo.sol:Tunfo",
        "label": "_ownedTokensIndex",
        "offset": 0,
        "slot": "7",
        "type": "t_mapping(t_uint256,t_uint256)"
      },
      {
        "astId": 1199,
        "contract": "contracts/Tunfo.sol:Tunfo",
        "label": "_allTokens",
        "offset": 0,
        "slot": "8",
        "type": "t_array(t_uint256)dyn_storage"
      },
      {
        "astId": 1203,
        "contract": "contracts/Tunfo.sol:Tunfo",
        "label": "_allTokensIndex",
        "offset": 0,
        "slot": "9",
        "type": "t_mapping(t_uint256,t_uint256)"
      },
      {
        "astId": 1528,
        "contract": "contracts/Tunfo.sol:Tunfo",
        "label": "_tokenURIs",
        "offset": 0,
        "slot": "10",
        "type": "t_mapping(t_uint256,t_string_storage)"
      },
      {
        "astId": 121,
        "contract": "contracts/Tunfo.sol:Tunfo",
        "label": "_paused",
        "offset": 0,
        "slot": "11",
        "type": "t_bool"
      },
      {
        "astId": 7,
        "contract": "contracts/Tunfo.sol:Tunfo",
        "label": "_owner",
        "offset": 1,
        "slot": "11",
        "type": "t_address"
      },
      {
        "astId": 3276,
        "contract": "contracts/Tunfo.sol:Tunfo",
        "label": "_tokenIdCounter",
        "offset": 0,
        "slot": "12",
        "type": "t_struct(Counter)2024_storage"
      },
      {
        "astId": 3279,
        "contract": "contracts/Tunfo.sol:Tunfo",
        "label": "_tokenIdToGenerateCounter",
        "offset": 0,
        "slot": "13",
        "type": "t_struct(Counter)2024_storage"
      },
      {
        "astId": 3284,
        "contract": "contracts/Tunfo.sol:Tunfo",
        "label": "_cards",
        "offset": 0,
        "slot": "14",
        "type": "t_mapping(t_uint256,t_struct(Card)2376_storage)"
      }
    ],
    "types": {
      "t_address": {
        "encoding": "inplace",
        "label": "address",
        "numberOfBytes": "20"
      },
      "t_array(t_uint256)dyn_storage": {
        "base": "t_uint256",
        "encoding": "dynamic_array",
        "label": "uint256[]",
        "numberOfBytes": "32"
      },
      "t_bool": {
        "encoding": "inplace",
        "label": "bool",
        "numberOfBytes": "1"
      },
      "t_enum(CardRarity)2342": {
        "encoding": "inplace",
        "label": "enum Cards.CardRarity",
        "numberOfBytes": "1"
      },
      "t_enum(CardType)2346": {
        "encoding": "inplace",
        "label": "enum Cards.CardType",
        "numberOfBytes": "1"
      },
      "t_mapping(t_address,t_bool)": {
        "encoding": "mapping",
        "key": "t_address",
        "label": "mapping(address => bool)",
        "numberOfBytes": "32",
        "value": "t_bool"
      },
      "t_mapping(t_address,t_mapping(t_address,t_bool))": {
        "encoding": "mapping",
        "key": "t_address",
        "label": "mapping(address => mapping(address => bool))",
        "numberOfBytes": "32",
        "value": "t_mapping(t_address,t_bool)"
      },
      "t_mapping(t_address,t_mapping(t_uint256,t_uint256))": {
        "encoding": "mapping",
        "key": "t_address",
        "label": "mapping(address => mapping(uint256 => uint256))",
        "numberOfBytes": "32",
        "value": "t_mapping(t_uint256,t_uint256)"
      },
      "t_mapping(t_address,t_uint256)": {
        "encoding": "mapping",
        "key": "t_address",
        "label": "mapping(address => uint256)",
        "numberOfBytes": "32",
        "value": "t_uint256"
      },
      "t_mapping(t_uint256,t_address)": {
        "encoding": "mapping",
        "key": "t_uint256",
        "label": "mapping(uint256 => address)",
        "numberOfBytes": "32",
        "value": "t_address"
      },
      "t_mapping(t_uint256,t_string_storage)": {
        "encoding": "mapping",
        "key": "t_uint256",
        "label": "mapping(uint256 => string)",
        "numberOfBytes": "32",
        "value": "t_string_storage"
      },
      "t_mapping(t_uint256,t_struct(Card)2376_storage)": {
        "encoding": "mapping",
        "key": "t_uint256",
        "label": "mapping(uint256 => struct Cards.Card)",
        "numberOfBytes": "32",
        "value": "t_struct(Card)2376_storage"
      },
      "t_mapping(t_uint256,t_uint256)": {
        "encoding": "mapping",
        "key": "t_uint256",
        "label": "mapping(uint256 => uint256)",
        "numberOfBytes": "32",
        "value": "t_uint256"
      },
      "t_string_storage": {
        "encoding": "bytes",
        "label": "string",
        "numberOfBytes": "32"
      },
      "t_struct(Card)2376_storage": {
        "encoding": "inplace",
        "label": "struct Cards.Card",
        "members": [
          {
            "astId": 2356,
            "contract": "contracts/Tunfo.sol:Tunfo",
            "label": "cardType",
            "offset": 0,
            "slot": "0",
            "type": "t_enum(CardType)2346"
          },
          {
            "astId": 2359,
            "contract": "contracts/Tunfo.sol:Tunfo",
            "label": "rarity",
            "offset": 1,
            "slot": "0",
            "type": "t_enum(CardRarity)2342"
          },
          {
            "astId": 2361,
            "contract": "contracts/Tunfo.sol:Tunfo",
            "label": "generation",
            "offset": 2,
            "slot": "0",
            "type": "t_uint16"
          },
          {
            "astId": 2363,
            "contract": "contracts/Tunfo.sol:Tunfo",
            "label": "donationValue",
            "offset": 4,
            "slot": "0",
            "type": "t_uint32"
          },
          {
            "astId": 2365,
            "contract": "contracts/Tunfo.sol:Tunfo",
            "label": "power",
            "offset": 8,
            "slot": "0",
            "type": "t_uint8"
          },
          {
            "astId": 2367,
            "contract": "contracts/Tunfo.sol:Tunfo",
            "label": "vitality",
            "offset": 9,
            "slot": "0",
            "type": "t_uint8"
          },
          {
            "astId": 2369,
            "contract": "contracts/Tunfo.sol:Tunfo",
            "label": "resistance",
            "offset": 10,
            "slot": "0",
            "type": "t_uint8"
          },
          {
            "astId": 2371,
            "contract": "contracts/Tunfo.sol:Tunfo",
            "label": "agility",
            "offset": 11,
            "slot": "0",
            "type": "t_uint8"
          },
          {
            "astId": 2373,
            "contract": "contracts/Tunfo.sol:Tunfo",
            "label": "inteligence",
            "offset": 12,
            "slot": "0",
            "type": "t_uint8"
          },
          {
            "astId": 2375,
            "contract": "contracts/Tunfo.sol:Tunfo",
            "label": "charisma",
            "offset": 13,
            "slot": "0",
            "type": "t_uint8"
          }
        ],
        "numberOfBytes": "32"
      },
      "t_struct(Counter)2024_storage": {
        "encoding": "inplace",
        "label": "struct Counters.Counter",
        "members": [
          {
            "astId": 2023,
            "contract": "contracts/Tunfo.sol:Tunfo",
            "label": "_value",
            "offset": 0,
            "slot": "0",
            "type": "t_uint256"
          }
        ],
        "numberOfBytes": "32"
      },
      "t_uint16": {
        "encoding": "inplace",
        "label": "uint16",
        "numberOfBytes": "2"
      },
      "t_uint256": {
        "encoding": "inplace",
        "label": "uint256",
        "numberOfBytes": "32"
      },
      "t_uint32": {
        "encoding": "inplace",
        "label": "uint32",
        "numberOfBytes": "4"
      },
      "t_uint8": {
        "encoding": "inplace",
        "label": "uint8",
        "numberOfBytes": "1"
      }
    }
  }
}